:020000040800F2
:1000000060320020ED440008674200086B4200089F
:1000100073420008754200087742000800000000A3
:10002000000000000000000000000000794200080D
:100030007B420008000000007D4200087F4200086B
:1000400087420008B54200082545000829450008F8
:100050002D45000869420008314500083545000873
:10006000394500083D450008414500084545000860
:10007000494500084D450008514500085545000810
:10008000594500085D4500086145000865450008C0
:10009000694500086D450008714500087545000870
:1000A000794500087D450008814500088545000820
:1000B000894500088D4500089145000895450008D0
:1000C000994500089D450008A1450008A545000880
:1000D000A945000891420008AD450008B145000857
:1000E000B5450008B9450008BD450008C1450008F0
:1000F000C5450008C9450008CD450008D1450008A0
:10010000D5450008D9450008DD450008E14500084F
:10011000E5450008E9450008ED450008F1450008FF
:10012000F5450008F9450008FD45000801460008AE
:1001300005460008094600080D460008114600085B
:1001400015460008194600081D460008214600080B
:1001500025460008294600082D46000831460008BB
:1001600035460008394600083D460008414600086B
:1001700045460008494600084D46000800000000BA
:10018000AD420008514600082DE9F14FB2B0994642
:10019000924600230691CDE900333C9A0F930DF16E
:1001A0004A0114914A7011E0329E57462C4617F8C6
:1001B000011B0698B0470028069000F026810F9892
:1001C000401C641E0F90F2D13296AA449AF80000A7
:1001D000252808D10021002209910A920B910C9246
:1001E0000D910E920FE06A464FF0FF31504601F03C
:1001F0007FF8050002D10F9800F066BED4D5012526
:10020000E3E741F001011AF8010F2028F9D0232873
:100210000CD02B2804D02D2805D0302809D00BE095
:1002200041F00201EFE741F00401ECE741F0080181
:10023000E9E741F01001E6E72A280FD1D9F80020BC
:1002400052F8040BC9F800200028119003D5404251
:10025000119041F004010AF1010A14E01192DFF853
:10026000EC3B0AE01198984205DA00EB800402EBBF
:100270004402303A11920AF1010A9AF80020A2F1E0
:1002800030000A28EED39AF800002E2803D04FF051
:10029000FF32109229E01AF8010F2A2809D1D9F863
:1002A000000050F8042BC9F8000010920AF1010A6E
:1002B0001BE02D280CBF0AF1010A00200022109239
:1002C000DFF8882B0BE040B9109B934205DA03EB73
:1002D000830504EB4504303C10940AF1010A9AF8B6
:1002E0000040A4F130030A2BEDD3ADF848100FF60F
:1002F00060309AF8001001F005F808B11AF8010B07
:100300008DF84A009DF84A00682805D19AF8000047
:1003100068280CD1622106E06C2804BF9AF800001E
:100320006C2804D171218DF84A100AF1010A1FA826
:1003300008901AF801BBBBF125012DD01C3900F043
:100340006181091F022940F25D810E392AD0491FBF
:1003500000F0B384093900F05581891E00F0498509
:10036000491E00F0F584491E022940F24B81091F05
:1003700000F0EE84491F00F0BA80491E00F09D8411
:10038000491E65D0C91E21D0891E00F09684C91E61
:1003900000F0938400F04CBD25238DF87C300121C2
:1003A00009912AE06C208DF84A00D9F8000050F835
:1003B000042BC9F80000002A43D11499487800287A
:1003C0003DD04FF0FF340FF6902012E09DF84A0028
:1003D0006C28EAD0D9F8000050F8044BC9F80000A6
:1003E0000794D4B91499487898B14FF0FF340FF6B8
:1003F000842000F0A1FF201A07D132981FAA04A977
:1004000000F065FD00287FF5E1AE4FF0FF3000F011
:100410005BBD0FF67C200790EFE7109D002D04D503
:10042000204600F0A9FF044607E02A46204600F0D7
:10043000CBFF002814BF041B2C460A94DDE70FF6FF
:100440005422329804A900F0C8FD0028D5D5DCE775
:10045000D9F8001051F8040BC9F8001020F000047E
:10046000002121F0FF351FABCDE904450793DDE9FD
:10047000042308993C2413B90AB9109898B102F0E2
:100480000F053035641EEEB23A2EA8BF273512098B
:1004900042EA03721B090D5508BF002A03D00798D2
:1004A0000D19A842EBD308190790C4F13C0210982B
:1004B0000A92824209DABDF84810821A4FF6EF70AC
:1004C00001400C92ADF8481097E7002895D59DF8AB
:1004D000480000F0140010288FD1119B09990C9846
:1004E0005B1A1B1A9A1A002A87DD0C9285E7149969
:1004F000487820B14FF0FF340FF69C1079E79DF853
:100500004A00622862D0682819D06A2840D06C2836
:1005100006D071284DD074282DD07A281ED064E0E2
:10052000D9F8001051F8040BC9F8001020B94FF0A9
:10053000FF340FF67C105CE70F9901605DE7D9F896
:10054000001051F8040BC9F8001020B94FF0FF3427
:100550000FF65C104DE70F9901804EE7D9F80010B7
:1005600051F8040BC9F800100028E5D14FF0FF3412
:100570000FF63C103DE7D9F8001051F8040BC9F80C
:1005800000100028D8D14FF0FF340FF6241030E7C8
:10059000D9F8001051F8040BC9F8001020B94FF039
:1005A000FF340FF60C1024E70F9AD317C0E900238D
:1005B00023E7D9F8001051F8040BC9F800100028FF
:1005C000F2D14FF0FF340FF6E80012E7D9F800102F
:1005D00051F8040BC9F8001020B94FF0FF340FF6A2
:1005E000D00006E70F99017007E7D9F8001051F81D
:1005F000040BC9F8001000289ED14FF0FF340FF60D
:10060000B000F6E6D9F80020D21D22F00702C9F8A2
:100610000020D2E900010832C9F80020CDE9040128
:10062000C80F02D009982D210AE0BDF848008107C3
:1006300002D509982B2103E0C00705D50998202190
:100640001FAA1154401C0990DDE9042309991FA831
:10065000CDE92E2308444BF020016129079015AC09
:100660000BD01099002902D50621109105E001BF99
:100670004BF02001672901221092DDE90423590083
:100680004915491C10D11A030ED0ABF161050321A5
:100690001A2D0A9102D20FF6A43101E00FF6A03113
:1006A000032200F0BDFEA8E659004915491C0AD1F5
:1006B0001A0308D1ABF1610503211A2D0A9116D353
:1006C0000FF68431ECE7DDE90401CDE93001DDE925
:1006D000302323F00047B7F5801F22F000060DD22B
:1006E0000022002F08BF002E029203D116E00FF661
:1006F0005431D5E702AA00F0E7FE0FE0DFF8EC0A7C
:10070000DFF8EC1A00EB17500290DDE930234FF0D0
:10071000FF301940DFF8DC7A10403943CDE904019D
:100720004BF0200061280DD1079830210170821C08
:10073000BBF1610F07920CBF7821582141700998D5
:10074000801C0990DDE9040120F0000231F0004333
:1007500008BF002A02D10026002571E14BF02008D5
:10076000B8F1610F40F0BE801098002847BF2121EA
:100770000391401C0390039FDDE92E017F1C0022A2
:100780000023DDE9044500F0D7FE02998DF85420DE
:1007900038BF85F00045091F002F02910DF1550665
:1007A0005DDDDFF8541ACDE9302140F2FF732E935E
:1007B000204629460022002300F0D6FE4FD24800F2
:1007C000400D00F11C0215D0002A13DD2E9B9A4229
:1007D0000ADBDDE9300121F0004205F00040024370
:1007E000DDE93001114611E06FF31E5141EA02517B
:1007F00020460BE024F0000035F0004108BF00283F
:100800000FBF29461C22294600F0C6FE04460D46AD
:1008100000F060FFFF1F002F804609DD00F078FF29
:1008200002460B462046294600F084FF04460D464A
:10083000F01D0721B8F1000F0CDD491E5EBF08F066
:100840000F0200F8012D4FEA2818F3D502E000222C
:1008500000F8012D491EFAD5C61D002FA8DC0DF1A8
:100860005500361A03988642D8BF304600280DF14D
:10087000550430D4B04206DA0DF155010A5C082A5D
:10088000A8BF0F2100DA0021024615AB134400E097
:10089000401E13F80159521E8D42F9D00F2904D180
:1008A0000DF155018B5C5B1C8B54002A04D5029919
:1008B000091D15AC401C0291411E0CD46218ABF10D
:1008C0003A0613783033DDB23A2DA8BFF318491E2B
:1008D00002F80139F5D51099002940F1AF80421E88
:1008E0001092ABE00299DFF8142947F29750414388
:1008F00091FBF2F2DDE92E45029225F00045D2F19E
:10090000070204DD2046294600F04CFC0BE0524271
:100910000020DFF8EC1800F045FC02460B462046AC
:10092000294600F079FF0446B8F1660F109806BF1B
:10093000029F0A3706273F18142FC8BF14273020FC
:100940008DF854000D460020DFF8B818CDE92E01CF
:100950000DF15506002F33DD2046294601F080F8C1
:1009600001460A4606F1080304200A26B2FBF6F601
:1009700006EB860EA2EB4E02303203F8012C0A225F
:10098000B6FBF2F202EB820EA6EB4E063036401EAC
:1009900003F8026DE9D1083F002F03F10806D9DD05
:1009A000084601F071F802460B462046294600F041
:1009B000C1FEDDE92E2301F075F804460D46CBE7B4
:1009C0000DF15500361A0DF1550404E00298401E51
:1009D000761E0290641C20783028F7D0B8F1660F9C
:1009E00002D10299491C04E0B8F1650F0CBF012146
:1009F0000021109808188642B8BF701E00281DD428
:100A0000B04204DA215C3429C8BF392100DC30212E
:100A10000246631E9D1800E0401E15F80169521E33
:100A20008E42F9D0392902D1A15C491CA154002A77
:100A300004D50299491C1C46401C02910646029DA1
:100A400000F05AFC406A0778DDF8408030B2002898
:100A500002DC01260FF2F4744BF02000662808BF78
:100A60006D1C16D0672846D128B210F1040F48DB60
:100A7000404546DA9DF848006D1C010703D430B2AA
:100A80004045B8BF804628B2B8EB000848BF4FF0D9
:100A900000080FFA85FB07980A99BBF1000F00F3D5
:100AA000B2804A1C0A9230234354B8F1000F03DC91
:100AB0009DF84800010704D50A98411C0A9107993E
:100AC0000F5418EB0B0FB8BFC8F100052DB26842E8
:100AD0000D90A84432B29045B8BF4646079B0A988D
:100AE00036B20B9632462146184400F099FCA8EB2A
:100AF00006000E90CBE0BBF1610F17D14FF0700BE9
:100B000019E030B2404504DA9DF848100A0758BF92
:100B10008046B8F1010848BF4FF00008BBF1670FED
:100B200014BF4FF0450B4FF0650B04E0BBF1410FD4
:100B300008BF4FF0500B0A98411C0A91B8F1000F02
:100B4000079914F8012B0A5403DC9DF848000107AB
:100B50001AD50A98411C0A91B8F1000F07990F5451
:100B600012DD761E30B2804507980A9BB8BF464614
:100B700032B22146184400F053FC0A9936B271187B
:100B80000A91A8EB06000D9007980A9908442AB22A
:100B9000002A80F800B003D42B224270811C04E0AC
:100BA0002D2141701546811C6D4200202EAA0A2479
:100BB00009E02B4693FBF4F505EB8506A3EB460312
:100BC00002F8013B401C2DB2002DF2DC012806DCAE
:100BD0004BF02002652A04BF302201F8012B0028C7
:100BE0002EAA08D1302001F8010B06E0401E135C4C
:100BF000303301F8013B0028F8DC079A0A981044CA
:100C0000091A0B9143E0084431B22AB2914219DA31
:100C100032B2214600F004FC0A9936B27118ABEBEF
:100C20000606B8F1000F0A910D9603DC9DF8480006
:100C3000020704D5079847540B99491C0B91CDF82E
:100C4000388024E0214600F0EBFB0A98761B5844DC
:100C5000B8F1000F0A9003DC9DF848100A0703D58D
:100C6000411C0A9107990F5430B2804507980A9B9E
:100C7000B8BF464632B204EB0B01184400F0D0FB7B
:100C80000A9836B230180A90A8EB06000D909DF82D
:100C9000480000F0140010287FF4AFAB099A0A99BD
:100CA0000D988A180B9982180E988A188218119834
:100CB0008242BFF6A2AB821A17E49DF84A0062286E
:100CC00008D068280ED06A2814D06C281FD071284C
:100CD00010D01CE0D9F8001051F8040BC9F800102E
:100CE000C0B21AE0D9F8001051F8040BC9F800108E
:100CF00080B212E0D9F80020D21D22F00702C9F814
:100D00000020D2E900010832C9F8002006E0D9F835
:100D1000001051F8040BC9F800100021CDE90401BE
:100D20009DF8480001075AD5DDE90423002B08BFD0
:100D3000002A54D04BF02000782850D109981FA9E0
:100D400030220A54401C431C099301F800B046E0CD
:100D50009DF84A00622808D068280ED06A2814D06E
:100D60006C281FD0712810D01CE0D9F8001051F861
:100D7000040BC9F8001040B21AE0D9F8001051F87D
:100D8000040BC9F8001000B212E0D9F80020D21DFF
:100D900022F00702C9F80020D2E900010832C9F8A0
:100DA000002006E0D9F8001051F8040BC9F8001033
:100DB000C117CDE90401002902D509982D210AE0C7
:100DC000BDF84800810702D509982B2103E0C00730
:100DD00005D5099820211FAA1154401C09901FA86D
:100DE00009990144079104A8594600F056F9FFF704
:100DF00004BB9DF84A006C280BD001210991D9F859
:100E0000000050F8041BC9F800008DF87C10FFF7B3
:100E1000F4BAD9F8000050F8041BC9F80000159185
:100E20004FF0FF3210920021169115AAFFF709BB6F
:100E300025210122BBF1000F8DF87C1009923FF4AF
:100E4000DCAA8DF87DB00221FFF7AABACBCCCC0C7E
:100E5000686A6C747A4C00007072696E74665F73B5
:100E60003A2062616420256C7320617267756D653C
:100E70006E7400007072696E74665F733A2062610E
:100E80006420257320617267756D656E74000000C3
:100E900000000000000000007072696E74665F73ED
:100EA0003A20256E20646973616C6C6F776564000D
:100EB0007072696E74663A2062616420256E2061EA
:100EC0007267756D656E740033B0BDE8F08F2DE903
:100ED000FC410F46064690467A6B7869396ABC6ACF
:100EE000121AB869521A796A121AF869521A121A41
:100EF00097F83800141B41070FD42020002C8DF8E0
:100F000000000ADD254601236A463946304600F0D6
:100F10007DF900285DD16D1EF5D17B6942463946C9
:100F2000304600F073F9002853D130208DF80000CE
:100F30003D6A002D09DD01236A463946304600F03E
:100F400065F9002845D16D1EF5D1BB69FA683946AF
:100F5000304600F05BF900283BD130208DF80000CE
:100F60007D6A002D08DD01236A463946304600F0CF
:100F70004DF970BB6D1EF6D1F868B969FB6942186E
:100F80003946304600F042F918BB30208DF8000099
:100F9000BD6A002D08DD01236A463946304600F05F
:100FA00035F9B0B96D1EF6D197F8380041070DD567
:100FB0002020002C8DF8000008DD01236A46394608
:100FC000304600F023F920B9641EF6D10020BDE8B8
:100FD000F6814FF0FF30BDE8F6812DE9F8470D4668
:100FE000A3B02F6B002F8246904648BF6FF000479A
:100FF00000F029FE696B401801AA0021C2E9001126
:10100000812828BF4FF0FF3044D289461EE0A74216
:1010100030DB6869201881280BD30021696303AA9B
:1010200029465046FFF753FF5FEA000922D400200B
:10103000686103AB6E6922466946981900F0F0F9C1
:10104000A6196E6158F8040BA0B13F1B002F11DDEB
:10105000D8F8001001AA684600F04CF90446002CAC
:1010600005D4D8F800000028D1D1641ECFD54FF0A8
:10107000FF390EE0B9F1000F504604D103AA29460A
:10108000FFF725FF8146B9F1000F02D1002068610A
:101090006863484624B0BDE8F0872DE9FC43074665
:1010A0006F293E6908BF082405D041F02000782848
:1010B00014BF0A2410243C25D7E90023642918BF53
:1010C00069299046994605D1002B03D5D8F100082F
:1010D00069EB4909B9F1000F08BFB8F1000F0CD155
:1010E000386B50B9082C39D197F83800010735D53D
:1010F00030203B2586F83B0030E08DF8001040465C
:1011000049462246E31700F0A3FD3032D0B26D1EEF
:101110003A28019504DB9DF80000A0F151018A18DE
:101120007255404649462246E31700F091FD80463D
:101130005FEA010908BFB8F1000F03D0F868711920
:101140008842DCD3082C09D197F83800010705D56F
:10115000705D302802D06D1E30207055C5F13C0204
:10116000BA617119F960386B824208DA821A3A6200
:101170004FF6EF70398F01403987BDE8F3830028BF
:101180000ED597F8380000F01400102808D17B6BBA
:101190007969386A5B1A1B1A9A1A002AC8BF3A6220
:1011A000BDE8F3832DE9D04306460F4614464FF0C1
:1011B0000008DFF8549012E0E00707D542464B469E
:1011C0003046394600F06EFC06460F46404649461A
:1011D00042464B4600F066FC641080468946002C6F
:1011E000EAD130463946BDE8D083000002FCFFFF5B
:1011F000FFFF0F800000E03F0000F07FA0860100AD
:101200000000F03F84D7974100002440F8B5054620
:101210000E4617461C4600205CB117F8011BB0684B
:10122000A847B06030B1F06A401CF0620020641E34
:10123000F3D1F2BD4FF0FF30F2BD00006E616E00E1
:101240004E414E00696E6600494E4600300030B493
:10125000002513E050F8042BD30744BFA9F1010384
:101260009A18091F042942F8045BFAD213468C0726
:1012700044BF15809B1CC90748BF1D7050F8041B54
:101280000029E7D130BC70471C48704770B45368E0
:10129000D41801E05B1C491E042B08DA00291FBF8B
:1012A000057804F8015B10F8016B002EF2D1536051
:1012B00070BC704738B514461D4661B1FFF7E6FFB4
:1012C00061686A6B204690476FF00102811A02D074
:1012D000491E01D001E003E005E00021616032BD5C
:1012E0006FF0010032BD4FF0FF3032BDDA6B1047B6
:1012F000024BDFE7014BF9E7014870475800002037
:1013000020000020C9B202788A421AB11CBF10F82E
:10131000012FF9E718BF00207047B1F5807F02D395
:101320004FF0FF3070470170012070470078401E79
:101330008041C043C00F704780B500B906A0054981
:101340000B681BB122220021984701E000F098FDB4
:10135000222002BD582E0020636F6E737472616983
:101360006E742068616E646C65723A2062616420FC
:101370006D6573736167650000F10103810704D037
:1013800010F8011B820781B1FAD10268A2F1013184
:10139000914311F0803104BF50F8042FF6E709BAE9
:1013A000B1FA81F100EBD100401CC01A704782688D
:1013B000521C8260426832B10268531C0360117093
:1013C0004168491E41607047C9B2830706D0521E6A
:1013D00022D310F8013B9942F7D11FE0083A13D30A
:1013E00002F1040241EA012141EA014150F8043BC3
:1013F000121F21BF4B40A3F1013C2CEA030C1CF04F
:10140000803FF3D0C9B2001F083210F8013B521ED2
:1014100028BF91EA030FF8D818BF0120401E70477B
:1014200062B38B0708D0521E11F8013B00F8013B54
:1014300000F024808B07F6D1830740F0208000BFA6
:10144000103A07D330B4B1E83810103AA0E8381099
:10145000F9D230BC530724BFB1E80810A0E8081047
:1014600044BF51F8043B40F8043BD20724BF31F895
:10147000022B20F8022B44BF0B7803707047121F19
:1014800017D35B0009D151F8043B20F8023B1B0C39
:10149000121F20F8023BF6D20BE051F8043B00F893
:1014A000013B1B0A20F8023B1B0C121F00F8013BFA
:1014B000F3D238BF121D521E24BF11F8013B00F8B1
:1014C000013BF8D870472E0010B5144600F002F822
:1014D000226010BDC1F30A5343B14A0012F5001F48
:1014E00028D2A3F2FE32A1EB0251704750EA410C20
:1014F00020D001F0004C31EA0C01B1FA81F204BFB6
:10150000B0FA80F3D2180B3AB2F120032CBF00FAE4
:1015100003F1914041EA0C013EBFC2F1200C20FAD8
:101520000CF319439040524240F2FD33D21A01EBC2
:1015300003517047002270474FF4001C1CEB410F11
:1015400094BF1CEB430F09E041EA030C50EA4C0C3A
:1015500052EA0C0C03D2994208BF9042704714BF64
:101560008B428242704743004FF4001C1CEB410F3A
:1015700094BF1CEB430F09E041EA030C50EA4C0C0A
:1015800052EA0C0C03D28B4208BF8242704714BF50
:101590009942904270470000124254D440F2FF7CBE
:1015A0001CEA11530FD0634531D09B1863453CBFF3
:1015B00001EB0251704701F0004141EA0C5100205B
:1015C000AFF30080704750EA410320D001F0004C97
:1015D00091EA0C011CD0B1FA81F30B3B9A420DD970
:1015E000D21A994051EA0C01C3F1200C20FA0CFCEC
:1015F00061449840531C40F2FF7CD7E7914041EA98
:101600000C01C2F1200C20FA0CF3194390407047F2
:10161000B0FA80F31533202BE0D3202AEED3203A02
:10162000203B9A4209D9D21A00FA03F141EA0C018F
:101630000020531C40F2FF7CB8E700FA02F141EAB7
:101640000C0100207047524240F2FF7C1CEA11530B
:101650000DD06345DBD0B2EB030C3CBFA1EB0251D4
:1016600070470CF1010221EA035141F4801150EA64
:10167000410CCCD001F0004C352A27DC30B481EA93
:101680000C01B2F1200309DAC2F12003044601FA89
:1016900003F5D0402843D1409C400CE0C3F1200228
:1016A000450020FA03F418BF44F0010421FA03F0C6
:1016B00091400C43002174F1004550F1000051EBC2
:1016C0000C01244230BC7FF47BAF704761460020A0
:1016D00076E70000C1F30A5340F2FE329B1A14DD94
:1016E000D3F120034FEAE17208DDC90241EA50510B
:1016F00041F00040D84080185040704703F2E1307C
:1017000010B1D24382F000407047002070470000C3
:10171000C11768B14840401AB0FA80F29040D21C1C
:10172000C907C2F5846241EA025202EBD0214005AA
:101730007047000070B44FF0004591EA030F40F18C
:10174000A3836B40841A71EB030603D2001BB141E3
:10175000121973414FF4001C1CEB410F34BF7CEB9A
:10176000430442E00C0DA4EB1356352E4FDC45EA42
:10177000C323DB0A45EAC121C912B6F120050DDDFC
:1017800063FA05F6EB4086EA0305124218BF45F0FE
:101790000105C01851F100010CD213E062FA06F500
:1017A000F2405540F3415A40B340F3405A4080184C
:1017B000594107D349085FEA30005FEA350528BF81
:1017C00045F0010501F58011420875F1004250F124
:1017D000000041EB04514E0016F5001F70BC38BFED
:1017E00070470020090D090570471CEB410F10D20E
:1017F00052EA43060BD0BCEB410F05D80C0DAB43AE
:10180000661E342EB6DD02E0AB438018594170BC31
:10181000704770BC70470000F0B540F2FF7581EA78
:10182000030C0CF0004C15EA11541DBF15EA1357B8
:10183000AC42AF42E5E0BC41C1F31301C3F3130373
:10184000801A994143F4801304D2641E4000494138
:1018500080185941C90241EA5051B1FBF3F603FB2C
:101860001611A2FB0675D7EBC020A94102D2761E45
:1018700080185941C90241EA5051B1FBF3FE03FB04
:101880001E11A2FB0E75D7EBC020A94103D2AEF109
:10189000010E80185941890241EA9051760546EAC5
:1018A0008E2EB1FBF3F603FB1611A2FB0675D7EBE8
:1018B0008020A94102D2761E80185941C90241EA0E
:1018C00050514EEA060EB1FBF3F603FB1611A2FBD4
:1018D0000675D7EBC020A94102D2761E8018594167
:1018E000C90241EA5051B1FBF3F703FB1711A2FB08
:1018F0000735D3EBC020A94167F100070CBF0042B8
:1019000047F0010766F3D5274FEA1E31B80814F5F2
:10191000806412DDBD0775F1004250EB0E5051EBB3
:10192000045111F5801F5CBF41EA0C01F0BD4CF081
:101930007F6141F0E0410020F0BDBD076D0840EA45
:101940000E5041F48011D4F10104B4F120060ADAFA
:10195000C4F120060200E04001FA06F3E14018431A
:10196000B24015430EE0342C13DCC6F1200445EAE6
:1019700040056D0820FA06F2154321FA06F0A14051
:101980000D43002175F1004250F1000051EB0C01B4
:10199000F0BD00205FEA0C01F0BDCFB992185B41A9
:1019A000B3FA83F704BFB2FA82F6BF190B3FB7F15F
:1019B00020062FBF02FA06F3BB40C7F1200622FA29
:1019C00006F638BF3343BA401CB1E419641E33E74E
:1019D0007F4231F00041B1FA81F404BFB0FA80F6E1
:1019E000A4190B3CB4F120062FBF00FA06F1A14068
:1019F000C4F1200620FA06F638BF3143A0403C1B54
:101A00001AE7AC421ABF05EA1357AF4212E050EA98
:101A100041061CBF52EA4306BFE750EA4107304681
:101A200061461CBF41EA0551F0BD52EA430C08BFB4
:101A3000C143F0BD00204FF4001616EB410F98BFD4
:101A400016EB430F08BF16EB410F24BFC14305E05F
:101A500016EB430F0CBF61464CEA0551F0BD000088
:101A6000400D491840EA81200CD2490DA1F5806152
:101A7000491C40F0004005DBD1F11F0154BFC840B4
:101A8000C017704700207047014648B1B0FA80F196
:101A90008840C91CC1F58461090501EBD0214005CE
:101AA00070470000B0B581EA030C0CF0004C40F226
:101AB000FF7515EA11541DBF15EA1357AC42AF422A
:101AC00039E0E41923EA455343F48013C90241F095
:101AD000004141EA505EC7021100A7FB0202002844
:101AE0004FF00000EEFB01204FF00001E3FB072167
:101AF00018BF42F00102401800214941E3FB0E01EA
:101B0000A4F580640F0302D252004041494154F1D0
:101B100001046CDD470872F1004250F1000051EB06
:101B20000451A1F580115CBF41EA0C01B0BD4CEA43
:101B300005510020B0BD05EA1357AC4214BFAF42B7
:101B400041E050EA410E1CBF52EA430E02E06146FA
:101B50000020B0BD24423C441BD15FEA070EF6D002
:101B6000090302BF01460020AEF1140EB1FA81F75D
:101B7000AEEB070401FA07FE0C37C7F1200100FAAB
:101B800007F7C8404EEA000E23EA455343F480139A
:101B9000A2E733F00043B3FA83F704BFB2FA82FE40
:101BA00077440B3FE41BB7F1200E2FBF02FA0EF370
:101BB000BB40C7F1200E22FA0EFE38BF43EA0E03E7
:101BC000BA40641C82E750EA410E14BF52EA430E49
:101BD0006FF000014FF4001717EB430F8ABF19464F
:101BE00017EB410FB5E74CEA05510020B0BDD4F129
:101BF0000104B4F120070FDAC4F12007520828BF0E
:101C000042F0010210FA07F501FA07F7E1BF2A4393
:101C1000E0403843E1400FE0352C98DCC7F1200468
:101C200052EA400220FA07F218BF42F0010231FAEC
:101C300007F0A1400A43002172F1004250F1000078
:101C400051EB0C01B0BD80B5FFF71EFB006C02BD6F
:101C5000BBBBE1B1B2F5803F80F07E80022A1ED985
:101C60008C46B1FBF2F102FB11C31B0443EA1043A3
:101C7000B3FBF2FC02FB1C3380B240EA0343B3FB2C
:101C8000F2F002FB103240EA0C4000237047022AB7
:101C900005D98446B0FBF2F002FB10C270474AB18E
:101CA00005D100F0010249085FEA300070470022C8
:101CB0000023704700F09EB90B00020000210020B5
:101CC0007047904271EB030CF6D3B3F5803F2FD2EF
:101CD000F0B5B3FA83F7B1FA81F4A7F10F0E3D1B0B
:101CE0005340CEF1200602FA0EF2F3415340B5F113
:101CF0000F0746D80F3C2C444140C4F12006A040B9
:101D0000F1414140B1FBF3F603FB1611A2FB06457E
:101D1000001BA94102D2761E8018594180EA0102B7
:101D200021FA0EF362FA0EF200215A403046F0BD5D
:101D300030B4B1FBF3FC03FB1C11A2FB0C45001BF0
:101D4000A94103D2ACF1010C8018594130BC0246C4
:101D50000B46604600217047B2F1807F65D3F0B535
:101D6000B2FA82F7B1FA81F4C7F10F063D1B22FAED
:101D700006F307F1110EF24120355A40B5F10F0775
:101D8000B8D94140C4F12006A040F1414140B1FB27
:101D9000F3FC03FB1C11A2FB0C45001BA94103D261
:101DA000BCF1010C801859410F2F12D30F3FC9030A
:101DB00041EA5041B1FBF3F603FB1611A2FB0645C5
:101DC000D4EBC030A94102D2761E8018594146EAB0
:101DD000CC3C07B34140C7F12006B840F141414037
:101DE000B1FBF3F603FB1611A2FB0645001BA9414C
:101DF00002D2761E8018594180EA010221FA0EF3C0
:101E0000C7F1200462FA0EF20CFA07F05A402CFADD
:101E100004F13043F0BD80EA010221FA0EF3002103
:101E200062FA0EF260465A40F0BD8C46B1FBF2F108
:101E300002FB11C31B0243EA1063B3FBF2FC02FB7B
:101E40001C331B024CEA002043EA1063B3FBF2FC94
:101E500002FB1C331B024CEA002043EA1063B3FB75
:101E6000F2FC02FB1C331B024CEA002043EA106325
:101E7000B3FBF2FC02FB1C324CEA0020002370474B
:101E8000012000F0B9B80000841A71EB030604D2F7
:101E90006E40001BB141121973414FF4001C1CEB42
:101EA000410F34BF7CEB430683E00C0DA4EB1356CB
:101EB000362E00F37C80012E45EAC32341DC43EA41
:101EC000525312BFD20292025B08240545EAC12197
:101ED00041EA5051D2EBC020994125D407D1B0FA44
:101EE00080F610FA06F162D00020203608E0B1FA40
:101EF00081F6B140C6F1200220FA02F21143B0404F
:101F00004FEAF474B4EB465434F001064FEA74041B
:101F10000AD8D6F50016760D04F00044F04061FAB8
:101F200006F25040F1404840C00A40EA415021F0DA
:101F3000004128BF5FEA500550F1000044EBD12179
:101F400035E0DB0A45EAC121C90AB6F120050EDDFC
:101F500042EA0242120CC5F1200603FA06F6EB40F3
:101F600042EA06056D42984161F100010DE062FA16
:101F700006F5F240554063FA06FC82EA0C02F34093
:101F80005A406D42904161EB030111F4801F05D16D
:101F9000641E620502D06D004041494121F4801168
:101FA000430875F1004350F1000041EB045170BC4F
:101FB00070471CEB410F15D223F0004352EA430651
:101FC0000BD04FEA4C0CBCEB410F04D80C0D661E35
:101FD000342EB7DDEBE7801A994150EA410608BF7D
:101FE0000021E4E708BF1CEB430F28BF6FF000019E
:101FF000DDE700007047000080B5AFF30080024AC3
:1020000011001820ABBEFBE726000200DFF88C06AB
:102010000068C0F302207047010049B200290AD4C9
:10202000012210F01F018A40DFF8741603005BB232
:102030005B0941F82320704710B4020052B2002A15
:1020400006D40A01DFF85C36040064B21A5509E0D0
:102050000A01DFF85436040064B214F00F0423447C
:1020600003F8042C10BC704770B4030013F007048D
:10207000D4F10700052801D3042001E0D4F10700C2
:10208000251D072D01D2002500E0E51E012616FAC8
:1020900000F0401E0140A94016FA05F56D1E2A40C9
:1020A0001143080070BC704781B0DFF800160A6861
:1020B00002430A60096801400091009901B070472D
:1020C000DFF8E8150A6882430A60704781B0DFF8DC
:1020D000E0150A6802430A6009680140009100990E
:1020E00001B07047DFF8C8150A6882430A6070477C
:1020F00030B4046891FAA1F3B3FA83F30325DBB299
:102100005B009D40AC4391FAA1F3B3FA83F3DBB2D9
:102110005B0012FA03F31C43046030BC704781611A
:1021200070470A0482617047C16851F40051C16070
:102130007047016931F490410161416931F02A0130
:1021400041617047006810F0010070470068400866
:1021500010F0010070470068800810F0010070471F
:102160000068C00810F0010070470068000910F016
:10217000010070470068400910F0010070470068D6
:10218000800910F0010070470068C00910F00100DC
:1021900070470068000A10F0010070470068400AAC
:1021A00010F00100704781B001680091009941680A
:1021B0000091009901B0704781B0016800910099C9
:1021C00041680091009901B0704781B001680091A9
:1021D000009941680091009901B0704781B0016891
:1021E0000091009941680091009901B0704781B059
:1021F00001680091009941680091009901B0704711
:102200007FF04001016070477FF02001016070475E
:102210007FF48071016070477FF400710160704746
:10222000C16851F02001C1607047C16851F04001A0
:10223000C1607047C16831F04001C1607047C1683A
:1022400031F08001C1607047C068000910F00100E2
:102250007047C068400910F001007047C0688009ED
:1022600010F001007047C068C00910F0010070470D
:10227000C068000A10F0010070470069800910F082
:1022800001007047406910F0010070474069800A02
:1022900010F0010070474068C0B270470A00D2B227
:1022A0004260704701000020087100204871002042
:1022B00088710020C8710020087200204872002038
:1022C00088720020C8720020C860002008610020C9
:1022D0004861002088610020C861002081F840002A
:1022E000002081F84100002081F84300002081F89F
:1022F00044000020A1F846000020A1F8480000207A
:10230000A1F84A000020A1F84C00002081F842000A
:10231000002081F84E00002008650020486500205C
:1023200088650020C865002081F82000002081F821
:102330002100002081F82300002081F824000020E3
:10234000C884002008850020488500208885012059
:1023500081F82200002081F82E0000200863002070
:102360004863002088630020C863002008660020BE
:1023700070472DE9F84F04000F00904699460A9DDA
:10238000DDF82CA00C9EDDF834B02000FFF78AFFAA
:1023900084F84190A4F84C70C4F85C8084F8216003
:1023A000A585C4F83CA0C4F860B0002C08D0DFF8C4
:1023B00004030068844203D1200000F043FB11E0D5
:1023C000002C05D0002C03D1200000F0C4FB09E054
:1023D000002C05D0002C03D1200000F0BFFB01E051
:1023E000022000E00020BDE8F28F38B504000D00A7
:1023F000206900280ED02800C0B2012805D1022291
:10240000E1682069FFF774FE04E00022E1682069BA
:10241000FFF76EFE002032BD38B504000D00A06944
:1024200000280CD02800C0B2012804D16169A0693D
:10243000FFF777FE03E06169A069FFF770FE0020F7
:1024400032BD70B504000D000026206E002802D0B9
:10245000206E804706002800C0B2002803D0266501
:10246000206D606502E02663206B6063002070BD14
:1024700038B504000D00DFF8CC140D7094F843005B
:10248000002805D002283DD01CD3032866D066E082
:10249000B4F84800002814D160790A78904210D12D
:1024A0000878E16D0870012084F843000120A4F849
:1024B0004A0001212000FFF7C4FF0121200000F0A5
:1024C00077F94CE00878002814D00878B4F84C204C
:1024D000D2B290420ED20878E26D50700878A4F81B
:1024E0004600B4F84A00401CA4F84A00022084F8D0
:1024F000430002E0002084F8430001212000FFF7A0
:10250000A0FF2CE0E06DB4F84820104409788170F9
:10251000B4F84800401CA4F84800B4F84A00401C35
:10252000A4F84A00B4F84800B4F84C1080B28842CD
:1025300002D30020A4F8480001212000FFF781FF0A
:10254000B4F84800B4F8461080B2884205D303209E
:1025500084F84300012084F8420000E0FFE70020F7
:1025600032BD38B504000D00DFF8BC140D7094F8CE
:102570004300002807D0022837D01ED3042800F0DB
:102580008A805CD388E0B4F84800002814D16079D0
:102590000A78904210D10878E16D0870012084F823
:1025A00043000120A4F84A0001212000FFF749FF61
:1025B0000121200000F0FCF86EE00878E26D507018
:1025C0000878A4F84600B4F846000002A4F84600D3
:1025D000022084F84300B4F84A00401CA4F84A00E2
:1025E00001212000FFF72DFF56E00878E26D907082
:1025F000B4F84600097850FA81F0A4F84600B4F81F
:102600004A00401CA4F84A00B4F8460000280ED046
:10261000B4F84600B4F84C1080B2884207D2B4F83F
:102620004600A4F84A00032084F8430002E000209A
:1026300084F8430001212000FFF703FF2CE0E06D48
:10264000B4F8482010440978C170B4F84800401C20
:10265000A4F84800B4F84A00401CA4F84A00B4F8B2
:102660004800B4F84C1080B2884202D30020A4F88D
:10267000480001212000FFF7E4FEB4F84800B4F858
:10268000461080B2884205D3042084F8430001201C
:1026900084F8420000E0FFE7002032BD0CED00E0CE
:1026A00000E100E000E400E018ED00E04038024006
:1026B000443802401C00002038B504000D00B4F876
:1026C0004C00FF2805DA2900C9B22000FFF7D0FE30
:1026D00004E02900C9B22000FFF743FF32BD10B566
:1026E0000400E08C00282CD0208DE18C80B2884240
:1026F00023D0E06B218D415CE069FFF7CFFD208D99
:10270000401C2085208DA18D80B2884201D30020FD
:102710002085208DE18C80B2884218D3608D0028FE
:1027200015D0208D618D80B2884210D3E069FFF70B
:1027300086FDE069FFF779FD09E0E069FFF77FFDBD
:1027400005E0E069FFF77BFD200000F03FF8002185
:102750002000FFF776FE002010BD10B50400A06930
:1027600000280BD094F82300002807D10D21E06940
:10277000FFF794FD012084F8230017E0A0690028EA
:102780000BD094F82300012807D10A21E069FFF754
:1027900085FD022084F8230008E0002084F823004F
:1027A000E069FFF747FD200000F010F8002010BDA1
:1027B00002000800C0B2002803D0002082F84E00BA
:1027C00002E0002082F82E000020704710B50400BF
:1027D000012084F822000020E084002020850020D1
:1027E00060850020206300206063002084F82E00B4
:1027F000002084F8230000212000FFF70DFE0021B7
:102800002000FFF7F2FD002010BD10B50400E069C4
:10281000FFF729FD002807D0E069FFF7B5FC002885
:1028200002D000F049FAF7E7E069FFF717FD00284A
:102830000ED0E069FFF7A3FC002806D094F823002F
:10284000002802D100F038FAF3E7E069FFF7D8FC7E
:1028500001212000FFF7E0FD01212000FFF7C5FD69
:1028600010BD10B5040000212000FFF7D5FD0021A8
:102870002000FFF7BAFD10BD0CB42DE9F8430400A9
:102880000D002000FFF7C1FF5FF0000908AEDFF880
:10289000047433002A004FF40071380000F010FA7D
:1028A0008046404680B240F20121884202DB4FF46C
:1028B00000708046A4F8008001206080032084F826
:1028C0002200E069FFF7B1FC3978E069FFF7E6FC28
:1028D000BDE8F1035DF80CFB10B5040060882188A9
:1028E000884209D3E069FFF7A5FC2000FFF7B9FF94
:1028F000012084F8220009E0DFF898036188415C38
:10290000E069FFF7CBFC6088401C6080002010BDB0
:1029100010B5040094F82200002803D12000FFF72E
:102920001CFF0DE094F82200032803D12000FFF7DC
:10293000D3FF05E0012084F82200E069FFF77AFC6C
:10294000002010BD5C2E002038B504000D00DFF81B
:10295000480384420CD12800C0B2002803D01020C4
:10296000FFF7B4FB02E01020FFF7BCFB002059E0AA
:10297000DFF8280384420ED12800C0B2002804D01A
:102980005FF40030FFF790FB03E05FF40030FFF7E7
:1029900097FB002046E0C24884420ED12800C0B216
:1029A000002804D05FF48020FFF77EFB03E05FF493
:1029B0008020FFF785FB002034E0BA4884420CD128
:1029C0002800C0B2002803D02020FFF77FFB02E0E0
:1029D0002020FFF787FB002024E0B34884420ED17B
:1029E0002800C0B2002804D05FF40020FFF75CFB91
:1029F00003E05FF40020FFF763FB002012E0AB4828
:102A000084420ED12800C0B2002804D05FF48010A8
:102A1000FFF74AFB03E05FF48010FFF751FB002053
:102A200000E0012032BD00005D2E002070B40600E1
:102A3000039D049CF17132727372B572F4720020BE
:102A400070BC7047F0B58FB00400994D012128008B
:102A500000F054F91821002202AE300000F05CF9B9
:102A6000022003900320049000200590012006908E
:102A70004FF4C06002900720079002A9280000F0E0
:102A8000FFF9854E300000F0F9FA01213000FFF720
:102A90005BFF1C21002208AF380000F03DF95FF415
:102AA000E13008900020099000200A9000200B904F
:102AB0000C200C9000200D9000200E9008A93000F2
:102AC00000F028FB3000FFF734FBFFF79FFA0022ED
:102AD0000221FFF7C9FA01002520FFF7ADFA2520F2
:102AE000FFF79AFA3000FFF79BFB3000FFF71CFB63
:102AF00025614FF40070E060E66102202071206ED5
:102B0000002804D06420A0656420A06303E00020B6
:102B1000A0650020A063002084F82100552060718A
:102B20005A20A07104200190032000900223022269
:102B300000212000FFF77AFF00212000FFF76CFC46
:102B400000212000FFF751FC5A492000FFF794FEB6
:102B500000200FB0F0BD01000020704701000020F0
:102B6000704710B50400E069FFF704FB00280FD0A0
:102B7000E069FFF76EFB00280AD0E069FFF78BFBE6
:102B80000100C9B22000FFF797FDE069FFF73CFBA9
:102B9000E069FFF7F9FA002807D0E069FFF763FB67
:102BA000002802D02000FFF79AFDE069FFF7E7FA5E
:102BB00000280AD0E069FFF751FB002805D020006B
:102BC000FFF7A6FEE069FFF71BFBE0693649884284
:102BD00010D0E069354988420CD0E069FFF7DEFA91
:102BE000002807D0E069FFF751FB002802D0E06918
:102BF000FFF712FBE069FFF7CCFA002807D0E06985
:102C0000FFF73BFB002802D0E069FFF701FBE0691A
:102C1000FFF7ABFA002807D0E069FFF715FB0028A3
:102C200002D0E069FFF7E3FAE069FFF799FA0028BC
:102C300007D0E069FFF726FB002802D0E069FFF724
:102C4000CDFAE069FFF787FA002807D0E069FFF7BF
:102C500019FB002802D0E069FFF7B7FAE069FFF737
:102C600075FA002807D0E069FFF70CFB002802D0B6
:102C7000E069FFF7A1FAE069FFF764FA002807D0DE
:102C8000E069FFF7F5FA002802D0E069FFF78BFA58
:102C900010BD0000242B0020001001400044004023
:102CA0000048004000140140004C0040005000402B
:102CB00000000240AC44000880B500F095FA02BD67
:102CC00008B584B00023039300290EBF019301903F
:102CD000491E0291009301A904AB074878441830BB
:102CE000FDF752FA019909B100220A70002858BF75
:102CF000039805B000BD00BFB7E6FFFF38B504007C
:102D00000D002900C9B2200000F072FA31BD80B573
:102D100000F077FA01BD000062F30F2262F31F4258
:102D2000401810F0030308D0C91A1FD3DB0748BFAF
:102D300000F8012D28BF20F8022D130030B41446EE
:102D40001546103928BF20E93C00FAD8490728BFAA
:102D500020E90C0048BF40F8042D890028BF20F866
:102D6000022D48BF00F8012D30BC7047C91818BFAC
:102D700000F8012DCB0728BF00F8012D7047000097
:102D800030B4046891FAA1F3B3FA83F30325DBB2FC
:102D90005B009D40AC4391FAA1F3B3FA83F3DBB23D
:102DA0005B0012FA03F31C43046030BC704710B49C
:102DB00044688C4302FB01F31C43446010BC704721
:102DC00030B4846891FAA1F3B3FA83F30325DBB23C
:102DD0005B009D40AC4391FAA1F3B3FA83F3DBB2FD
:102DE0005B0012FA03F31C43846030BC704730B4BC
:102DF000C46891FAA1F3B3FA83F30325DBB25B0055
:102E00009D40AC4391FAA1F3B3FA83F3DBB25B00CC
:102E100012FA03F31C43C46030BC704730B4046A38
:102E200091FAA1F3B3FA83F30F25DBB29B009D4027
:102E3000AC4391FAA1F3B3FA83F3DBB29B0012FA2D
:102E400003F31C43046230BC704730B4446A0B0087
:102E50001B0A93FAA3F3B3FA83F30F25DBB29B00AB
:102E60009D40AC430B001B0A93FAA3F3B3FA83F320
:102E7000DBB29B0012FA03F31C43446230BC704780
:102E8000F8B505000E0000200024316891FAA1F188
:102E9000B1FA81F73068F840002831D0306801215C
:102EA000B94008400400002C28D072682100280096
:102EB000FFF766FF7068012802D07068022804D10D
:102EC000B26821002800FFF77BFF3269210028004B
:102ED000FFF78DFF7068022810D194FAA4F0B0FAC1
:102EE00080F0082805D2726921002800FFF796FFBC
:102EF00004E0726921002800FFF7A7FF7F1CC9E7E3
:102F00007068012802D07068022804D1F268316824
:102F10002800FFF74CFF0020F2BD0000C068400B06
:102F200010F001007047026932F440520A43026116
:102F30007047426932F440720A4342617047F0B50B
:102F4000B2F5004F43D16424192505FB01F65F005B
:102F5000B6FBF7F66427B6FBF7F605FB01F75FEA69
:102F6000430CB7FBFCF705FB01FC5FEA430EBCFB1F
:102F7000FEFC5FF0640EBCFBFEFC04FB1C77FF0054
:102F800032375FF0640CB7FBFCF77F0017F4F8777B
:102F900017EB061705FB01F65FEA430CB6FBFCF6E0
:102FA00005FB01F55FEA430CB5FBFCF55FF0640C33
:102FB000B5FBFCF504FB1564E40032346425B4FB76
:102FC000F5F414F00704E719BFB2876041E0642408
:102FD000192505FB01F69F00B6FBF7F66427B6FB43
:102FE000F7F605FB01F75FEA830CB7FBFCF705FB7F
:102FF00001FC5FEA830EBCFBFEFC5FF0640EBCFBD1
:10300000FEFC04FB1C773F0132375FF0640CB7FB1A
:10301000FCF717F0F00717EB061705FB01F65FEA60
:10302000830CB6FBFCF605FB01F55FEA830CB5FBF0
:10303000FCF55FF0640CB5FBFCF504FB15642401A2
:1030400032346425B4FBF5F414F00F04E719BFB271
:103050008760F0BD5B490A6802430A6070475949BE
:103060000A6882430A60704757490A6802430A6047
:10307000704755490A6882430A60704738B50400B2
:1030800000255248844206D11020FFF7EDFF1020A2
:10309000FFF7EFFF3BE04E48844208D15FF4003079
:1030A000FFF7D8FF5FF40030FFF7D9FF2FE0494862
:1030B000844208D15FF48020FFF7CCFF5FF48020CA
:1030C000FFF7CDFF23E04448844206D12020FFF7DC
:1030D000CBFF2020FFF7CDFF19E04048844208D104
:1030E0005FF40020FFF7B6FF5FF40020FFF7B7FFA3
:1030F0000DE03B48844208D15FF48010FFF7AAFF3F
:103100005FF48010FFF7ABFF01E00120050028000D
:10311000C0B232BDF8B584B005000E00012700240E
:103120002800FFF7FBFE002846D1E9682D48014042
:1031300070680143F068014330690143B06901439D
:10314000E960B1682800FFF7EEFE71692800FFF71B
:10315000F0FE684600F082F81C48854202D10398D0
:1031600004001CE01A48854202D10298040016E0CF
:103170001848854202D10298040010E016488542A2
:1031800002D1039804000AE01448854202D1029853
:10319000040004E01248854201D102980400002C8A
:1031A0000AD03068002807D0002007003368B269D1
:1031B00021002800FFF7C3FE3800C0B205B0F0BD03
:1031C0000000000020380240243802400010014076
:1031D000004400400048004000140140004C004002
:1031E00000500040F369FFFF80B500F0BBF802BD5E
:1031F00038B504000D002900C9B2200000F0D7F84E
:1032000031BD80B500F060F901BD00004D48006897
:1032100010F00C0070474B48006810F0F000704749
:103220004848006810F4E05070474648006810F4C1
:10323000604070474448006810F48000704742487E
:103240000068C0F3881070473F48006810F44030B1
:1032500070473D48006810F03F00704710B504000B
:1032600000F00EF82060206800F01FF860606068D1
:1032700000F026F8A060606800F02CF8E06010BD57
:1032800010B50024FFF7C2FF002804D0042804D0A2
:10329000082804D007E02D4806E02D4804E0082067
:1032A00000F022F800E0294810BD10B50400FFF737
:1032B000B2FF2849C0F30310085CC440200010BDD1
:1032C00010B50400FFF7ACFF2349800A085CC44036
:1032D000200010BD10B50400FFF7A7FF1E49400BEA
:1032E000085CC440200010BD2DE9F84304005FF0E5
:1032F000000800270025FFF79DFF0600300000288A
:1033000003D0B0F5800F02D003E0104F02E0104F61
:1033100000E00E4F082C11D1FFF79BFF8046FFF70E
:103320008EFF8146B7FBF8F009FB00F9FFF78CFF31
:10333000000C401C4000B9FBF0F005002800BDE87F
:10334000F283000008380240043802400024F400F0
:1033500000127A00DC440008144500084AF6AA214D
:103360000160704780B50348FFF7F8FF002002BDF9
:10337000000000000030004081B068490A68024344
:103380000A60096801400091009901B070476349E3
:103390000A6882430A60704781B061490A68024343
:1033A0000A60096801400091009901B0704738B582
:1033B00004000D005B4884420BD12800C0B20028F5
:1033C00003D00120FFF7D8FF02E00120FFF7DFFF65
:1033D00079E0554884420BD12800C0B2002803D0C0
:1033E0000220FFF7C9FF02E00220FFF7D0FF6AE0EA
:1033F0004E4884420BD12800C0B2002803D00420DC
:10340000FFF7BAFF02E00420FFF7C1FF5BE0484886
:1034100084420BD12800C0B2002803D00820FFF757
:10342000ABFF02E00820FFF7B2FF4CE041488442C6
:103430000BD12800C0B2002803D01020FFF79CFF5A
:1034400002E01020FFF7A3FF3DE03B4884420BD190
:103450002800C0B2002803D02020FFF78DFF02E033
:103460002020FFF794FF2EE0344884420BD128003F
:10347000C0B2002803D04020FFF77EFF02E04020CA
:10348000FFF785FF1FE02E4884420BD12800C0B211
:10349000002803D08020FFF76FFF02E08020FFF7B5
:1034A00076FF10E0274884420DD12800C0B20028E2
:1034B00004D04FF48070FFF75FFF03E04FF480709B
:1034C000FFF765FFFFE731BD80B501211548FFF724
:1034D0006EFF01211448FFF76AFF01211348FFF72F
:1034E00066FF01211248FFF762FF01211148FFF733
:1034F0005EFF01211048FFF75AFF01210F48FFF737
:1035000056FF01210E48FFF752FF01210D48FFF73A
:103510004EFF4FF48040FFF73FFF01BD30380240BF
:10352000443802400000024000040240000802400B
:10353000000C02400010024000140240001802403B
:10354000001C02400020024010B410F00703DFF816
:10355000F44322684FF6FF010A40DFF8EC1351EA0A
:1035600003210A43226010BC7047DFF8D8030068CB
:10357000C0F30220704710B4020052B2002A06D4F1
:103580000A01DFF8C833040064B21A5509E00A01E1
:10359000DFF8BC33040064B214F00F04234403F8D2
:1035A000042C10BC704770B4030013F00704D4F16E
:1035B0000700052801D3042001E0D4F10700251DF0
:1035C000072D01D2002500E0E51E012616FA00F0C5
:1035D000401E0140A94016FA05F56D1E2A40114310
:1035E000080070BC704781B0DFF868130A680243B6
:1035F0000A60096801400091009901B070470428F1
:1036000005D1D5490A6852F004020A6004E0D249A3
:103610000A6832F004020A607047D0490A6832F43E
:10362000804202430A607047CC48016851F48071BF
:1036300001607047CA48016851F4803101607047E9
:10364000C7480068400C10F001007047C548016889
:1036500051F0010101607047C2480068400810F055
:1036600001007047C0490A689208920002430A604C
:103670007047BD48006810F00C007047BA490A68EE
:1036800032F0F00202430A607047B7490A6832F428
:10369000E05202430A607047B3490A6832F460425C
:1036A00002430A607047B1490A6832F4407202432B
:1036B0000A607047AD48016851F4004101607047ED
:1036C000AA48016851F4803101607047A748016839
:1036D00031F4803101607047A3490A6832F4F8126E
:1036E00002430A6070479E48016851F08071016092
:1036F00070479B480068400E10F00100704770B49E
:103700009B4D2E689B4C264006430E4356EA82167C
:103710002E602C6834F440341C432C6070BC70471D
:1037200070B4934D2E68944C264006430E4356EADF
:1037300082161E432E6070BC704790490A681209B9
:10374000120102430A6070478C48006810F00F00B5
:1037500070478A48016851F480710160704787485A
:10376000016851F40071016070478448016851F4A8
:1037700080610160704780B55FF08050FFF733FFD4
:103780004FF48040FFF749FF0520FFF7D6FFFFF712
:10379000DBFF052803D06A21794800F0FFF8FFF726
:1037A00049FFFFF74DFF0128FBD1FFF74FFFFFF760
:1037B00053FF0128FBD1FFF737FFFFF781FFFFF72A
:1037C00085FF4FF44070FFF76EFF5FF40020FFF7B6
:1037D00083FFFFF76FFF0023A82204215FF480001E
:1037E000FFF78DFF5FF0E063A82204215FF4800003
:1037F000FFF796FFFFF777FFFFF77BFF0128FBD16D
:103800000020FFF73BFF4FF4A050FFF73EFF4FF4BF
:103810000040FFF741FF0220FFF724FFFFF729FFD9
:103820000828FBD10420FFF7EAFE564800F0E4F830
:10383000FFF78FFFFFF799FFFFF791FF01BD80B5FD
:103840000320FFF781FEFFF790FE00220021FFF723
:10385000AAFE01007FF00B00FFF78DFEFFF785FE4B
:1038600000220021FFF79FFE01007FF00A00FFF712
:1038700082FEFFF77AFE00220021FFF794FE01008E
:103880007FF00900FFF777FEFFF76FFE00220021AF
:10389000FFF789FE01007FF00400FFF76CFEFFF7E1
:1038A00064FE00220021FFF77EFE01007FF003008E
:1038B000FFF761FEFFF759FE00220021FFF773FEBC
:1038C00001007FF00100FFF756FE01BDF8B5FFF7DC
:1038D00052FFFFF7B4FF00F0A0F8FFF718FA00F06E
:1038E000CBF800F0E5F800F0EBF827480390002053
:1038F000029026480190442000900023244A44214D
:103900002448006800F0E4F805B000BD38B5002593
:103910000024FFF7DBFF641C200080B240F2E93195
:10392000884201DB00200400642000F001F922003D
:1039300092B2194917480068FEF79EFFFFF7BCF9DD
:10394000E9E700000CED00E00000FA0500E400E00B
:1039500018ED00E04038024010E000E00070004048
:103960000038024074380240083802407038024083
:10397000043802400080BFFF0080BFF0003C0240DE
:10398000B8430008007A030A8D3A0008CC2D0020C5
:10399000882D00201C000020FC440008FEE70000E9
:1039A0002DE9F0410400202500260D4FB8463200D5
:1039B00029004046FFF7B0F92068386060687860F9
:1039C000A068B860E068F860206938616069786173
:1039D000A069B861E069F86101BEBDE8F08100004E
:1039E000102E00201EF0040F0CBFEFF30880EFF341
:1039F0000980D5E770470000014908607047000062
:103A00001400002010B4040013005A1E002B02D032
:103A10002170641CF8E710BC704710B5134C1448B3
:103A2000006842000021E068FFF7ECFF11480268DF
:103A30000021A068FFF7E6FF0120207410BD0021DF
:103A4000002000220A4B1868824208D20748C0684A
:103A500030F81200002800D0491C521CF2E7642004
:103A600041431868B1FBF0F0C0B27047000000207D
:103A70001C4500082045000880B500F05FF802BD35
:103A800010B50400200000F05DF810BD80B500F016
:103A90005FF802BD80B500F05FF802BD10B504000C
:103AA000200000F05DF810BD80B500F05FF802BDA9
:103AB00080B500F05FF801BD80B500F05FF801BD92
:103AC00080B500F05FF801BD80B500F05FF802BD81
:103AD0002DE9F84384B004000D0016001F005FF0CC
:103AE00000080F9803909DF8380002900D980190FF
:103AF000BDF8300000903B00DBB23200290089B2F3
:103B0000200000F047F88146042001900320009037
:103B1000022302220021200000F06BF8C0B205B0A1
:103B2000BDE8F08310B50400200000F077F810BD68
:103B300010B50400200000F077F810BD80B500F04B
:103B400002F902BD10B50400200000F06EF910BDAE
:103B500080B500F092F902BD80B500F092F902BD87
:103B600010B50400200000F0A9F910BD80B500F0E8
:103B7000CAF902BD80B500F07BFA01BD80B500F046
:103B80009EFA01BD80B500F0D8FA01BD80B500F005
:103B9000E7FA02BD2DE9F84384B004000D001600D9
:103BA0001F005FF000080F9803909DF83800029006
:103BB0000D980190BDF8300000903B00DBB2320060
:103BC000290089B22000FEF7D4FB81464846C0B2E6
:103BD000002809D1FFF778FF002805D0002084F8DD
:103BE0004100002084F821004846C0B205B0BDE87D
:103BF000F083FEB504000D0016001F009DF82400A0
:103C000001909DF8200000903B00DBB23200D2B260
:103C10002900C9B22000FEF709FFFEBD10B504005F
:103C20002000FEF79EFF10BD10B50400200000F03C
:103C3000A1FA10BD10B410F00703DFF80C4322689E
:103C40004FF6FF010A40DFF8041351EA03210A434B
:103C5000226010BC7047DFF8F0020068C0F3022059
:103C6000704710B4020052B2002A06D40A01DFF8ED
:103C7000E032040064B21A5509E00A01DFF8D432D8
:103C8000040064B214F00F04234403F8042C10BCA5
:103C9000704770B4030013F00704D4F1070005283F
:103CA00001D3042001E0D4F10700251D072D01D226
:103CB000002500E0E51E012616FA00F0401E014036
:103CC000A94016FA05F56D1E2A401143080070BC84
:103CD0007047B0FBF1F2521EDFF87C321A6000220E
:103CE000DFF878321A600522DFF874321A60704704
:103CF000DFF86C02016831F00201016000207047BA
:103D0000DFF85C02016851F0020101600020704799
:103D10000100002000224A6000228A600022CA605E
:103D200000221000C0B204280BDA00201300DBB21E
:103D3000C85400201300DBB201EB83031861521C4E
:103D4000EFE70020704780B5DFF818020068FFF742
:103D5000DFFFFFF7CDFF4FF47A71DFF80C02006848
:103D6000FFF7B7FF0320FFF765FFFFF774FF00229F
:103D70000F21FFF78EFF01005FF0FF30FFF771FFAB
:103D8000FFF7BEFF0120DFF8E4110870DFF8E00163
:103D900000F002F8002002BD10B4010001200A006A
:103DA000002A1FD000221000C0B2042814DA6D4B84
:103DB00018681400E4B2005D00280BD118681400E4
:103DC000E4B200EB8400016101201B681400E4B23E
:103DD000185501E0521CE6E7D2B2042A01DA0020AD
:103DE00000E00220C0B210BC704710B500200024D3
:103DF0002000C0B2042817DA5A4908682200D2B25B
:103E0000805C00280ED008682200D2B200EB82004D
:103E10000069002806D008682100C9B200EB8100C3
:103E200000698047641CE3E710BDF8B504004B4807
:103E300005684D4800684F49B0FBF1F0B5FBF0F65E
:103E4000022E06D3300000F039F8641ED6F57570E6
:103E50000500444F3868846038688068002802D0C4
:103E6000FEF72AFFF8E7022D05D3B5F57A7F02D2D7
:103E7000280000F023F80020F2BD3A4800684068AE
:103E8000704710B5374C20684068401C2168486076
:103E900020684068002804D12068C068401C216860
:103EA000C860FFF7A2FF20688068002804D020685F
:103EB0008068401E21688860002010BDF0B40100B9
:103EC000294800682B4AB0FBF2F202FB01F22348BA
:103ED000036800240025204E366840F2E937B942D5
:103EE0000ED207683C00A342FBD09C4202D25D196F
:103EF0002D1B02E075192D1B5D1923009542F0D38F
:103F00000020F0BC70471648006840070CD51248E6
:103F10000068154909684FF47A72B1FBF2F1491E45
:103F200088420FD001200EE00B4800680E49096856
:103F30004FF47A72B1FBF2F1C908491E884201D0F0
:103F4000012000E0002070470CED00E00000FA05C1
:103F500000E400E018ED00E014E000E018E000E00C
:103F600010E000E01800002014000020A100002054
:103F7000C544000840420F0063480068C0F30220B7
:103F80007047010049B2002909D4012210F01F0135
:103F90008A405E4903005BB25B0941F82320704709
:103FA00010B4020052B2002A05D40A01584B040092
:103FB00064B21A5508E00A01564B040064B214F0CA
:103FC0000F04234403F8042C10BC704770B40300A2
:103FD00013F00704D4F10700052801D3042001E001
:103FE000D4F10700251D072D01D2002500E0E51EB4
:103FF000012616FA00F0401E0140A94016FA05F508
:104000006D1E2A401143080070BC704781B04249C0
:104010000A6802430A60096801400091009901B0F2
:104020007047016851F0040101607047016831F088
:10403000040101607047406810F00100704740685B
:10404000400910F0010070474068800910F001003D
:1040500070477FF02001416070477FF04001416070
:104060007047016851F0080101607047806870472F
:1040700010B52A4C200000F0BDF84020FFF7C6FF25
:10408000FFF77AFF00220F21FFF7A0FF0100502069
:10409000FFF786FF5020FFF774FF2000FFF7E1FFD6
:1040A0002000FFF7BEFF2000FFF7C5FF012802D068
:1040B000FEF702FEF7E700201949086010BD10B5B1
:1040C000164C2000FFF7C0FF002808D02000FFF7A3
:1040D000C4FF2000FFF7AAFF2000FFF7A2FF200087
:1040E000FFF7ADFF002802D02000FFF7B2FF20004D
:1040F000FFF7A1FF002804D02000FFF7B7FF084911
:10410000086010BD000000000CED00E000E100E0E0
:1041100000E400E018ED00E03438024000080650EA
:10412000502E002081B010490A6802430A600968D5
:1041300001400091009901B0704780B500F008F887
:104140004FF48050FFF7EEFF00200849087001BDD2
:1041500080B5074800F062F801200449087001BDED
:10416000024800787047000030380240A00000206C
:104170000030024010B50400002C0AD0FFF794FC78
:10418000002803D12000FFF77BFC02E0200000F0B4
:1041900014F810BD10B50400002C0DD04FF47A7047
:1041A000B4FBF0F0FFF7E6FF4FF47A70B4FBF0F1E8
:1041B00000FB1140FFF772FC10BD10B50400002C8D
:1041C0000AD02000441E002806D04FF47A70FFF772
:1041D000E1FFFEF771FDF4E710BD000004490A6835
:1041E00002430A60704702490A6882430A607047C6
:1041F0001438024010B504004020FFF7EFFF4020C4
:10420000FFF7F1FF002010BD0E490A6802430A6063
:1042100070470C490A6882430A60704738B5040049
:1042200000250948844208D14FF48050FFF7ECFF85
:104230004FF48050FFF7EDFF01E00120050028005A
:10424000C0B232BD1038024000300240134908604D
:10425000704713480068800810F0010070477FF035
:104260000101816070477047704780B5FFF7BAFB66
:10427000FEE7FEE7FEE7FEE770477047704780B550
:10428000FFF708FC01BD80B50648FFF7E8FF01BD58
:1042900080B505480068FFF745FC01BD143C0140AE
:1042A00004700040002C00401C00002080B5FFF787
:1042B00003FC01BD80B55FF48030FFF7C7FFFFF757
:1042C000C8FF002801D000F001F801BD80B500F062
:1042D00001F801BD80B500F001F801BD7047F0B4F0
:1042E0000246106895681318506803EB5004C00725
:1042F0001CD54D441AE013F8017B05F8017B491EDB
:10430000F9D198B113F8011BC6F38106032E08BF3B
:1043100013F8016B01EB06214942801C294405D0AA
:1043200011F8016B05F8016B401EF9D1A3420ED0C4
:1043300013F8016B16F0030104BF13F8011BC91C2D
:1043400030090F28DBD113F8010B0F30D7E7F0BC91
:1043500002F10C00704700000F48016851F4700131
:1043600001600E49086850F00100086000200C4A06
:1043700010600A680B4802400A600B480B4A106044
:10438000086830F4802008600020094908605FF068
:10439000006008490860704788ED00E0003802407E
:1043A00008380240FFFFF6FE1030002404380240B7
:1043B0000C38024008ED00E0493A5C53544D33326A
:1043C0005F4D43555C53544D3332463430375C5364
:1043D000544D3332463430375A4754365C53544D7B
:1043E0003332463430375A47543650726F6A6563F9
:1043F000745C4170706C69636174696F6E5C41508C
:10440000505C6D61696E2E630000000010B50749B5
:1044100079441831064C7C44163404E00A68081DBF
:10442000114488470146A142F8D110BD2C0000007C
:10443000480000004EF68851CEF20001086840F4B2
:1044400070000860BFF34F8FBFF36F8F4FF00070A5
:10445000E1EE100A70470000F7CDFFFFBC2D000011
:10446000A40000200000000077FEFFFFE80100002C
:104470009C0000000000002000F00DF8002801D092
:10448000FFF7C4FFAFF300800020AFF30080FFF719
:104490003DFA00F002F80120704700F001B800007A
:1044A00007463846FDF7A8FDFBE700003D3E3EB459
:1044B000AEBFDA31B5C4B3F5CABCBBAF3C3C3D0DB1
:1044C0000A00000003480168034A12788918016055
:1044D000704700BF542E0020A10000200000000003
:1044E0000000000001020304060708090148804794
:1044F00001480047594300080945000844617461B8
:104500003A25640D0A000000AFF30080FFF792FF28
:10451000FFF7B2FF000000000102030440010000A9
:1045200000280000FFF7FEBFFFF7FEBFFFF7FEBF4A
:10453000FFF7FEBFFFF7FEBFFFF7FEBFFFF7FEBFAF
:10454000FFF7FEBFFFF7FEBFFFF7FEBFFFF7FEBF9F
:10455000FFF7FEBFFFF7FEBFFFF7FEBFFFF7FEBF8F
:10456000FFF7FEBFFFF7FEBFFFF7FEBFFFF7FEBF7F
:10457000FFF7FEBFFFF7FEBFFFF7FEBFFFF7FEBF6F
:10458000FFF7FEBFFFF7FEBFFFF7FEBFFFF7FEBF5F
:10459000FFF7FEBFFFF7FEBFFFF7FEBFFFF7FEBF4F
:1045A000FFF7FEBFFFF7FEBFFFF7FEBFFFF7FEBF3F
:1045B000FFF7FEBFFFF7FEBFFFF7FEBFFFF7FEBF2F
:1045C000FFF7FEBFFFF7FEBFFFF7FEBFFFF7FEBF1F
:1045D000FFF7FEBFFFF7FEBFFFF7FEBFFFF7FEBF0F
:1045E000FFF7FEBFFFF7FEBFFFF7FEBFFFF7FEBFFF
:1045F000FFF7FEBFFFF7FEBFFFF7FEBFFFF7FEBFEF
:10460000FFF7FEBFFFF7FEBFFFF7FEBFFFF7FEBFDE
:10461000FFF7FEBFFFF7FEBFFFF7FEBFFFF7FEBFCE
:10462000FFF7FEBFFFF7FEBFFFF7FEBFFFF7FEBFBE
:10463000FFF7FEBFFFF7FEBFFFF7FEBFFFF7FEBFAE
:10464000FFF7FEBFFFF7FEBFFFF7FEBFFFF7FEBF9E
:10465000FFF7FEBF10031B3A00083F042007A40029
:104660000020A42800200001F00D0724F400302EC3
:104670000020242D0020961500080452FF01E3C6F7
:10468000141410010000660C12014D53200054F167
:10469000120120022D1300082C431B133C2101039F
:0246A000010116
:0400000508004509A1
:00000001FF
