:020000040800F2
:10000000C04100209D010008AD5A000815190008E4
:10001000E1590008090B00086D9400080000000079
:10002000000000000000000000000000096000085F
:10003000A50E000800000000515D0008596B000883
:1000400071940008315D0008B7010008B70100088D
:10005000B7010008215E000895100008B7010008EC
:10006000B701000899100008B7010008B70100089F
:10007000790C0008B7010008A10C0008B7010008BE
:10008000B7010008B7010008B7010008B701000870
:10009000B7010008B7010008B7010008B701000860
:1000A000B7010008B7010008B7010008B701000850
:1000B0002D700008B7010008B7010008B70100085B
:1000C000B7010008B7010008B7010008B701000830
:1000D000B701000845940008B701000859940008CA
:1000E000B7010008B7010008B7010008B701000810
:1000F000B7010008B7010008B7010008B701000800
:10010000B7010008B7010008B7010008B7010008EF
:10011000B7010008B7010008B7010008B7010008DF
:10012000C90C0008110D0008150D0008B7010008E2
:10013000B7010008B7010008B7010008B7010008BF
:10014000B7010008B7010008B7010008B7010008AF
:10015000B7010008B70100083D0D0008B70100080D
:10016000B7010008B7010008B7010008B70100088F
:10017000B7010008B7010008B7010008000000003F
:100180000D190008B7010008DFF80CD000F0E8FAFC
:100190000048004711970008C041002006488047EA
:1001A00006480047FEE7FEE7FEE7FEE7FEE7FEE75C
:1001B000FEE7FEE7FEE7FEE7BD6F000889010008E5
:1001C0002DE9F05F0546002092469B46884606468C
:1001D000814640241BE0284641464746224600F01F
:1001E0000FFA53465A46C01A914110D31146184689
:1001F000224600F0F6F92D1A67EB01084F46224619
:100200000120002100F0EDF917EB00094E41201EFE
:10021000A4F10104DFDC484631462A464346BDE8E6
:10022000F09FD2B201E000F8012B491EFBD27047CB
:100230000022F6E710B513460A4604461946FFF7B2
:10024000F0FF204610BD2DE9FE4F804681EA0300F5
:10025000C00F0C46009021F0004123F00045B8EBA0
:100260000200A94105D24046214690461C460B4655
:10027000024623F00040104347D0270DC7F30A0081
:10028000C3F30A510290401A019040286BDAC3F37D
:10029000130040F4801B0098924620B10023D2EB5B
:1002A000030A63EB0B0B01985946C0F1400250461C
:1002B00000F097F906460D4650465946019A00F05F
:1002C000AFF910EB08006141002487EA115284EA7B
:1002D000E7731A4340D0009A62B3019A012A4FEAA9
:1002E000075215DC001B61EB02014FF0004202EAED
:1002F0000752CDE90042001C41F5801132462B46E1
:1003000000F0AFF903B0BDE8F08F40462146F9E7B1
:10031000001B61EB0201001C41F5801300185B41DA
:100320002018A2F5001747EB030140EAD570B61973
:100330006D4111E06D084FEA360645EAC0754FEA97
:100340000752001B61EB0201001C41F580114908B6
:100350004FEA30000019514132462B4603B0BDE848
:10036000F04F00F06FB90098012240000023D0EB5D
:10037000020263EBE073009821464FEAE074B8EBA9
:10038000000061EB0401E9E783F000435BE781F0E3
:10039000004158E72DE9FE4F81EA030404F00044D0
:1003A00021F0004100944FF0000B23F0004350EA8D
:1003B00001045ED052EA03045BD0C3F30A54C1F3D4
:1003C0000A552C44A4F2F3340194A0FB0254C1F367
:1003D000130141F48011C3F3130343F4801301FBB1
:1003E000024400FB034E840A970A44EA815447EA18
:1003F0008357A4FB076802958D0A05FB07854FEA22
:10040000932C04FB0C542705029D4FEA065847EA3B
:100410001637B5EB08056EEB070C870E920E47EA10
:10042000811742EA8312A7FB0201B6EB0B0164EBD2
:1004300000042B0D43EA0C335E1844EB1C50DA46E3
:100440005146E7FB0201C5F313044FEA0B3343EABD
:1004500014534FEA0432019C43EA0603A4F10C044E
:100460000294009CCDE900B400F0FBF803B0BDE8B5
:10047000F08F00200146F9E72DE9F04D81EA0304F1
:1004800004F0004B21F0004514464FF0000A23F021
:10049000004150EA050220D054EA01021DD0C5F304
:1004A0000A570246C5F31303C1F31300C1F30A56FA
:1004B00040F4801543F48013A7EB0608101BD646C2
:1004C00008F2FD3873EB050002D308F1010801E0E2
:1004D00092185B41B8F1000F03DA00200146BDE835
:1004E000F08D00204FF48011064684460EE0171B65
:1004F00073EB050705D3121B63EB050306434CEAB8
:10050000010C49084FEA300092185B4150EA01079C
:10051000EDD152EA030012D082EA040083EA050119
:10052000084305D0101BAB4106D20122002306E090
:1005300000224FF0004302E06FF0010253101AEB6B
:1005400006004CEB085110EB0A0041EB0B01BDE833
:10055000F04D00F077B80EB5C10F80EAE0700844A6
:10056000CA07002140F233438DE80E000A460B46CD
:1005700000F077F803B000BD70B5C1F30A5201F086
:1005800000450024C1F3130140F2FF3341F4801110
:100590009A4201DA002070BD40F233439A42A2F23F
:1005A000334203DC524200F02BF800E090402C4331
:1005B000F1D0404270BD30B50B46014600202022EC
:1005C000012409E021FA02F59D4205D303FA02F560
:1005D000491B04FA02F52844151EA2F10102F1DCC0
:1005E00030BD202A04DB203A00FA02F100207047D7
:1005F0009140C2F1200320FA03F319439040704761
:10060000202A04DB203A21FA02F00021704721FA67
:1006100002F3D040C2F120029140084319467047CE
:10062000202A06DBCB17203A41FA02F043EAE073B6
:1006300006E041FA02F3D040C2F1200291400843A3
:100640001946704710B5141E73F1000408DA401CF7
:1006500041F1000192185B411A4301D120F00100E1
:1006600010BD2DE9F04D92469B4611B1B1FA81F2D1
:1006700002E0B0FA80F220329046FFF7B2FF044663
:100680000F4640EA0A0041EA0B0153465A46084326
:1006900013D0114653EA010019D0C8F14002504668
:1006A000FFF7AEFF05460E46504659464246FFF755
:1006B00098FF084305D0012004E020463946BDE8F4
:1006C000F08D0020054346EAE0762C4337430A9834
:1006D0006305E40AA0EB08000022FD0A44EA47543F
:1006E0000A3002D500200146E9E7010510196941E9
:1006F000DDE9084500196941BDE8F04DA2E7C1F305
:100700000A52C1F3130140F2FF3341F480119A42BF
:1007100002DA00200146704740F233439A42A2F2C7
:10072000334202DC5242FFF76BBFFFF75ABF0000B3
:1007300030B5041E71F1000404DB4FF00044404268
:1007400064EB0101141E73F1000405DB1C464FF03D
:100750000043524263EB0403994208BF904230BD0C
:10076000064C074D06E0E06840F0010394E80700FE
:1007700098471034AC42F6D3FFF70AFD38A10008C1
:1007800058A1000880B582B00190019800F0A8F847
:1007900002B080BD80B582B00190019800F0F4F8FD
:1007A00002B080BD80B582B00190019800F02EF9B2
:1007B00002B080BD80B582B001900198FFF7E2FFE2
:1007C00002B080BD80B582B001900198FFF7E2FFD2
:1007D00002B080BD80B582B001900198FFF7E2FFC2
:1007E00002B080BD80B584B046F20040C4F2020081
:1007F000002112220390029102F082FF03980299D5
:1008000002F0CAFD42F20000C4F20100019002F0C1
:1008100035F801980299029A00F03CF9029900908B
:10082000084604B080BD000080B584B046F20040A8
:10083000C4F2020000210390029102F07DFD0398B2
:10084000029902F0EFFA42F20000C4F201000190B6
:1008500002F00AF8019801F0FFFF029804B080BD91
:1008600080B586B046F20040C4F202000121122297
:100870000590049102F044FF0598049902F08CFD64
:1008800042F20020C4F20100039001F0F7FF0020C3
:1008900002900299039A00F0FDF80299019008462F
:1008A00006B080BD80B582B046F20040C4F20200BE
:1008B0000121019002F040FD019802F0EBFA01984D
:1008C00002F0F0FA42F20020C4F20100009001F0C0
:1008D000CBFF009801F0C0FF002002B080BD0000F7
:1008E00080B582B00090009842F20001C4F201018C
:1008F000884216D1FFE740F22400C2F200000168EE
:1009000000220A700068C282C0F81220C0F80E20CF
:10091000C0F80A20C0F80620FFF764FF8DF8070032
:100920002DE0009842F20011C4F20101884204D186
:10093000FFE700208DF8070021E0009842F2002137
:10094000C4F20101884216D1FFE740F22800C2F24A
:100950000000016800220A700068C282C0F81220FC
:10096000C0F80E20C0F80A20C0F80620FFF778FF74
:100970008DF8070003E000208DF80700FFE79DF8E1
:10098000070002B080BD000080B582B000900098E2
:1009900042F20001C4F2010188420DD1FFE740F2AA
:1009A0002400C2F200000068017801310170FFF7F5
:1009B0003BFF8DF8070024E0009842F20011C4F2DA
:1009C0000101884204D1FFE700208DF8070018E0FC
:1009D000009842F20021C4F2010188420DD1FFE7E4
:1009E00040F22800C2F20000006801780131017075
:1009F000FFF758FF8DF8070003E000208DF807008F
:100A0000FFE79DF8070002B080BD000080B59AB0F6
:100A1000199000208DF863000DF13E01242204900E
:100A2000084611460392FFF703FC0DF11A000399E3
:100A3000FFF7FEFB19980630059004988DF86300C7
:100A4000FFE79DF86300112812DCFFE70598008896
:100A50009DF863100DF13E0222F811000598023056
:100A60000590FFE79DF8630001308DF86300E8E72B
:100A70000DF13E001221029000F0B0FA1021022286
:100A8000029B0190184600F0A1F8199948800020B7
:100A90001AB080BD80B584B0039002910192039892
:100AA000002804D0FFE7039801F0F2FEFFE7029868
:100AB000002804D0FFE7029801F0EAFEFFE7019862
:100AC000002804D0FFE7019801F0E2FEFFE70020D4
:100AD00004B080BD81B001468DF803009DF803008D
:100AE00000098DF802009DF8020000EB80009DF8DF
:100AF000032002F00F0202EB40008DF802009DF887
:100B0000020001B070470000FFE7FEE780B500F08B
:100B10001BF880BD80B500F01DF880BD80B5FFF7E3
:100B2000F5FF80BD80B5FFF7F5FF80BD80B543F2CE
:100B30000000C4F2020002F055F940F20401C2F2D2
:100B4000000101220A7080BD40F20400C2F20000E0
:100B50000078704780B5FFF7E9FF4FF4805001F04F
:100B6000AFFE40F20400C2F200000021017080BD1F
:100B700080B500F00DF880BD80B500F017F880BD9D
:100B800080B5FFF7F5FF80BD80B5FFF7F5FF80BDAD
:100B900080B503F027FB002807D0FFE703F010FB28
:100BA00003F0A2FA03F082FAFFE780BD80B503F0FC
:100BB00021FB002808D0FFE703F08CFA03F080FA4D
:100BC00008F0A4FD08F07AFD80BD000080B588B073
:100BD00004AB94468E460790ADF81A10ADF8182075
:100BE000002005900490ADF80E00BDF81800ADF897
:100BF0000E000293FFE7BDF80E00BDF81A10884200
:100C00001EDAFFE70798BDF80E1030F81100FFF765
:100C1000A2FC41EC100B029890ED001B53EC102B42
:100C200051EC110BFFF70FFB41EC100B029880ED1C
:100C3000000BFFE7BDF80E000130ADF80E00DAE75B
:100C400004980599BDF81A20BDF81830D21A019001
:100C500010460091FFF77FFC41EC100B53EC102B7A
:100C600001980099FFF708FC41EC100B51EC100BB8
:100C7000FFF782FC08B080BD80B546F20000C4F2E8
:100C80000200012102F054FC002808D0FFE740F2E6
:100C90004400C2F20000006807F0AEF9FFE780BD33
:100CA00080B546F20000C4F20200032102F040FCCD
:100CB000002808D0FFE740F24400C2F200000068BC
:100CC00007F0A2F9FFE780BD80B584B046F200408E
:100CD000C4F20200002102F02BFC002816D0FFE72E
:100CE00040F22400C2F200000068FFF773FD42F2F8
:100CF0000001C4F20101039008460291FFF762FD72
:100D0000029901900846FFF755FDFFE704B080BD4A
:100D10007047000080B546F20040C4F20200022194
:100D200002F006FC002808D0FFE740F24000C2F2C3
:100D30000000006807F060F9FFE780BD80B546F26B
:100D40000040C4F20200072102F0F2FB002808D0A4
:100D5000FFE740F24000C2F20000006807F054F9DB
:100D6000FFE780BD80B584B00A4603908DF80B1074
:100D700003989DF80B10019200F010F804B080BDAC
:100D800080B584B00A4603908DF80B1003989DF847
:100D90000B100192FFF7E6FF04B080BD80B584B070
:100DA0000A4602908DF80710029846F20001C4F23C
:100DB0000201884233D1FFE79DF80700002805D1E2
:100DC000FFE74FF4001001F09FFD24E09DF80700BD
:100DD000012805D1FFE74FF4001001F095FD19E05F
:100DE0009DF80700022805D1FFE74FF4001001F03D
:100DF000C1FD0EE09DF80700032805D1FFE74FF481
:100E0000001001F0EDFD03E001208DF80F0045E03A
:100E1000FFE7FFE7FFE700208DF80F003EE00298B4
:100E200046F20041C4F20201884233D1FFE79DF847
:100E30000700002805D1FFE74FF4800001F064FDB2
:100E400024E09DF80700012805D1FFE74FF480005A
:100E500001F05AFD19E09DF80700022805D1FFE7CF
:100E60004FF4800001F086FD0EE09DF80700032896
:100E700005D1FFE74FF4800001F0B2FD03E001204F
:100E80008DF80F000AE0FFE7FFE7FFE700208DF88D
:100E90000F0003E002208DF80F00FFE79DF80F0020
:100EA00004B080BD7047000080B582B001468DF867
:100EB00007009DF807004CF6CD42CCF6CC42A0FBD3
:100EC0000203DB088DF806309DF806309DF807C058
:100ED000ACFB022E4FEADE0E0EEB8E0EACEB4E0C90
:100EE0004CEA03138DF806309DF806300090184642
:100EF00002B080BD80B582B00190019800F056F834
:100F000002B080BD80B582B00190019800F01AF85F
:100F100002B080BD80B582B00190019800280FD04A
:100F2000FFE7FFE70198411E0191002807D0FFE786
:100F30004FF47A7000F006F801F080FCF2E7FFE76A
:100F400002B080BD80B584B00390039800281AD009
:100F5000FFE7039844F6D351C1F26201A0FB0102FE
:100F6000920902901046019100F020F8039801992F
:100F7000A0FB01239B094FF47A7C03FB1C00009229
:100F800005F0ACFCFFE704B080BD000080B582B086
:100F900001900198FFF7AEFF02B080BD80B582B02E
:100FA00001900198FFF7AEFF02B080BD80B582B01E
:100FB0000190019800280ED0FFE705F077FC00288B
:100FC00004D1FFE7019805F075FC03E00198FFF7F5
:100FD000A1FFFFE7FFE702B080BD000084B00A4632
:100FE0000390ADF80A100020ADF80800ADF8060037
:100FF000BDF80A100139ADF80410ADF80800FFE79C
:10100000BDF80800BDF8041088423FDAFFE7002071
:10101000ADF80600FFE7BDF80600BDF80410BDF806
:101020000820891A88422ADAFFE70398BDF80610DB
:1010300000EB410230F811005188884218DAFFE7CE
:101040000398BDF8061000EB41004088ADF802009F
:101050000398BDF8061000EB410230F811005080F3
:10106000BDF802000399BDF8062021F81200FFE741
:10107000FFE7BDF806000130ADF80600CBE7FFE75B
:10108000BDF808000130ADF80800B9E7002004B051
:10109000704700007047000080B582B008200190C2
:1010A00002F0C8FB019802F0D3FB019802F0B8FBF4
:1010B00002B080BD80B582B00190019800F026FAA0
:1010C00002B080BD80B584B00A4603908DF80B1045
:1010D00003989DF80B10019200F0C2FB04B080BD94
:1010E00080B582B001900198FFF7E4FF02B080BDA7
:1010F00080B584B00A4603908DF80B1003989DF8D4
:101100000B100192FFF7DEFF04B080BD80B584B004
:101110000A4602908DF8071002980021C4F20201DD
:1011200088422FD1FFE79DF80700002804D1FFE790
:10113000012001F0B7FB21E09DF80700012804D150
:10114000FFE7012001F0CEFB17E09DF80700022821
:1011500004D1FFE7012001F001FC0DE09DF807003C
:10116000032804D1FFE7012001F02CFC03E001205B
:101170008DF80F00C6E1FFE7FFE7FFE700208DF8DD
:101180000F00BFE1029840F20041C4F20201884220
:101190002FD1FFE79DF80700002804D1FFE70220C8
:1011A00001F080FB21E09DF80700012804D1FFE752
:1011B000022001F097FB17E09DF80700022804D1F8
:1011C000FFE7022001F0CAFB0DE09DF807000328AD
:1011D00004D1FFE7022001F0F5FB03E001208DF8C8
:1011E0000F008FE1FFE7FFE7FFE700208DF80F001A
:1011F00088E1029840F60001C4F2020188422FD132
:10120000FFE79DF80700002804D1FFE7042001F064
:1012100049FB21E09DF80700012804D1FFE70420E5
:1012200001F060FB17E09DF80700022804D1FFE7FA
:10123000042001F093FB0DE09DF80700032804D182
:10124000FFE7042001F0BEFB03E001208DF80F0052
:1012500058E1FFE7FFE7FFE700208DF80F0051E1BD
:10126000029840F60041C4F2020188422FD1FFE704
:101270009DF80700002804D1FFE7082001F012FBC9
:1012800021E09DF80700012804D1FFE7082001F0C4
:1012900029FB17E09DF80700022804D1FFE708208A
:1012A00001F05CFB0DE09DF80700032804D1FFE787
:1012B000082001F087FB03E001208DF80F0021E1F9
:1012C000FFE7FFE7FFE700208DF80F001AE1029823
:1012D00041F20001C4F2020188422FD1FFE79DF8DC
:1012E0000700002804D1FFE7102001F0DBFA21E01D
:1012F0009DF80700012804D1FFE7102001F0F2FA61
:1013000017E09DF80700022804D1FFE7102001F044
:1013100025FB0DE09DF80700032804D1FFE710200E
:1013200001F050FB03E001208DF80F00EAE0FFE739
:10133000FFE7FFE700208DF80F00E3E0029841F29D
:101340000041C4F2020188422FD1FFE79DF8070057
:10135000002804D1FFE7202001F0A4FA21E09DF845
:101360000700012804D1FFE7202001F0BBFA17E0B5
:101370009DF80700022804D1FFE7202001F0EEFAD3
:101380000DE09DF80700032804D1FFE7202001F0BD
:1013900019FB03E001208DF80F00B3E0FFE7FFE742
:1013A000FFE700208DF80F00ACE0029841F6000145
:1013B000C4F2020188422FD1FFE79DF80700002800
:1013C00004D1FFE7402001F06DFA21E09DF807000D
:1013D000012804D1FFE7402001F084FA17E09DF8CE
:1013E0000700022804D1FFE7402001F0B7FA0DE022
:1013F0009DF80700032804D1FFE7402001F0E2FA3E
:1014000003E001208DF80F007CE0FFE7FFE7FFE736
:1014100000208DF80F0075E0029841F60041C4F2FB
:10142000020188422FD1FFE79DF80700002804D170
:10143000FFE7802001F036FA21E09DF8070001283F
:1014400004D1FFE7802001F04DFA17E09DF8070076
:10145000022804D1FFE7802001F080FA0DE09DF81A
:101460000700032804D1FFE7802001F0ABFA03E076
:1014700001208DF80F0045E0FFE7FFE7FFE70020C0
:101480008DF80F003EE0029842F20001C4F2020122
:10149000884233D1FFE79DF80700002805D1FFE718
:1014A0004FF4807001F0FEF924E09DF80700012858
:1014B00005D1FFE74FF4807001F014FA19E09DF8B0
:1014C0000700022805D1FFE74FF4807001F046FACB
:1014D0000EE09DF80700032805D1FFE74FF4807068
:1014E00001F070FA03E001208DF80F000AE0FFE739
:1014F000FFE7FFE700208DF80F0003E002208DF8E2
:101500000F00FFE79DF80F0004B080BD80B58CB0E0
:101510000B900020C4F2020001210A91FFF7F6FDB2
:1015200040F20041C4F20201099008460A99FFF70F
:10153000EDFD40F60001C4F20201089008460A9948
:10154000FFF7E4FD40F60041C4F2020107900846AF
:101550000A99FFF7DBFD41F20001C4F20201069097
:1015600008460A99FFF7D2FD41F20041C4F2020198
:10157000059008460A99FFF7C9FD41F60001C4F23B
:101580000201049008460A99FFF7C0FD41F60041A8
:10159000C4F20201039008460A99FFF7B7FD42F230
:1015A0000001C4F20201029008460A99FFF7AEFD5D
:1015B0004FF480410190084601F076FB0B9800281B
:1015C00007D0FFE70B9840F25001C2F2000108601B
:1015D00009E040F25000C2F2000046F6C501C0F634
:1015E00000010160FFE70CB080BD000080B586B04F
:1015F0000590049100208DF80F000498411E0229E7
:10160000029040D3FFE7029804283CD0FFE70298FD
:10161000082838D0FFE70298102834D0FFE7029856
:10162000202830D0FFE7029840282CD0FFE702980E
:10163000802828D0FFE70298B0F5807F23D0FFE70D
:101640000298B0F5007F1ED0FFE70298B0F5806FDA
:1016500019D0FFE70298B0F5006F14D0FFE70298A9
:10166000B0F5805F0FD0FFE70298B0F5005F0AD0B9
:10167000FFE70298B0F5804F05D0FFE70298B0F57C
:10168000004F04D1FFE700208DF80F0003E0012098
:101690008DF80F00FFE79DF80F0000280AD1FFE743
:1016A000059802F07FF904990840002818BF01202E
:1016B000019006E0059802F075F904990840019040
:1016C000FFE7019806B080BD80B584B00390029119
:1016D00000208DF807000298411E0229009040D397
:1016E000FFE7009804283CD0FFE70098082838D08E
:1016F000FFE70098102834D0FFE70098202830D06A
:10170000FFE7009840282CD0FFE70098802828D0D9
:10171000FFE70098B0F5807F23D0FFE70098B0F591
:10172000007F1ED0FFE70098B0F5806F19D0FFE76B
:101730000098B0F5006F14D0FFE70098B0F5805F17
:101740000FD0FFE70098B0F5005F0AD0FFE70098E0
:10175000B0F5804F05D0FFE70098B0F5004F04D1F9
:10176000FFE700208DF8070003E001208DF8070057
:10177000FFE79DF80700002805D1FFE703980299CD
:1017800002F020F904E00398029902F025F9FFE73E
:1017900004B080BD80B584B00390029100208DF824
:1017A00007000298411E0229009040D3FFE70098ED
:1017B00004283CD0FFE70098082838D0FFE70098BD
:1017C000102834D0FFE70098202830D0FFE7009899
:1017D00040282CD0FFE70098802828D0FFE7009809
:1017E000B0F5807F23D0FFE70098B0F5007F1ED0D2
:1017F000FFE70098B0F5806F19D0FFE70098B0F5CB
:10180000006F14D0FFE70098B0F5805F0FD0FFE7BE
:101810000098B0F5005F0AD0FFE70098B0F5804F60
:1018200005D0FFE70098B0F5004F04D1FFE7002096
:101830008DF8070003E001208DF80700FFE79DF811
:101840000700002805D1FFE70398029902F026F966
:1018500004E00398029902F029F9FFE704B080BD83
:1018600080B588B00A4607908DF81B1000200590BF
:10187000049003908DF80B0040F25000C2F200007B
:101880000068019280470490FFE70798016840686C
:10189000009008460099FFF7A9FE9DF81B108842AA
:1018A00001D1FFE71FE040F25000C2F200000068E3
:1018B0008047059005980499884206D2FFE704986E
:1018C0000599C0430844039004E005980499401A20
:1018D0000390FFE70398652804D3FFE701208DF804
:1018E0000B0000E0D1E79DF80B0008B080BD0000C0
:1018F00040F24800C2F20000007843F2BC11C2F28C
:1019000000010A68104408607047000080B504F0C8
:10191000E1FA80BD80B500F003F8FFE7FEE70000C4
:101920001EF0040F0CBFEFF30880EFF3098000F006
:1019300001B8704781B0009040F25C10C2F2000024
:101940000021C161816141610161C16081604160CB
:101950000160009909680160009949684160009937
:10196000896881600099C968C1600099096901614D
:101970000099496941610099896981610099C96942
:10198000C16101BE01B0704780B582B0019001987D
:1019900000F062FA02B080BD80B584B0039002917D
:1019A000019203980299019A00F018FB04B080BDDF
:1019B00080B582B00190019800F0F0FB02B080BDCC
:1019C00080B586B00A4604908DF80F109DF80F0080
:1019D000002804D1FFE7049800F024FCFFE70498F6
:1019E00000F01EFA002804D0FFE702208DF817004F
:1019F00019E0049800F046FA04990290084600F0B5
:101A0000EBFB0499002201900846114600F0C4FC4B
:101A100004999DF80F2000900846114600F08AFBBB
:101A20008DF81700FFE79DF8170006B080BD000095
:101A300080B582B00190019800F0F4FB02B080BD47
:101A400080B584B013468C4603908DF80B108DF84A
:101A50000A2003989DF80B109DF80A200193CDF8F9
:101A600000C000F0E9FB04B080BD000080B584B088
:101A70000A4603908DF80B1003989DF80B10019205
:101A800000F08AFC04B080BD80B584B00390029160
:101A9000019203980299019A00F0B4FC04B080BD51
:101AA00080B582B00190019800F026FD02B080BDA3
:101AB00080B582B00190019800F080FD02B080BD39
:101AC00080B584B00A4603908DF80B1003980192FC
:101AD00000F0ACFD9DF80B10002906D0FFE703983D
:101AE000818A01F0FE01818205E00398818A41F03C
:101AF00001018182FFE70398017D00F06DFE0399EB
:101B00000090084600F0F8FC04B080BD80B582B0BB
:101B10000190019800F0CEFD02B080BD80B584B088
:101B20000A4603908DF80B1003989DF80B10019254
:101B300000F0FCFD04B080BD80B584B00A4603907F
:101B40008DF80B1003989DF80B10019200F044FEE5
:101B500004B080BD80B582B001900198FFF714FFFA
:101B600002B080BD80B584B00390029101920398C9
:101B70000299019AFFF710FF04B080BD80B582B0D2
:101B800001900198FFF714FF02B080BD80B584B0CA
:101B90000A4603908DF80B1003989DF80B100192E4
:101BA000FFF70EFF04B080BD80B582B001900198B0
:101BB000FFF73EFF02B080BD80B584B013468C466F
:101BC00003908DF80B108DF80A2003989DF80B10E8
:101BD0009DF80A200193CDF800C0FFF731FF04B053
:101BE00080BD000080B584B00A4603908DF80B10CC
:101BF00003989DF80B100192FFF738FF04B080BDE9
:101C000080B584B003900291019203980299019AE1
:101C1000FFF73AFF04B080BD80B582B00190019813
:101C2000FFF73EFF02B080BD80B582B00190019801
:101C3000FFF73EFF02B080BD80B584B00A46039036
:101C40008DF80B1003989DF80B100192FFF738FFE9
:101C500004B080BD80B582B001900198FFF756FFB7
:101C600002B080BD80B584B00A4603908DF80B1099
:101C700003989DF80B100192FFF750FF04B080BD50
:101C800080B584B00A4603908DF80B1003989DF838
:101C90000B100192FFF750FF04B080BD80B584B0F7
:101CA0000A4602908DF807100298C06A45F200417A
:101CB000C4F20001884233D1FFE79DF807000028F5
:101CC00005D1FFE74FF4001000F0C4FE24E09DF8BA
:101CD0000700012805D1FFE74FF4001000F0F6FEE1
:101CE00019E09DF80700022805D1FFE74FF4001026
:101CF00000F046FF0EE09DF80700032805D1FFE73E
:101D00004FF4001000F08AFF03E001208DF80F006F
:101D100082E0FFE7FFE7FFE700208DF80F007BE0A0
:101D20000298C06A45F60001C4F20001884233D12E
:101D3000FFE79DF80700002805D1FFE74FF480007A
:101D400000F088FE24E09DF80700012805D1FFE798
:101D50004FF4800000F0BAFE19E09DF80700022859
:101D600005D1FFE74FF4800000F00AFF0EE09DF878
:101D70000700032805D1FFE74FF4800000F04EFF75
:101D800003E001208DF80F0046E0FFE7FFE7FFE7E3
:101D900000208DF80F003FE00298C06A45F6004130
:101DA000C4F20001884233D1FFE79DF80700002804
:101DB00005D1FFE74FF4000000F04CFE24E09DF851
:101DC0000700012805D1FFE74FF4000000F07EFE78
:101DD00019E09DF80700022805D1FFE74FF4000045
:101DE00000F0CEFE0EE09DF80700032805D1FFE7C6
:101DF0004FF4000000F012FF03E001208DF80F0007
:101E00000AE0FFE7FFE7FFE700208DF80F0003E09F
:101E100002208DF80F00FFE79DF80F0004B080BD91
:101E200080B582B00190019843F62D71C0F6000193
:101E3000002200F047FA8DF803009DF80300002807
:101E400006D0FFE7019800F02FF88DF80300FFE7B8
:101E50009DF8030002B080BD80B582B0019001986A
:101E6000C169C06A009102F01BF80099814206D056
:101E7000FFE70198C169C06A02F088F8FFE7002017
:101E800002B080BD80B582B001900198C06A02F0B6
:101E90006DF8002805D0FFE70198C06A01F0C4FF83
:101EA000FFE7002002B080BD80B596B015900020FD
:101EB0008DF853001599C96A0D90084601F05CFF32
:101EC0000D9913911291119110910F910E91012280
:101ED0000F9202231093119212921391159A526845
:101EE0000E92159A12680EAB0C90104619460B9381
:101EF00001F0EEFC1599C9680E91159989680A9050
:101F000008460B9901F0E4FC0D998DF85310FFE79A
:101F10009DF85300082826DCFFE715980168406803
:101F2000099008460999FFF7CFFB1598006A0A2126
:101F300008900846089A07919047159801684068EC
:101F4000069008460699FFF725FC1598006A079940
:101F500005900846059A9047FFE79DF85300013029
:101F60008DF85300D4E702200F901598406A139023
:101F7000159840680E90159800680EA9049101F01C
:101F8000A7FC1599C9680E911599896803900846B0
:101F9000049901F09DFC1599096A4FF47A72029038
:101FA000104688471598C16A30300190084601995B
:101FB00001F07EFF1599C96A0090084601F070FF94
:101FC0001599C8611598C06A002102F00DF815989E
:101FD000C06A01F03DFF012016B080BD10B59AB077
:101FE0001990189117920020169015901490139044
:101FF000129011901999496811910221129113912F
:10200000012114911591199A526A1692199A12681F
:1020100011AB0A90104609911946089301F058FC3B
:1020200019990A68496807901046FFF7B3FB199899
:10203000C068119019988068089901F049FC1999B5
:102040008A68C96806901046FFF7A4FB1998099999
:10205000FFF724FE1999C96A0590084601F08CFE25
:102060001999C96A0490084601F0FCFE1998C06AE3
:1020700001F0D0FE0A9810900F900E900D900C90E9
:102080000B900B90199989690C910D900E904FF45B
:1020900080610F914FF4804110911999C86A0BA982
:1020A00001F006FF1999C96A0390084601F0F8FE8D
:1020B0001999C8611998C06A0A9901F095FF199891
:1020C000C06A01F0C5FE1898002803D0FFE71898F1
:1020D000029005E040F69D70C0F600000290FFE718
:1020E0000298199908621798002803D0FFE71798FB
:1020F000019005E046F6C500C0F600000190FFE73C
:1021000001981999886219980121017419980B99FD
:102110000C9A0D9BDDF838C0DDF83CE0109C44645F
:10212000C0F840E0C0F83CC0836342630163002014
:102130001AB010BD80B584B00A4603908DF80B101C
:1021400000208DF80A000398C06A9DF80B10012941
:10215000019006D1FFE70398808A00F0FE0000900E
:1021600005E00398808A40F001000090FFE70098A6
:10217000C1B2019801F046FF039843F60D71C0F615
:102180000001012200F09EF88DF80A000398C06A51
:1021900001F042FD9DF80A0004B080BD80B582B018
:1021A0000190019843F63D71C0F60001012200F054
:1021B00089F88DF803009DF80300002807D1FFE798
:1021C0000198C06A01F0DAFE8DF80300FFE79DF880
:1021D000030002B080BD000080B582B0019001987C
:1021E00043F62D71C0F60001002200F06BF88DF867
:1021F00003009DF8030000280FD1FFE70198C06A93
:1022000001F03AFE019843F64D71C0F6000101223B
:1022100000F058F88DF80300FFE79DF8030002B0C6
:1022200080BD000080B582B001900198C06A01F0C5
:102230002DFE002002B080BD80B584B013468C46D0
:1022400003908DF80B108DF80A20039843F65D710A
:10225000C0F6000101220193CDF800C000F032F871
:102260008DF809009DF80900002826D1FFE70398A2
:10227000C06A9DF80B1001F0C5FE039843F65D712E
:10228000C0F60001012200F01DF88DF809009DF84C
:102290000900002810D1FFE79DF80A0000280BD0A4
:1022A000FFE7039843F61D71C0F60001012200F01C
:1022B00009F88DF80900FFE7FFE79DF8090004B071
:1022C00080BD000080B588B01346079006918DF858
:1022D000172000208DF816000490039002900798B4
:1022E000806A002805D0FFE70798806A8047019040
:1022F00002E000200190FFE701980390FFE70698B5
:102300000799C96A00900846009988479DF81710F8
:10231000884201D1FFE73BE00798806A00281DD082
:10232000FFE70798806A80470490049803998842E1
:1023300006D2FFE703980499C0430844029004E0E2
:1023400004980399401A0290FFE702981F2804D3CB
:10235000FFE701208DF81600FFE70FE00498013039
:102360000490049848F2A161C0F20101884204D3AC
:10237000FFE702208DF81600FFE7FFE79DF8160043
:10238000002804D0FFE70798FFF74CFF00E0B6E70E
:102390009DF8160008B080BD80B584B00A46039051
:1023A0008DF80B100398C06A9DF80B10B1FA81F1FB
:1023B00049098902019201F021FC002004B080BD8E
:1023C00080B584B0039003988168C0680290084685
:1023D0000299FFF779F9039801684068019008466F
:1023E0000199FFF7D7F903980121FEF781FE0399C0
:1023F0000A68496800901046FFF766F9002004B0AB
:1024000080BD000080B58EB00D900C910B92002025
:102410000A90099008900790069005900D994968D8
:1024200005910121069102220792089109910A90D3
:102430000D98006805A9049101F04AFA0D990A68FF
:10244000496803901046FFF7A5F90D98C0680590FC
:102450000D988068049901F03BFA0D998A68C96863
:1024600002901046FFF796F90C98002803D0FFE77A
:102470000C98019005E040F69D70C0F600000190B8
:10248000FFE701980D9908620B98002803D0FFE739
:102490000B98009005E046F6C500C0F600000090DD
:1024A000FFE700980D9988620D9800210174084695
:1024B0000EB080BD80B584B0039003988168C06879
:1024C000029008460299FFF765F903980168406891
:1024D000019008460199FFF75DF903980121FEF785
:1024E00007FE03990A68496800901046FFF7ECF868
:1024F000002004B080BD000080B586B005900020AB
:102500008DF8130005988168C06803900846039908
:10251000FFF740F905980168406802900846029963
:10252000FFF738F905980121FEF7E2FD05998A6861
:10253000C96801901046FFF759F8002818BF01201C
:102540008DF81300059801684068009008460099CE
:10255000FFF7BAF89DF8130006B080BD80B586B0CD
:10256000059000208DF813000598016840680390DD
:1025700008460399FFF70EF90598016A408A8847D3
:1025800005988168C068029008460299FFF72EF806
:10259000002818BF01208DF81300059801684068D5
:1025A000019008460199FFF78FF80598016A408A63
:1025B00088479DF8130006B080BD000080B584B048
:1025C000039000208DF80B008DF80A0003998A68AB
:1025D000C96801901046FFF7DDF80398016840686C
:1025E000009008460099FFF76FF801988DF80B00EE
:1025F000FFE79DF80B00072814DCFFE79DF80A00B1
:1026000040008DF80A000398FFF7A8FF9DF80A1014
:1026100008438DF80A00FFE79DF80B0001308DF8A4
:102620000B00E6E79DF80A0004B080BD80B586B0D7
:10263000059005988168C068049008460499FFF7E2
:10264000A9F8059801684068039008460399FFF7C8
:10265000A1F80598408A012805DBFFE70598016A83
:10266000408A8847FFE705988168C068029008465D
:102670000299FFF729F80598408A012805DBFFE752
:102680000598016A408A8847FFE705980168406815
:10269000019008460199FFF717F805988168C0680E
:1026A000009008460099FEF7A1FF002818BF0120FE
:1026B00006B080BD80B586B0059005988168C06879
:1026C000049008460499FEF7FFFF059801684068EA
:1026D000039008460399FFF75DF80598408A0128A2
:1026E00005DBFFE70598016A408A8847FFE7059800
:1026F0008168C068029008460299FFF74BF8059878
:10270000408A012805DBFFE70598016A408A88476F
:10271000FFE705988168C068019008460199FEF7B7
:1027200065FFB0FA80F0400906B080BD80B584B086
:102730000A4602908DF807109DF80700002806D081
:10274000FFE70298FFF7B6FE8DF80F0005E002984C
:10275000FFF736FE8DF80F00FFE79DF80F0004B07D
:1027600080BD000080B586B00A4605908DF8131034
:102770009DF813000006002809D5FFE70598816839
:10278000C068039008460399FFF704F808E005982D
:102790008168C068029008460299FEF795FFFFE73E
:1027A000059801684068019008460199FEF7F2FF1C
:1027B0000598016A408A884705980168406800903A
:1027C00008460099FEF780FF0598016A408A88470D
:1027D000002006B080BD000080B584B00A4603909A
:1027E0008DF80B1000208DF80A0003990B684968DA
:1027F000019018460092FEF767FF01988DF80A00D5
:10280000FFE79DF80A00072811DCFFE703989DF811
:102810000B10FFF7A7FF9DF80B1049008DF80B1068
:10282000FFE79DF80A0001308DF80A00E9E7002073
:1028300004B080BD80B500F005F880BD80B5FFF71D
:10284000F9FF80BD80B543F20000C4F2000001F042
:10285000E9FB002080BD000081B0009000986FF07F
:102860002001016001B0704781B00090009881683C
:1028700021F00101816001B07047000081B000903B
:102880000098816841F00101816001B0704700004B
:1028900081B000900098816841F08041816001B072
:1028A0007047000081B00090009843F63001C4F2F8
:1028B00002010A6822EA0000086001B070470000C7
:1028C00082B00190019843F63001C4F202010A6817
:1028D000104308600868019908400090009802B011
:1028E0007047000082B00190019843F63001C4F2B5
:1028F00002010A68104308600868019908400090C6
:10290000009802B07047000082B00190019843F631
:102910003001C4F202010A68104308600868019996
:1029200008400090009802B07047000081B000900D
:10293000009843F61001C4F202010A6810430860CF
:1029400001B0704781B00090009843F61001C4F2C6
:1029500002010A681043086001B0704781B000901E
:10296000009843F61001C4F202010A68104308609F
:1029700001B0704781B00090009843F61001C4F296
:1029800002010A681043086001B0704781B00090EE
:10299000009843F61001C4F202010A6822EA00001E
:1029A000086001B07047000081B00090009843F6C5
:1029B0001001C4F202010A6822EA0000086001B0B6
:1029C0007047000081B00090009843F61001C4F2F7
:1029D00002010A6822EA0000086001B070470000A6
:1029E00081B00090009843F61001C4F202010A6819
:1029F00022EA0000086001B07047000082B0019038
:102A0000019843F63401C4F202010A6810430860D9
:102A10000868019908400090009802B070470000D3
:102A200081B00090009843F61401C4F202010A68D4
:102A30001043086001B0704781B00090009843F6E1
:102A40001401C4F202010A6822EA0000086001B021
:102A50007047000081B00090009843F64001C4F236
:102A600002010A6822EA0000086001B07047000015
:102A700081B00090009843F64001C4F202010A6858
:102A800022EA0000086001B07047000081B00090A9
:102A9000009843F64001C4F202010A6822EA0000ED
:102AA000086001B07047000082B00190019843F6C1
:102AB0004001C4F202010A681043086008680199E5
:102AC00008400090009802B07047000082B001906A
:102AD000019843F64001C4F202010A6810430860FD
:102AE0000868019908400090009802B07047000003
:102AF00082B00190019843F64001C4F202010A68D5
:102B0000104308600868019908400090009802B0DE
:102B10007047000082B00190019843F64001C4F272
:102B200002010A6810430860086801990840009093
:102B3000009802B07047000081B00090009843F602
:102B40002001C4F202010A681043086001B0704716
:102B500081B00090009843F62001C4F202010A6897
:102B60001043086001B0704781B00090009843F6B0
:102B70002001C4F202010A681043086001B07047E6
:102B800081B00090009843F62001C4F202010A6867
:102B90001043086001B0704781B00090009843F680
:102BA0002001C4F202010A681043086001B07047B6
:102BB00081B00090009843F62001C4F202010A6837
:102BC0001043086001B0704781B00090009843F650
:102BD0002001C4F202010A6822EA0000086001B084
:102BE0007047000081B00090009843F62001C4F2C5
:102BF00002010A6822EA0000086001B07047000084
:102C000081B00090009843F62001C4F202010A68E6
:102C100022EA0000086001B07047000081B0009017
:102C2000009843F62001C4F202010A6822EA00007B
:102C3000086001B07047000081B00090009843F632
:102C40002001C4F202010A6822EA0000086001B013
:102C50007047000081B00090009843F62001C4F254
:102C600002010A6822EA0000086001B07047000013
:102C700081B00090009843F64401C4F202010A6852
:102C800022EA0000086001B07047000081B00090A7
:102C9000009843F64401C4F202010A6822EA0000E7
:102CA000086001B07047000082B00190019843F6BF
:102CB0004401C4F202010A681043086008680199DF
:102CC00008400090009802B07047000082B0019068
:102CD000019843F64401C4F202010A6810430860F7
:102CE0000868019908400090009802B07047000001
:102CF00082B00190019843F64401C4F202010A68CF
:102D0000104308600868019908400090009802B0DC
:102D10007047000081B00090009843F62401C4F28F
:102D200002010A681043086001B0704781B000904A
:102D3000009843F62401C4F202010A6810430860B7
:102D400001B0704781B00090009843F62401C4F2AE
:102D500002010A681043086001B0704781B000901A
:102D6000009843F62401C4F202010A681043086087
:102D700001B0704781B00090009843F62401C4F27E
:102D800002010A6822EA0000086001B070470000F2
:102D900081B00090009843F62401C4F202010A6851
:102DA00022EA0000086001B07047000081B0009086
:102DB000009843F62401C4F202010A6822EA0000E6
:102DC000086001B07047000081B00090009843F6A1
:102DD0002401C4F202010A6822EA0000086001B07E
:102DE0007047000080B584B0039000208DF80B0080
:102DF000039843F20001C4F20201884209D1FFE7BF
:102E00004FF480500190FFF791FD0198FFF7BEFD50
:102E100003E001208DF80B00FFE79DF80B0004B0E4
:102E200080BD000083B002900191019807280090B6
:102E30002CD80099DFE801F004080D12171B20259B
:102E400002983D21816022E002984FF47461816014
:102E50001DE002984FF47411816018E002984FF061
:102E60007461816013E002983D21C1600FE0029817
:102E70004FF47461C1600AE002984FF47411C160AC
:102E800005E002984FF07461C16000E0FFE703B015
:102E90007047000081B0009000984FF4806181601D
:102EA00001B0704781B0009000984FF400618160DC
:102EB00001B0704784B0039002910192009303988F
:102EC00002994AF2BC02C0F60002515C0844406913
:102ED00020F007000199009B194308430399029BC6
:102EE000D25C1144486104B07047000083B0029086
:102EF00001910092029801994AF2BC02C0F60002C8
:102F0000515C405848F21F01CFF6FC71084000990F
:102F100008430299019BD25C885003B070470000BF
:102F200080B596B01590149146F21000C4F20200DC
:102F3000139000208DF84B00149810F5803F28D195
:102F4000FFE7159846F20001C4F20201884209D158
:102F5000FFE74FF400101190FFF7F4FC1198FFF712
:102F600023FD15E0159846F20041C4F202018842A3
:102F700009D1FFE74FF480001090FFF7E3FC1098B1
:102F8000FFF712FD03E001208DF84B00FFE7FFE79C
:102F9000AEE11598149900F0BFF9159846F20001BA
:102FA000C4F2020188420AD1FFE71498002806D132
:102FB000FFE746F21000C4F202000F902FE11598CF
:102FC00046F20041C4F2020188420AD1FFE7149898
:102FD000002806D1FFE746F21040C4F202000E902E
:102FE0001AE1159846F20001C4F2020188420AD1A2
:102FF000FFE71498012806D1FFE746F22800C4F243
:1030000002000D9005E1159846F20041C4F202015C
:1030100088420AD1FFE71498012806D1FFE746F25B
:103020002840C4F202000C90F0E0159846F200012E
:10303000C4F2020188420AD1FFE71498022806D19F
:10304000FFE746F24000C4F202000B90DBE0159867
:1030500046F20041C4F2020188420AD1FFE7149807
:10306000022806D1FFE746F24040C4F202000A906F
:10307000C6E0159846F20001C4F2020188420AD166
:10308000FFE71498032806D1FFE746F25800C4F280
:1030900002000990B1E0159846F20041C4F2020125
:1030A00088420AD1FFE71498032806D1FFE746F2C9
:1030B0005840C4F2020008909CE0159846F20001C6
:1030C000C4F2020188420AD1FFE71498042806D10D
:1030D000FFE746F27000C4F20200079087E01598FF
:1030E00046F20041C4F2020188420AD1FFE7149877
:1030F000042806D1FFE746F27040C4F202000690B1
:1031000072E0159846F20001C4F2020188420AD129
:10311000FFE71498052806D1FFE746F28800C4F2BD
:10312000020005905DE0159846F20041C4F20201EC
:1031300088420AD1FFE71498052806D1FFE746F236
:103140008840C4F20200049048E0159846F200015D
:10315000C4F2020188420AD1FFE71498062806D17A
:10316000FFE746F2A000C4F20200039033E0159896
:1031700046F20041C4F2020188420AD1FFE71498E6
:10318000062806D1FFE746F2A040C4F202000290F2
:103190001EE01598002146F20002C4F2020290429D
:1031A000019107D1FFE714980738B0FA80F0400981
:1031B0000190FFE70198C00746F2B841C4F202014E
:1031C00000281CBF46F2B801C4F202010291FFE7D9
:1031D00002980390FFE703980490FFE70498059096
:1031E000FFE705980690FFE706980790FFE7079826
:1031F0000890FFE708980990FFE709980A90FFE711
:103200000A980B90FFE70B980C90FFE70C980D9035
:10321000FFE70D980E90FFE70E980F90FFE70F98CD
:1032200013901398002101601398416013988160F6
:103230001398C16013980161139821224261159877
:10324000149A00911146009A00F02AFA1498002866
:1032500004D1FFE715983F21816048E014980128C8
:1032600005D1FFE715984FF4746181603EE0149832
:10327000022805D1FFE715984FF47C11816034E0F6
:103280001498032805D1FFE715984FF07461816009
:103290002AE01498042804D1FFE715983F21C16063
:1032A00021E01498052805D1FFE715984FF47461C3
:1032B000C16017E01498062805D1FFE715984FF470
:1032C0007C11C1600DE01498072805D1FFE715981F
:1032D0004FF07461C16003E001208DF84B00FFE7FF
:1032E000FFE7FFE7FFE7FFE7FFE7FFE7FFE7FFE7AE
:1032F0009DF84B0016B080BD82B0019000910198FE
:1033000000994AF2CC02C0F60002515C425822F009
:103310001002425002B0704782B0019000910198B3
:1033200000994AF2BC02C0F60002515C425822F0F9
:103330000102425002B0704782B0019000910198A2
:1033400000994AF2C402C0F60002515C425822F0D1
:103350000102425002B0704782B001900091019882
:1033600000994AF2CC02C0F60002515C425822F0A9
:103370000102425002B0704782B001900091019862
:1033800000994AF2CC02C0F60002515C425842F069
:103390001002425002B0704782B001900091019833
:1033A00000994AF2C402C0F60002515C425842F051
:1033B0000102425002B0704782B001900091019822
:1033C00000994AF2CC02C0F60002515C425842F029
:1033D0000102425002B0704782B001900091019802
:1033E00000994AF2CC02C0F60002515C08444068E1
:1033F00080B202B07047000010B584B00390029113
:1034000001920198C06A002801D0FFE7FFE7039806
:103410000299019A9368D2F80CC0D2F810E054696E
:1034200043EA0C0343EA0E032343D2F818C043EAED
:103430000C03D2F81CC043EA0C03926A1A43FFF74C
:1034400055FD0198C06A002817D0FFE7039802993C
:10345000019AD36A126B00921A46009BFFF72AFD6D
:1034600003980299019A526B00F09EF90398029911
:10347000019A926B00F0BEF9FFE703980299019A56
:10348000526800F071F903980299019A126800F0ED
:10349000A1F903980299019A126A00F017F90398AA
:1034A0000299019A526A00F0FBF8002004B010BDA6
:1034B00081B0009000980068C0F3401001B07047E0
:1034C00081B0009000980068C0F3C02001B0704740
:1034D00081B0009000980068C0F3405001B0704780
:1034E00081B0009000980068C0F3C06001B07047E0
:1034F00081B0009000984068C0F3401001B0704760
:1035000081B0009000984068C0F3C02001B07047BF
:1035100081B0009000984068C0F3405001B07047FF
:1035200081B0009000984068C0F3C06001B070475F
:1035300080B584B00390029100208DF807000298B6
:103540000728009000F297800099DFE801F0041648
:10355000283A4C5E70820398FFF7AAFF00280BD030
:10356000FFE70398029900F08BF8002804D0FFE7EA
:1035700001208DF80700FFE77EE00398FFF7A0FF2A
:1035800000280BD0FFE70398029900F079F8002893
:1035900004D0FFE701208DF80700FFE76CE00398F7
:1035A000FFF796FF00280BD0FFE70398029900F081
:1035B00067F8002804D0FFE701208DF80700FFE737
:1035C0005AE00398FFF78CFF00280BD0FFE7039821
:1035D000029900F055F8002804D0FFE701208DF88B
:1035E0000700FFE748E00398FFF782FF00280BD0B1
:1035F000FFE70398029900F043F8002804D0FFE7A2
:1036000001208DF80700FFE736E00398FFF778FF09
:1036100000280BD0FFE70398029900F031F800284A
:1036200004D0FFE701208DF80700FFE724E00398AE
:10363000FFF76EFF00280BD0FFE70398029900F018
:103640001FF8002804D0FFE701208DF80700FFE7EE
:1036500012E00398FFF764FF00280BD0FFE7039800
:10366000029900F00DF8002804D0FFE701208DF842
:103670000700FFE700E0FFE79DF8070004B080BD0A
:1036800082B001900091019800994AF2B402C0F60C
:103690000002515C4058C0F3001002B070470000B7
:1036A00083B0029001910092029801994AF2BC0203
:1036B000C0F60002515C405820F060600099084359
:1036C0000299019BD25C885003B0704783B002908E
:1036D00001910092029801994AF2BC02C0F60002E0
:1036E000515C084440684FF6FF71884300990843D5
:1036F0000299019BD25C1144486003B070470000FE
:1037000083B0029001910092029801994AF2C4029A
:10371000C0F60002515C084440684FF6FF718843D0
:10372000009908430299019BD25C1144486003B0A0
:103730007047000083B002900191009202980199B5
:103740004AF2CC02C0F60002515C084440684FF6D1
:10375000FF718843009908430299019BD25C114490
:10376000486003B07047000083B00290019100925E
:1037700000980299019A4AF2BC03C0F600039A5CD1
:103780001144C86003B0704783B002900191009269
:1037900000980299019A4AF2CC03C0F600039A5CA1
:1037A0001144C86003B0704783B002900191009249
:1037B000029801994AF2BC02C0F60002515C4058DE
:1037C00020F0C070009908430299019BD25C885098
:1037D00003B0704783B00290019100920098029963
:1037E000019A4AF2BC03C0F600039A5C1144886057
:1037F00003B0704783B00290019100920298019942
:103800004AF2BC02C0F60002515C405820F4C000ED
:10381000009908430299019BD25C885003B070471D
:1038200081B00090009843F61441C4F20101086091
:1038300001B0704781B00090009843F60041C4F297
:1038400001010A6822EA0000086001B07047000028
:1038500081B00090009843F60041C4F201010A686B
:103860001043086001B0704743F60040C4F2020004
:10387000016841F4806101607047000043F6004038
:10388000C4F20200016841F4007101607047000059
:1038900043F60040C4F20200016841F48071016007
:1038A0007047000043F60040C4F20200006800F0D8
:1038B0000F00704781B0009043F60040C4F2020050
:1038C000016821F00F01009A1143016001B07047B7
:1038D00080B584B00390029100200190009002987E
:1038E000006890FAA0F0B0FA80F00190FFE702982B
:1038F00000680199C840002850D0FFE7029800688E
:103900000199012202FA01F1084000900098002874
:1039100040D0FFE702984068012805D0FFE70298F1
:10392000406802280DD1FFE703980099029A926837
:1039300000F03EF903980099029AD26800F010F95D
:10394000FFE703980099029A126900F019F90298AA
:103950004068022817D1FFE7009890FAA0F0B0FA6B
:1039600080F0072807D8FFE703980099029A526968
:1039700000F05CF806E003980099029A526900F0A2
:103980006DF8FFE7FFE703980099029A526800F08C
:10399000B7F8FFE7019801300190A8E7002004B0D4
:1039A00080BD000081B000900098006901B07047B0
:1039B00082B001900091009800040199886102B0E2
:1039C0007047000082B001900091009800040199B6
:1039D000886102B07047000080B584B00390029106
:1039E000002001900090029890FAA0F0B0FA80F0C8
:1039F0000190FFE702980199C840002814D0FFE722
:103A000002980199012202FA01F108400090009801
:103A1000002805D0FFE703980099FFF7C9FFFFE7EB
:103A2000019801300190E5E704B080BD83B00290B9
:103A3000019100920298006A019991FAA1F1B1FAFC
:103A400081F189000F228A409043009A02FA01F125
:103A500008430299086203B07047000083B00290E7
:103A6000019100920298406A0199090A91FAA1F124
:103A7000B1FA81F189000F228A409043009A02FA3C
:103A800001F108430299486203B0704782B0019087
:103A9000009100980199886102B0704782B001904E
:103AA000009100980199886102B0704780B584B098
:103AB00003900291002001900090029890FAA0F0EB
:103AC000B0FA80F00190FFE702980199C840002801
:103AD00014D0FFE702980199012202FA01F108408F
:103AE00000900098002805D0FFE703980099FFF7A1
:103AF000CDFFFFE7019801300190E5E704B080BDFC
:103B000083B002900191009202980068019991FAA5
:103B1000A1F1B1FA81F1490003228A409043009A51
:103B200002FA01F108430299086003B070470000EF
:103B300083B002900191009202980068019991FA75
:103B4000A1F1B1FA81F1490003228A409043009A21
:103B500002FA01F108430299086003B070470000BF
:103B600083B00290019100920298406801998843C5
:103B7000009A514308430299486003B0704700001F
:103B800083B00290019100920298C068019991FA65
:103B9000A1F1B1FA81F1490003228A409043009AD1
:103BA00002FA01F108430299C86003B070470000AF
:103BB00083B002900191009202988068019991FA75
:103BC000A1F1B1FA81F1490003228A409043009AA1
:103BD00002FA01F108430299886003B070470000BF
:103BE00082B0019000910198006820F480600099F3
:103BF00008430199086002B07047000082B001904C
:103C000000910198006820F48060009908430199B0
:103C1000086002B07047000082B0019001984069CE
:103C200000900098019989690091009902B070474D
:103C30008CB00B900A91099208930020079006908F
:103C40000A984DF68361C4F21B31A0FB0101890C77
:103C500007910B99496821F03F01079A11430B9A8C
:103C600051600B99096A21F03F01099A48F2A0635B
:103C7000C0F201039A42059104D8FFE7079801308A
:103C800004900EE007984FF49671484344F6D351E0
:103C9000C1F26201A0FB0101012202EB911104912A
:103CA000FFE70498059908430B9A1062099848F2B7
:103CB000A162C0F2010290423BD3FFE708980028BE
:103CC00018D1FFE70A98099901EB4101B0FBF1F027
:103CD0000005002803D1FFE70120039007E00A98C0
:103CE000099901EB4101B0FBF1F00390FFE7039864
:103CF000029017E00A98099919225143B0FBF1F09C
:103D00000005002803D1FFE70120019007E00A9891
:103D1000099919225143B0FBF1F00190FFE7019896
:103D20000290FFE702980899084340F4004006908B
:103D300016E00A9809994900B0FBF1F06FF31F30C3
:103D4000032803D8FFE70420009006E00A980999A9
:103D50004900B0FBF1F00090FFE700980690FFE704
:103D60000B98C0694CF6FF718843069908430B997C
:103D7000C8610CB07047000080B586B00590002087
:103D80008DF81300059845F20041C4F20001884205
:103D900009D1FFE74FF400100390FEF7E5FE03980A
:103DA000FEF72EFF27E0059845F60001C4F200015A
:103DB000884209D1FFE74FF480000290FEF7D4FE5D
:103DC0000298FEF71DFF15E0059845F60041C4F284
:103DD0000001884209D1FFE74FF400000190FEF78F
:103DE000C3FE0198FEF70CFF03E001208DF81300DD
:103DF000FFE7FFE7FFE79DF8130006B080BD000076
:103E000081B000900098016821F00101016001B0CB
:103E10007047000081B000900098016821F40041D3
:103E2000016001B07047000081B000900098016807
:103E300021F40071016001B07047000081B0009072
:103E40000098016841F00101016001B07047000075
:103E500081B000900098016841F00101016001B05B
:103E60007047000081B000900098016841F4004163
:103E7000016001B07047000081B0009000980168B7
:103E800041F48071016001B07047000081B0009082
:103E90000098016841F40071016001B070470000B2
:103EA00081B000900098C0696FF31F3001B0704777
:103EB00080B588B0079006910798FFF7A1FF02A888
:103EC00000F058F907980499069A5368926801928D
:103ED0001A46019BFFF7ACFE07980699CA68496924
:103EE00000911146009A00F06DF80798069909684C
:103EF00000F05AF80798FFF7A1FF0798069909699B
:103F0000FFF76EFE002008B080BD000081B0009079
:103F100000984069C0F3400001B0704781B0009044
:103F200000984069C0F3800001B0704781B00090F4
:103F300000988069C0F3400001B0704781B00090E4
:103F400000984069C0F3801001B0704781B00090C4
:103F50000098406900F0010001B0704781B0009006
:103F600000984069C0B2C00901B0704781B00090AC
:103F700000980068C0F3402001B0704781B0009005
:103F800000980069C0B201B07047000082B0019093
:103F900000910198C06940F6FF7188430099084379
:103FA0000199C86102B0704782B0019000910198F8
:103FB000006820F01A00009908430199086002B0D7
:103FC0007047000083B002900191009202988068CF
:103FD00048F2FF3188430199009A1143084302993E
:103FE000886003B07047000082B001900091019892
:103FF000C06820F0FE00009908430199C86002B033
:104000007047000082B00A4601908DF803100198B5
:10401000006920F0FF009DF8031008440199086131
:1040200002B0704781B0009000984AF6AA21016062
:1040300001B0704782B00190009101980099B0FBE7
:10404000F1F001384EF21401CEF2000108604EF298
:104050001800CEF20000002101604EF21000CEF2F6
:1040600000000521016002B07047000047F2000027
:10407000C4F20000016841F48071016070470000E3
:1040800047F20400C4F200000068C0F380007047EB
:1040900081B0009047F20000C4F20000016821F4F2
:1040A0008041009A1143016001B0704743F60C0053
:1040B000C4F20200016841F4000101607047000091
:1040C00043F60C00C4F20200016841F400210160D3
:1040D0007047000043F60C00C4F20200016821F4AE
:1040E000006101607047000043F60C00C4F202005A
:1040F000016841F4006101607047000043F6700000
:10410000C4F20200016841F4004101607047000000
:1041100043F67000C4F20200016841F4803101608E
:104120007047000043F60800C4F20200006800F087
:10413000F000704743F60800C4F20200006800F483
:10414000E050704743F60800C4F20200006800F433
:104150006040704743F60800C4F20200006800F0B7
:104160000C00704743F60800C4F20200006800F03B
:104170000C00704780B582B0019001F023FE0199D8
:1041800008600198006801F0E5FD01994860019818
:10419000406801F0F3FD019988600198406801F0E2
:1041A000FFFD0199C86002B080BD000043F6000029
:1041B000C4F20200016841F48031016070470000E0
:1041C00043F60000C4F20200016841F4803101604E
:1041D0007047000043F60000C4F202000068C0F31C
:1041E0004040704743F60C00C4F202000068C0B2C1
:1041F000C009704743F60C00C4F202000068C0F327
:10420000C000704743F67000C4F20200016841F03C
:10421000010101607047000043F67000C4F2020023
:104220000068C0F34000704743F67400C4F2020017
:10423000016841F0010101607047000043F674001D
:10424000C4F202000068C0F34000704784B00390DD
:1042500002910192009343F60400C4F20200016847
:1042600048F20002CFF6BF721140039A029B1A4334
:10427000019B42EA831211430160016821F440313D
:10428000009A1143016004B07047000043F600003B
:10429000C4F20200016841F08071016070470000C3
:1042A00043F60400C4F20200006800F03F007047CB
:1042B00043F60400C4F20200006800F48000704776
:1042C00043F60400C4F202000068C0F3881070478F
:1042D00043F60400C4F20200006800F44030704766
:1042E00043F60000C4F202000068C0F3406070476B
:1042F00043F67000C4F20200016821F480310160CD
:104300007047000081B0009043F60800C4F202003C
:10431000016821F0F001009A1143016001B070477B
:1043200081B0009043F60800C4F20200016821F455
:10433000E051009A1143016001B0704781B00090D4
:1043400043F60800C4F20200016821F46041009ABB
:104350001143016001B0704781B0009043F67000D6
:10436000C4F20200016821F44071009A1143016017
:1043700001B0704781B0009043F60800C4F202001B
:10438000016821F00301009A1143016001B07047F8
:1043900081B0009000986FF02001416001B070473B
:1043A00081B0009000986FF04001416001B070470B
:1043B00080B582B0019040200090FEF731FB00985C
:1043C000FEF73AFB002002B080BD000081B00090F3
:1043D0000098016821F00401016001B070470000FD
:1043E00081B000900098016841F00401016001B0C3
:1043F0007047000081B000900098016841F008010A
:10440000016001B07047000081B0009000984068E2
:10441000C0F3401001B0704781B000900098406830
:1044200000F0010001B0704781B000900098406832
:10443000C0F3801001B0704781B000900098806890
:1044400001B0704783B00290019100200090029863
:10445000503000900198009901EB80000090009886
:10446000006803B07047000084B00390029101928D
:10447000002000900398503000900298009901EBC2
:104480008000009001980099086004B07047000017
:1044900081B000900098C06800F0800060F0A0003B
:1044A0000099C86001B0704785B0DDF814C0049071
:1044B00003910292019300200090039840039DF81D
:1044C000141040EA01409DF8041040EA01209DF8D4
:1044D00008100844009004984068C021CFF600718D
:1044E0000840009908430499486005B070470000EF
:1044F00081B000900098406800F03F0001B0704724
:1045000081B0009000984068C0F3042001B070476B
:1045100081B000900098406880B2400B01B07047B5
:1045200081B0009000984068C0F3074001B0704728
:10453000F0B589B008900791069201208DF8170018
:10454000079800280DD1FFE706984078C00600289C
:1045500007D5FFE70698417801F0EF010A31417075
:10456000FFE70798002801D1FFE700E0FFE7089880
:1045700000F074F8089800F08BF801285FD0FFE78E
:10458000079800280FD0FFE7089806990A784B781B
:1045900091F802C0C978EE46CEF800101146624686
:1045A000FFF782FF34E0089806990A784B7891F873
:1045B00002C0C9784CF6CD4ECCF6CC4EACFB0E45C5
:1045C000ED0805EB8506ACEB460C4CEA051C5FFAE2
:1045D0008CFCA3FB0E56F60806EB8607A3EB4703FD
:1045E00043EA0613DBB2A1FB0EE6F60806EB8607EC
:1045F000A1EB470141EA0611C9B26E46316011468E
:10460000624604940395CDF808E0FFF74DFFFFE7FD
:1046100042F60000C4F2000000F018F8089800F01C
:10462000C1F8002806D1FFE7089800F0BDF98DF821
:10463000170003E000208DF81700FFE7FFE7089858
:1046400000F01EF89DF8170009B0F0BD81B0009091
:1046500000986FF08001C16001B0704781B0009098
:104660000098CA21416200985321416201B070470D
:1046700081B0009000984FF0FF31C16001B07047E9
:1046800081B000900098FF21416201B070470000A6
:1046900080B586B005904FF47A70049000208DF8B4
:1046A0000F000290059800F06DF8002830D1FFE768
:1046B0000598FFF7DDFF059800F064F80290FFE72A
:1046C000049800210028019106D0FFE702980138E4
:1046D00018BF01200190FFE70198C007002816D0FD
:1046E000FFE700F0D3F9012804D1FFE7049801386F
:1046F0000490FFE7059800F045F802900498002820
:1047000004D1FFE701208DF80F00FFE7D8E7FFE7AE
:104710009DF80F0006B080BD81B0009000988068C1
:1047200000F0400001B0704780B584B00390029162
:1047300001208DF807000398FFF790FF0398FFF71B
:10474000A7FF012816D0FFE703980299096800F037
:104750003FF803980299896800F048F80398029995
:10476000496800F027F80398FFF770FF00208DF8E4
:104770000700FFE70398FFF783FF9DF8070004B0E9
:1047800080BD000081B000900098C068C0F3801028
:1047900001B0704781B000900098C068C0F340102D
:1047A00001B0704781B0009000988068C0F340105D
:1047B00001B0704782B0019000910198006920F427
:1047C000FE00009940EA01400199086102B070477B
:1047D00082B0019000910198806820F0400000991B
:1047E00008430199886002B07047000082B00190D0
:1047F00000910198006947F6FF71884300990843CA
:104800000199086102B0704785B0DDF814C00490CA
:104810000391029201930020009003989DF80810E4
:1048200040EA01409DF8041040EA01209DF8141070
:10483000084300900498006848F28001CFF6807128
:104840000840009908430499086005B070470000CB
:1048500081B0009000980068C0F3054001B0704737
:1048600081B0009000980068C0F3062001B0704746
:1048700081B000900098006800F07F0001B07047A0
:10488000F0B589B008900791069201208DF81700C5
:10489000079800280CD1FFE70898FFF73DFF002894
:1048A00001D0FFE703E0069800210160FFE70BE07D
:1048B0000898FFF731FF002801D0FFE703E00698D2
:1048C00000210160FFE7FFE70898FFF7C7FE08989F
:1048D000FFF7DEFE012860D0FFE70798002810D020
:1048E000FFE7089806990A680B7991F805C089795D
:1048F000EE46CEF8001011461A466346FFF784FFD5
:1049000034E0089806990A680B794CF6CD4CCCF641
:10491000CC4CA3FB0CE4E40804EB8405A3EB4503B7
:1049200043EA0413DBB24C79A4FB0C56F60806EB01
:104930008607A4EB470444EA0614E4B28979A1FB94
:104940000CC6F60806EB8607A1EB470141EA061103
:10495000C9B26E46316011461A462346CDF810E0C2
:104960000395CDF808C0FFF74FFFFFE742F60000C0
:10497000C4F20000FFF76AFE0898FFF713FF002853
:1049800006D1FFE7089800F00FF88DF8170003E054
:1049900000208DF81700FFE7FFE70898FFF770FE8B
:1049A0009DF8170009B0F0BD80B586B005904FF4B2
:1049B0007A70049000208DF80F0002900598FFF7A0
:1049C00067FD0598FFF7E6FE0290FFE704980021D7
:1049D0000028019106D0FFE70298002818BF0120A7
:1049E0000190FFE70198C007002816D0FFE700F00C
:1049F0004DF8012804D1FFE7049801380490FFE73F
:104A00000598FFF7C7FE02900498002804D1FFE73D
:104A100001208DF80F00FFE7D8E79DF80F0001286F
:104A200030D0FFE74FF47A7004900598FFF7B2FE9C
:104A30000290FFE7049800210028009106D0FFE7CC
:104A40000298013818BF01200090FFE70098C007C6
:104A5000002816D0FFE700F019F8012804D1FFE77D
:104A6000049801380490FFE70598FFF793FE029041
:104A70000498002804D1FFE701208DF80F00FFE71C
:104A8000D8E7FFE79DF80F0006B080BD4EF210009A
:104A9000CEF200000068C0F30040704781B0009083
:104AA0000098042809D1FFE74EF21000CEF2000072
:104AB000016841F00401016008E04EF21000CEF2FE
:104AC0000000016821F004010160FFE701B07047B8
:104AD00081B00090009840F20001C2F2000108602D
:104AE00001B0704780B590B00F9000208DF83B006A
:104AF0000F980021C4F20101884208D1FFE701208C
:104B00000D90FEF707F90D98FEF734F9E1E00F98E4
:104B1000B0F1804F08D1FFE701200C90FEF70CF8B0
:104B20000C98FEF751F8D3E00F9840F20041C4F220
:104B30000001884208D1FFE702200B90FDF7FCFF3F
:104B40000B98FEF741F8C2E00F9840F60001C4F25E
:104B50000001884208D1FFE704200A90FDF7ECFF2E
:104B60000A98FEF731F8B1E00F9840F60041C4F220
:104B70000001884208D1FFE708200990FDF7DCFF1B
:104B80000998FEF721F8A0E00F9841F20001C4F265
:104B90000001884208D1FFE710200890FDF7CCFF04
:104BA0000898FEF711F88FE00F9841F20041C4F227
:104BB0000001884208D1FFE720200790FDF7BCFFE5
:104BC0000798FEF701F87EE00F9840F20041C4F22A
:104BD0000101884208D1FFE702200690FEF79AF80B
:104BE0000698FEF7C7F86DE00F9844F20001C4F292
:104BF0000101884209D1FFE74FF480300590FEF7AC
:104C000089F80598FEF7B6F85BE00F9844F200418A
:104C1000C4F20101884209D1FFE74FF4003004904B
:104C2000FEF778F80498FEF7A5F849E00F9844F6E7
:104C30000001C4F20101884209D1FFE74FF480204E
:104C40000390FEF767F80398FEF794F837E00F98A3
:104C500041F60001C4F20001884208D1FFE740207C
:104C60000290FDF769FF0298FDF7AEFF26E00F986E
:104C700041F60041C4F20001884208D1FFE78020DC
:104C80000190FDF759FF0198FDF79EFF15E00F9881
:104C900042F20001C4F20001884209D1FFE74FF45B
:104CA00080700090FDF748FF0098FDF78DFF03E04E
:104CB00001208DF83B00FFE7FFE7FFE7FFE7FFE795
:104CC000FFE7FFE7FFE7FFE7FFE7FFE7FFE7FFE7B4
:104CD000FFE79DF83B0010B080BD000082B001905E
:104CE0000198006800900098019949680091009926
:104CF00002B0704782B0019001980068009000985F
:104D0000019949680091009902B0704781B0009004
:104D100000986FF48071016001B0704782B001901B
:104D200001980068009000980199496800910099E5
:104D300002B0704782B0019001980068009000981E
:104D4000019949680091009902B0704782B00190C2
:104D500001980068009000980199496800910099B5
:104D600002B0704781B0009000986FF020010160A0
:104D700001B0704781B0009000986FF04001016071
:104D800001B0704781B0009000986FF4007101602D
:104D900001B0704781B000900098016921F4904102
:104DA00001610098416921F02A01416101B0704719
:104DB00080B588B0079000208DF81B00079841F25D
:104DC0000001C4F20101884208D1FFE710200590DC
:104DD000FDF7ACFF0598FDF7DBFF5CE0079844F2B8
:104DE0000041C4F20001884209D1FFE74FF40030CE
:104DF0000490FDF7ADFE0498FDF7F4FE4AE0079835
:104E000044F60001C4F20001884209D1FFE74FF4E3
:104E100080200390FDF79CFE0398FDF7E3FE38E049
:104E2000079841F20041C4F20101884208D1FFE72E
:104E300020200290FDF77AFF0298FDF7A9FF27E0F6
:104E4000079844F60041C4F20001884209D1FFE707
:104E50004FF400200190FDF77BFE0198FDF7C2FEA4
:104E600015E0079845F20001C4F20001884209D11B
:104E7000FFE74FF480100090FDF76AFE0098FDF701
:104E8000B1FE03E001208DF81B00FFE7FFE7FFE71D
:104E9000FFE7FFE7FFE79DF81B0008B080BD0000BB
:104EA00081B000900098C16821F04001C16001B05C
:104EB0007047000081B000900098C16821F0800127
:104EC000C16001B07047000081B000900098C168D7
:104ED00041F40051C16001B07047000081B0009002
:104EE0000098416941F04001416101B07047000004
:104EF00081B000900098416941F08001416101B0AA
:104F00007047000081B000900098C16841F0100126
:104F1000C16001B07047000081B000900098C16886
:104F200041F02001C16001B07047000081B00090E5
:104F30000098C16841F04001C16001B070470000B5
:104F400080B588B00790069101208DF817000020E9
:104F50000490079800F0D4F800287CD1FFE7079868
:104F6000C06849F20C61884306994A68CB68D1F859
:104F700010C089691A4342EA0C0211430843079999
:104F8000C86007980699896800F07AF90798069929
:104F9000496900F067F96846FFF7ECF8079841F2B5
:104FA0000001C4F20101884203D1FFE70398049095
:104FB0003CE0079844F20041C4F20001884203D16A
:104FC000FFE70298049030E0079844F60001C4F22D
:104FD0000001884203D1FFE70298049024E007987B
:104FE00041F20041C4F20101884203D1FFE7039876
:104FF000049018E0079844F60041C4F2000188428A
:1050000003D1FFE7029804900CE0079845F20001F5
:10501000C4F20001884203D1FFE70298049000E047
:10502000FFE7FFE7FFE7FFE7FFE7FFE70498002858
:1050300010D0FFE70698006800280BD0FFE700209B
:105040008DF8170007980499069A1368926900F082
:10505000A7F8FFE7FFE79DF8170008B080BD000044
:1050600081B0009000980068C0F3400001B0704724
:1050700081B0009000980068C0F3001001B0704744
:1050800081B0009000980068C0F3002001B0704724
:1050900081B0009000980068C0F3800001B07047B4
:1050A00081B0009000980068C0F3C00001B0704764
:1050B00081B000900098006800F0010001B07047D6
:1050C00081B0009000980068C0F3401001B07047B4
:1050D00081B0009000980068C0F3801001B0704764
:1050E00081B0009000980068C0B2C00901B070475C
:1050F00081B0009000980068C0F3402001B0704774
:1051000081B000900098C068C0F3403001B0704793
:1051100081B0009000984069C0F3802001B07047D2
:1051200081B000900098406900F0010001B0704724
:1051300081B000900098C068C0F3001001B07047C3
:1051400081B0009000980069C0F3801001B07047F2
:1051500081B000900098C068C0F3002001B0704793
:1051600081B000900098C068C0F3401001B0704753
:1051700081B000900098C068C0F3801001B0704703
:1051800081B000900098C068C0B2C00901B07047FB
:1051900081B0009000984068C0B201B07047000034
:1051A00080B586B005900491039202930398B0F500
:1051B000004F2AD1FFE704981921A0FB0101029AB0
:1051C0005300D20F01921A46019BFAF7F9FF48F2F9
:1051D0001F51C5F2EB11A0FB01235B094FEA031C31
:1051E0004FF0640E03FB1E00322303EBC000A0FB54
:1051F0000101F82303EA51130CEB4303C1F34211FD
:10520000194489B2059B996029E004981921A0FBF3
:105210000101029A9300920F00921A46009BFAF73E
:10522000CFFF48F21F51C5F2EB11A0FB01235B0930
:105230004FF0640C03FB1C004FF0320C0CEB001021
:10524000A0FB01014FF0F00C0CEA511C0CEB031316
:10525000C1F34311194489B2059B9960FFE706B079
:1052600080BD000082B0019000910198406920F457
:105270004070009908430199486102B070470000EE
:1052800082B0019000910198006920F4405000998B
:1052900008430199086102B07047000082B00A46D5
:1052A00001908DF803109DF803000199486002B049
:1052B0007047000081B0009000986FF0010181609C
:1052C00001B0704780B586B0DDF820C0059004912C
:1052D000039202938DF807C005980499039A029BE4
:1052E0009DF807C0EE46CEF800C000F045F906B0C4
:1052F00080BD000080B586B0DDF820C00590049127
:10530000039202938DF807C005980499039A029BB3
:105310009DF807C0EE46CEF800C0FFF7D3FF06B0F9
:1053200080BD000080B586B00B4605908DF8131047
:10533000039200208DF80B0005981C300121019389
:10534000FCF724FC8DF80B009DF80B00002804D01E
:10535000FFE701208DF80B002FE005981C309DF829
:1053600013100022FCF728FC8DF80B009DF80B00B1
:10537000002804D0FFE702208DF80B001DE00598FF
:105380001C300021FCF702FC8DF80B009DF80B008F
:10539000002804D0FFE703208DF80B000DE00598EE
:1053A0001C300121FCF71EFC8DF80B0005981C3009
:1053B000FCF7E4FB03990870FFE705981C30FCF745
:1053C000F3FB9DF80B100090084606B080BD00006E
:1053D00080B586B013468C4605908DF813108DF875
:1053E000122000208DF8110005981C300121039334
:1053F000CDF808C0FCF7CAFB8DF811009DF811002C
:10540000002804D0FFE701208DF811001BE005986B
:105410001C309DF813100022FCF7CEFB8DF8110014
:105420009DF81100002804D0FFE702208DF811003C
:1054300009E005981C309DF812100122FCF7BCFB16
:105440008DF81100FFE705981C30FCF7ADFB9DF8C7
:1054500011100190084606B080BD000080B584B0F0
:10546000029000208DF8070002980DF1070100F06E
:10547000F5F88DF806009DF80600002805D1FFE735
:105480009DF80700682804D0FFE701208DF80F0081
:105490002FE002986B21002200F0C8F98DF8060079
:1054A0000298132100F0AEF98DF80600029804214D
:1054B00000F074F98DF806000298102100F006F94A
:1054C0008DF806000298182100F034F98DF80600D6
:1054D00002983721802200F0A9F98DF80600029881
:1054E0003821012200F0A2F99DF806108DF80F1066
:1054F000FFE79DF80F0004B080BD000081B0009070
:10550000009800218164009840F20042C4F2020237
:10551000C26100984FF48073036200984262009861
:105520004FF400728262009880F82C100098C185B8
:105530000098C1630098D0220286009840F640523D
:10554000C0F203024263009804220264009845F20C
:105550000042C4F200028264084601B070470000B5
:1055600081B00090012001B07047000081B0009030
:10557000012001B07047000080B588B0DDF828C078
:1055800006900591049203938DF80BC000208DF8CE
:105590000A00069800280DD0FFE7069840F2300177
:1055A000C2F200010968884204D1FFE70698FFF7BC
:1055B000A5FF1DE00698002808D0FFE70698002800
:1055C00004D1FFE70698FFF7CBFF10E0069800280C
:1055D00008D0FFE70698002804D1FFE70698FFF7F8
:1055E000C5FF03E001208DF81F0032E0FFE7FFE771
:1055F0009DF80B00002809D0FFE706981C3005999C
:10560000039AFCF7AFFA8DF80A0008E006981C3000
:105610000599039AFCF7F4FA8DF80A00FFE704985D
:10562000002803D0FFE70498019005E040F68D7054
:10563000C0F600000190FFE70198069948660698B9
:10564000FFF70CFF8DF80A009DF80A008DF81F0087
:10565000FFE79DF81F0008B080BD000080B582B054
:10566000019000910198009A752100F003F802B0B2
:1056700080BD000080B586B00B4604908DF80F10F9
:105680000292049890F82C00002811D0FFE70498AB
:105690001C30FCF75FFA04999DF80F20029B0190E3
:1056A000084611461A46FFF73DFE8DF8170008E040
:1056B00004989DF80F10029A00F0E8F88DF8170092
:1056C000FFE79DF8170006B080BD000080B584B0EC
:1056D0000A4603908DF80B1000208DF80A000398FD
:1056E0001C210DF10A0301921A46FFF7C3FF8DF842
:1056F00009009DF80900002818D1FFE79DF80B006C
:105700009DF80A1021EA00008DF80A009DF80B00B0
:105710009DF80A1008438DF80A0003989DF80A20A6
:105720001C2100F083F88DF80900FFE79DF80900BF
:1057300004B080BD80B584B00A4603908DF80B108C
:1057400000208DF80A0003981B210DF10A03019235
:105750001A46FFF78FFF8DF809009DF80900002811
:1057600018D1FFE79DF80B009DF80A1021EA000010
:105770008DF80A009DF80B009DF80A1008438DF87B
:105780000A0003989DF80A201B2100F04FF88DF8BD
:105790000900FFE79DF8090004B080BD80B584B022
:1057A0000A4603908DF80B1000208DF80A0003982C
:1057B0001A210DF10A0301921A46FFF75BFF8DF8DB
:1057C00009009DF80900002818D1FFE79DF80B009B
:1057D0009DF80A1021EA00008DF80A009DF80B00E0
:1057E0009DF80A1008438DF80A0003989DF80A20D6
:1057F0001A2100F01BF88DF80900FFE79DF8090059
:1058000004B080BD80B584B00A4603908DF80B10BB
:1058100003989DF80B10192301911946019B0092E2
:105820001A4600F003F804B080BD000080B584B0D3
:1058300013468C4602908DF807108DF806200298CA
:1058400090F82C00002812D0FFE702981C30FCF7DB
:1058500081F902999DF807209DF8063000900846CE
:1058600011461A46FFF7B4FD8DF80F0009E00298C3
:105870009DF807109DF8062000F062F88DF80F00E3
:10588000FFE79DF80F0004B080BD000080B588B030
:105890000B4607908DF81B10059200208DF8130021
:1058A00007981C3001210393FCF7C6F98DF813000B
:1058B0009DF81300002804D0FFE701208DF81300A5
:1058C00034E007981C309DF81B10FCF7D9F90799B4
:1058D0001C3102900846FCF79FF98DF813009DF8E3
:1058E0001300002804D0FFE702208DF813001DE00C
:1058F00007981C300021FCF79FF98DF813009DF8E4
:105900001300002804D0FFE703208DF813000DE0FA
:1059100007981C30FCF788F90599087007981C3027
:105920000121FCF79FF98DF81300FFE707981C3061
:10593000FCF790F99DF813100190084608B080BD5F
:1059400080B588B013468C4607908DF81B108DF8F3
:105950001A2000208DF8190007981C3001210593AA
:10596000CDF810C0FCF768F98DF819009DF8190002
:10597000002804D0FFE701208DF8190025E00798E2
:105980001C309DF81B10FCF77BF907991C31039024
:105990000846FCF741F98DF819009DF81900002818
:1059A00004D0FFE702208DF819000EE007981C30A4
:1059B0009DF81A10FCF764F907991C31029008460B
:1059C000FCF72AF98DF81900FFE707981C30FCF75F
:1059D00041F99DF819100190084608B080BD0000FB
:1059E000FFE7FEE780B582B040F20800C2F2000097
:1059F000C16800224FF420730190084611460092BE
:105A00001A4600F00DF8019880684FF42052009972
:105A100000F006F801200199087402B080BD000072
:105A200084B00B4603908DF80B1001920398009000
:105A3000FFE70198411E0191002807D0FFE79DF87C
:105A40000B0000994A1C00920870F2E704B07047FE
:105A500083B0002002900190FFE70198800904289C
:105A600014D8FFE740F20800C2F20000C0680199B4
:105A700030F81100002804D0FFE7029801300290AE
:105A8000FFE7FFE7019801300190E6E70298642103
:105A900048434CF6CD41CCF6CC41A0FB0101C1F30B
:105AA00007210090084603B07047000080B5FBF75F
:105AB00067F880BD88B0079006910592079800F0BE
:105AC000070004900498C0F10700052803D3FFE7FE
:105AD0000420019004E00498C0F107000190FFE762
