:020000040800F2
:10000000B03F00209D010008D56D00085917000879
:10001000096D00089D0D0008CD9200080000000049
:10002000000000000000000000000000A1730008B4
:10003000E912000800000000E9700008FD780008DF
:1000400029960008C9700008B7010008B701000828
:10005000B7010008B9710008B7010008B70100082E
:10006000B7010008B7010008B7010008B701000890
:10007000B7010008B7010008B7010008B701000880
:10008000B7010008B7010008B7010008B701000870
:10009000B7010008B7010008B7010008B701000860
:1000A000B7010008B7010008B7010008B701000850
:1000B0000D7E0008B7010008B7010008B70100086D
:1000C000B7010008B7010008B7010008B701000830
:1000D000B7010008497F0008B7010008B701000810
:1000E000B7010008B7010008B7010008B701000810
:1000F000B7010008B7010008B7010008B701000800
:10010000B7010008B7010008B7010008B7010008EF
:10011000B7010008B7010008B7010008B7010008DF
:10012000111200086D12000871120008B7010008D2
:10013000B7010008B7010008B7010008B7010008BF
:10014000B7010008B7010008B7010008B7010008AF
:10015000B7010008B7010008AD120008B701000898
:10016000B7010008B7010008B7010008B70100088F
:10017000B7010008B7010008B7010008000000003F
:1001800051170008B7010008DFF80CD000F0E8FABA
:10019000004800472D990008B03F002006488047DE
:1001A00006480047FEE7FEE7FEE7FEE7FEE7FEE75C
:1001B000FEE7FEE7FEE7FEE79D7D000889010008F7
:1001C0002DE9F05F0546002092469B46884606468C
:1001D000814640241BE0284641464746224600F01F
:1001E0000FFA53465A46C01A914110D31146184689
:1001F000224600F0F6F92D1A67EB01084F46224619
:100200000120002100F0EDF917EB00094E41201EFE
:10021000A4F10104DFDC484631462A464346BDE8E6
:10022000F09FD2B201E000F8012B491EFBD27047CB
:100230000022F6E710B513460A4604461946FFF7B2
:10024000F0FF204610BD2DE9FE4F804681EA0300F5
:10025000C00F0C46009021F0004123F00045B8EBA0
:100260000200A94105D24046214690461C460B4655
:10027000024623F00040104347D0270DC7F30A0081
:10028000C3F30A510290401A019040286BDAC3F37D
:10029000130040F4801B0098924620B10023D2EB5B
:1002A000030A63EB0B0B01985946C0F1400250461C
:1002B00000F097F906460D4650465946019A00F05F
:1002C000AFF910EB08006141002487EA115284EA7B
:1002D000E7731A4340D0009A62B3019A012A4FEAA9
:1002E000075215DC001B61EB02014FF0004202EAED
:1002F0000752CDE90042001C41F5801132462B46E1
:1003000000F0AFF903B0BDE8F08F40462146F9E7B1
:10031000001B61EB0201001C41F5801300185B41DA
:100320002018A2F5001747EB030140EAD570B61973
:100330006D4111E06D084FEA360645EAC0754FEA97
:100340000752001B61EB0201001C41F580114908B6
:100350004FEA30000019514132462B4603B0BDE848
:10036000F04F00F06FB90098012240000023D0EB5D
:10037000020263EBE073009821464FEAE074B8EBA9
:10038000000061EB0401E9E783F000435BE781F0E3
:10039000004158E72DE9FE4F81EA030404F00044D0
:1003A00021F0004100944FF0000B23F0004350EA8D
:1003B00001045ED052EA03045BD0C3F30A54C1F3D4
:1003C0000A552C44A4F2F3340194A0FB0254C1F367
:1003D000130141F48011C3F3130343F4801301FBB1
:1003E000024400FB034E840A970A44EA815447EA18
:1003F0008357A4FB076802958D0A05FB07854FEA22
:10040000932C04FB0C542705029D4FEA065847EA3B
:100410001637B5EB08056EEB070C870E920E47EA10
:10042000811742EA8312A7FB0201B6EB0B0164EBD2
:1004300000042B0D43EA0C335E1844EB1C50DA46E3
:100440005146E7FB0201C5F313044FEA0B3343EABD
:1004500014534FEA0432019C43EA0603A4F10C044E
:100460000294009CCDE900B400F0FBF803B0BDE8B5
:10047000F08F00200146F9E72DE9F04D81EA0304F1
:1004800004F0004B21F0004514464FF0000A23F021
:10049000004150EA050220D054EA01021DD0C5F304
:1004A0000A570246C5F31303C1F31300C1F30A56FA
:1004B00040F4801543F48013A7EB0608101BD646C2
:1004C00008F2FD3873EB050002D308F1010801E0E2
:1004D00092185B41B8F1000F03DA00200146BDE835
:1004E000F08D00204FF48011064684460EE0171B65
:1004F00073EB050705D3121B63EB050306434CEAB8
:10050000010C49084FEA300092185B4150EA01079C
:10051000EDD152EA030012D082EA040083EA050119
:10052000084305D0101BAB4106D20122002306E090
:1005300000224FF0004302E06FF0010253101AEB6B
:1005400006004CEB085110EB0A0041EB0B01BDE833
:10055000F04D00F077B80EB5C10F80EAE0700844A6
:10056000CA07002140F233438DE80E000A460B46CD
:1005700000F077F803B000BD70B5C1F30A5201F086
:1005800000450024C1F3130140F2FF3341F4801110
:100590009A4201DA002070BD40F233439A42A2F23F
:1005A000334203DC524200F02BF800E090402C4331
:1005B000F1D0404270BD30B50B46014600202022EC
:1005C000012409E021FA02F59D4205D303FA02F560
:1005D000491B04FA02F52844151EA2F10102F1DCC0
:1005E00030BD202A04DB203A00FA02F100207047D7
:1005F0009140C2F1200320FA03F319439040704761
:10060000202A04DB203A21FA02F00021704721FA67
:1006100002F3D040C2F120029140084319467047CE
:10062000202A06DBCB17203A41FA02F043EAE073B6
:1006300006E041FA02F3D040C2F1200291400843A3
:100640001946704710B5141E73F1000408DA401CF7
:1006500041F1000192185B411A4301D120F00100E1
:1006600010BD2DE9F04D92469B4611B1B1FA81F2D1
:1006700002E0B0FA80F220329046FFF7B2FF044663
:100680000F4640EA0A0041EA0B0153465A46084326
:1006900013D0114653EA010019D0C8F14002504668
:1006A000FFF7AEFF05460E46504659464246FFF755
:1006B00098FF084305D0012004E020463946BDE8F4
:1006C000F08D0020054346EAE0762C4337430A9834
:1006D0006305E40AA0EB08000022FD0A44EA47543F
:1006E0000A3002D500200146E9E7010510196941E9
:1006F000DDE9084500196941BDE8F04DA2E7C1F305
:100700000A52C1F3130140F2FF3341F480119A42BF
:1007100002DA00200146704740F233439A42A2F2C7
:10072000334202DC5242FFF76BBFFFF75ABF0000B3
:1007300030B5041E71F1000404DB4FF00044404268
:1007400064EB0101141E73F1000405DB1C464FF03D
:100750000043524263EB0403994208BF904230BD0C
:10076000064C074D06E0E06840F0010394E80700FE
:1007700098471034AC42F6D3FFF70AFD24A30008D3
:1007800044A3000880B582B00190019800F080F980
:1007900002B080BD80B582B00190019800F0CCF924
:1007A00002B080BD80B500F009FA80BD80B582B08E
:1007B0000190019800F08EFA02B080BD80B582B041
:1007C00001900198FFF7DEFF02B080BD80B582B0D6
:1007D00001900198FFF7DEFF02B080BD80B5FFF702
:1007E000E1FF80BD80B582B001900198FFF7DEFF88
:1007F00002B080BD80B582B000F008F8019000F032
:10080000A1F800210090084602B080BD80B598B0E4
:1008100046F20040C4F2020000210890079104F063
:1008200061FF4FF480010690084604F001FB09A81F
:100830003C210590FFF7FCFC0798129012211191C2
:100840000B9014900121159140F21C02C2F200029B
:10085000126806320A924FF4005210924FF48062EE
:100860000E920C9042F24C02C4F2010209921790CF
:100870004FF400620F920D904FF4003213920898DB
:10088000079A04911146059A05F098F90899039082
:100890000846079905F062F908F022FF0499079AC3
:1008A00006F09CFA382102900846029A01911146FE
:1008B00008F03EFF019808F0C5FE0898079905F07A
:1008C0002DF9079818B080BD80B584B046F200407D
:1008D000C4F20200002112220390029105F022FAD4
:1008E0000398029905F03AF942F20000C4F20100BF
:1008F000019004F097F901980299029A00F02EFAFB
:1009000002990090084604B080BD000080B584B014
:1009100046F20040C4F2020000210390029105F06B
:10092000DDF80398029904F0A9FC42F20000C4F239
:100930000100019004F06CF9019804F085F8029828
:1009400004B080BD80B594B0002013901290119037
:1009500010900F900E900D900C900B900A900990B3
:10096000089042F20001C4F2010107900846069186
:1009700004F0CCF80121069A0590104600F028F901
:100980000799119112914FF48072139211A9069A4E
:100990000490104604F05EF907990C910D910E91A8
:1009A00002220F924FF4407210920CA9069A039003
:1009B000104604F085F94FF44031089107990991E8
:1009C0000B9142F20032C4F2010208A902901046D3
:1009D00004F042F84FF400710A22069B0190184679
:1009E000009204F0C5F907220698009904F0F6F980
:1009F000069804F017F9079814B080BD80B586B04A
:100A000046F20040C4F20200012112220590049136
:100A100005F088F90598049905F0A0F842F2002045
:100A2000C4F20100039004F0FDF800200290029946
:100A3000039A00F093F902990190084606B080BD30
:100A400080B582B046F20040C4F20200012101905C
:100A500005F044F8019804F04FFD019804F094FD6E
:100A600042F20020C4F20100009004F0D1F8009896
:100A700003F0EAFF002002B080BD000080B582B024
:100A8000FFF7B8FE00210190084602B080BD0000CB
:100A900080B582B00090009842F20001C4F20101DA
:100AA000884216D1FFE740F21C00C2F20000016844
:100AB00000220A700068C282C0F81220C0F80E201E
:100AC000C0F80A20C0F80620FFF7FEFE8DF80700E8
:100AD0002DE0009842F20011C4F20101884204D1D5
:100AE000FFE700208DF8070021E0009842F2002186
:100AF000C4F20101884216D1FFE740F22000C2F2A1
:100B00000000016800220A700068C282C0F812204A
:100B1000C0F80E20C0F80A20C0F80620FFF76EFFCC
:100B20008DF8070003E000208DF80700FFE79DF82F
:100B3000070002B080BD000080B582B00090009830
:100B400042F20001C4F2010188420DD1FFE740F2F8
:100B50001C00C2F200000068017801310170FFF74B
:100B6000D5FE8DF8070024E0009842F20011C4F28F
:100B70000101884204D1FFE700208DF8070018E04A
:100B8000009842F20021C4F2010188420DD1FFE732
:100B900040F22000C2F200000068017801310170CB
:100BA000FFF74EFF8DF8070003E000208DF80700E7
:100BB000FFE79DF8070002B080BD000080B582B05D
:100BC00000F064F80190FFF759FF02B080BD00000B
:100BD00080B584B00A4602908DF80710029800286C
:100BE00004D1FFE701208DF80F004BE0029842F29C
:100BF0000001C4F20101884210D1FFE79DF807000F
:100C0000002805D0FFE74FF4807004F041FA04E0BB
:100C10004FF4807004F020FAFFE7FFE7029842F2F9
:100C20000011C4F20101884210D1FFE79DF80700CE
:100C3000002805D0FFE74FF4007004F029FA04E023
:100C40004FF4007004F008FAFFE7FFE7029842F261
:100C50000021C4F20101884210D1FFE79DF807008E
:100C6000002805D0FFE74FF4806004F011FA04E09B
:100C70004FF4806004F0F0F9FFE7FFE700208DF803
:100C80000F00FFE79DF80F0004B080BD80B58AB06B
:100C900040F60000C4F2020001210390029100F02E
:100CA0001FFC002009900890079006900590049082
:100CB00002990491032205920222089204A9039A40
:100CC0000190104605F0ECF80199009008460AB032
:100CD00080BD000080B59AB0199000208DF86300A7
:100CE0000DF13E0124220490084611460392FFF7BD
:100CF0009FFA0DF11A000399FFF79AFA1998063036
:100D0000059004988DF86300FFE79DF863001128B3
:100D100012DCFFE7059800889DF863100DF13E0294
:100D200022F81100059802300590FFE79DF8630056
:100D300001308DF86300E8E70DF13E0012210290CA
:100D400000F060FB10210222029B0190184600F087
:100D500087F81999488000201AB080BD80B584B00A
:100D60000390029101920398002804D0FFE70398B2
:100D700004F02AF8FFE70298002804D0FFE7029861
:100D800004F022F8FFE70198002804D0FFE701985B
:100D900004F01AF8FFE7002004B080BDFFE7FEE78B
:100DA00080B500F01BF880BD80B500F01DF880BD57
:100DB00080B5FFF7F5FF80BD80B5FFF7F5FF80BD7B
:100DC00080B543F20000C4F2020004F0B1F940F231
:100DD0000401C2F2000101220A7080BD40F2040049
:100DE000C2F200000078704780B5FFF7E9FF4FF4CA
:100DF000805004F02FF840F20400C2F200000021FD
:100E0000017080BD80B500F00DF880BD80B500F0A8
:100E100017F880BD80B5FFF7F5FF80BD80B5FFF7FF
:100E2000F5FF80BD80B505F09FFA002807D0FFE7E9
:100E300005F088FA05F02EFA05F00EFAFFE780BDFE
:100E400080B505F099FA002808D0FFE705F018FAF8
:100E500005F00CFA08F066FD08F050FD80BD0000BA
:100E600080B588B004AB94468E460790ADF81A1052
:100E7000ADF81820002005900490ADF80E00BDF8E4
:100E80001800ADF80E000293FFE7BDF80E00BDF8A4
:100E90001A1088421EDAFFE70798BDF80E1030F8E6
:100EA0001100FFF758FB41EC100B029890ED001B6E
:100EB00053EC102B51EC110BFFF7C5F941EC100B63
:100EC000029880ED000BFFE7BDF80E000130ADF891
:100ED0000E00DAE704980599BDF81A20BDF818301D
:100EE000D21A019010460091FFF735FB41EC100B30
:100EF00053EC102B01980099FFF7BEFA41EC100B50
:100F000051EC100BFFF738FB08B080BD80B584B002
:100F100002468DF80F0002919DF80F000299019290
:100F200000F034F804B080BD80B584B00A460346B2
:100F30008DF80F008DF80E109DF80F009DF80E1023
:100F40000292019300F034F904B080BD80B584B002
:100F500002468DF80F0002919DF80F000299019250
:100F6000FFF7D4FF04B080BD80B584B00A460346C5
:100F70008DF80F008DF80E109DF80F009DF80E10E3
:100F800002920193FFF7D0FF04B080BD80B584B01A
:100F900002468DF80F0002919DF80F0002994FF460
:100FA0007A735943019200F003F804B080BD000049
:100FB00080B584B002468DF80F00029100200190A8
:100FC000029845F6A121C0F23201884206D3FFE71C
:100FD00045F6A020C0F232000290FFE702984008D8
:100FE0004CF61771CAF29E21A0FB0101090A01917A
:100FF0000199B1F5805F04D3FFE740F6FF700190DF
:10100000FFE70198B0F57A7F04D9FFE7019804382B
:101010000190FFE79DF80F00032813D1FFE7019A25
:1010200047F20040C4F200000121C0F210210090FC
:1010300004F09EF8019A1221C1F24351009804F085
:1010400097F81BE09DF80F0002280BD1FFE7019AEB
:1010500047F20040C4F200000121C0F2102104F068
:1010600087F80AE0019A47F20040C4F2000001212B
:10107000C0F2102104F07CF8FFE7FFE7002004B085
:1010800080BD000080B58AB00A4603468DF827006F
:101090008DF8261000200890079006900590049087
:1010A0003821049105909DF82600012803D1FFE71F
:1010B0000020079002E002200790FFE79DF827003C
:1010C000022805D1FFE71220C1F24350089004E046
:1010D0000120C0F210200890FFE7089947F2004075
:1010E000C4F2000004AA039004F06AF80899039A75
:1010F0000290104604F054F808990020039A0190D9
:101100001046019A04F034F801980AB080BD00003E
:1011100080B582B001468DF807009DF807000028D1
:1011200005D0FFE74FF0005003F058FF04E04FF008
:10113000005003F025FFFFE7002002B080BD000053
:1011400080B58AB001468DF827000020C4F2020065
:1011500001220291114600F0C3F900200890079087
:1011600006900590049003909DF82700032803D172
:10117000FFE7302003900BE09DF82700022803D101
:10118000FFE72020039002E010200390FFE7FFE735
:1011900003200490022007900020C4F2020003A95B
:1011A00004F07EFE0021019008460AB080BD0000D8
:1011B00080B586B00A4603468DF817008DF81610E4
:1011C0009DF8170004920393FFF7BAFF01210290E4
:1011D0000846FFF79DFF9DF8171003290DD1FFE783
:1011E0009DF816100120FFF74DFF9DF81610022202
:1011F00001901046FFF746FF06E09DF817009DF8A6
:101200001610FFF73FFFFFE7002006B080BD00008B
:1012100080B584B046F20040C4F2020004F02AFD1A
:10122000002820D0FFE746F20040C4F2020000216F
:1012300004F038FD002816D0FFE740F21C00C2F28F
:1012400000000068FFF7CEFA42F20001C4F201018B
:10125000039008460291FFF7B9FA029901900846F7
:10126000FFF7ACFAFFE704B080BD00007047000054
:1012700080B546F20040C4F2020004F003FD0028ED
:1012800012D0FFE746F20040C4F20200022104F04F
:1012900009FD002808D0FFE740F23400C2F2000048
:1012A000006807F06FF8FFE780BD000080B546F2E8
:1012B0000040C4F2020004F0EDFC002812D0FFE769
:1012C00046F20040C4F20200072104F0EBFC0028C3
:1012D00008D0FFE740F23400C2F20000006807F0D7
:1012E00059F8FFE780BD00007047000080B582B06C
:1012F0000190019800F056F802B080BD80B582B030
:101300000190019800F01AF802B080BD80B582B05B
:101310000190019800280FD0FFE7FFE70198411ED8
:101320000191002807D0FFE74FF47A7000F006F82B
:1013300000F0B4FDF2E7FFE702B080BD80B584B0F5
:101340000390039800281AD0FFE7039844F6D3517E
:10135000C1F26201A0FB01029209029010460191C4
:1013600000F020F803980199A0FB01239B094FF49A
:101370007A7C03FB1C00009206F040F9FFE704B002
:1013800080BD000080B582B001900198FFF7AEFFEC
:1013900002B080BD80B582B001900198FFF7AEFF2A
:1013A00002B080BD80B582B00190019800280ED0B7
:1013B000FFE706F00BF9002804D1FFE7019806F0DB
:1013C00009F903E00198FFF7A1FFFFE7FFE702B08B
:1013D00080BD000080B582B00190019800280ED039
:1013E000FFE708F09FFAFFE70198411E01910028EE
:1013F00002D0FFE700BFF7E708F096FAFFE702B078
:1014000080BD000084B00A460390ADF80A100020A9
:10141000ADF80800ADF80600BDF80A100139ADF8C6
:101420000410ADF80800FFE7BDF80800BDF804108F
:1014300088423FDAFFE70020ADF80600FFE7BDF87D
:101440000600BDF80410BDF80820891A88422ADA7F
:10145000FFE70398BDF8061000EB410230F81100D9
:101460005188884218DAFFE70398BDF8061000EBB0
:1014700041004088ADF802000398BDF8061000EB6B
:10148000410230F811005080BDF802000399BDF808
:10149000062021F81200FFE7FFE7BDF80600013043
:1014A000ADF80600CBE7FFE7BDF808000130ADF866
:1014B0000800B9E7002004B07047000080B584B090
:1014C0000A4603908DF80B1003989DF80B100192BB
:1014D00000F018F804B080BD80B500F0E3F880BDDE
:1014E00080B584B00A4603908DF80B1003989DF8E0
:1014F0000B100192FFF7E2FF04B080BD80B5FFF74B
:10150000EBFF80BD80B582B00A4601908DF80310D4
:1015100001980021C4F2020188420ED1FFE79DF834
:101520000300002804D0FFE7012003F0A5FC03E03E
:10153000012003F06FFCFFE7B1E0019840F20041A9
:10154000C4F2020188420ED1FFE79DF80300002893
:1015500004D0FFE7022003F08FFC03E0022003F039
:1015600059FCFFE79BE0019840F60001C4F202013C
:1015700088420ED1FFE79DF80300002804D0FFE762
:10158000042003F079FC03E0042003F043FCFFE7B0
:1015900085E0019840F60041C4F2020188420ED174
:1015A000FFE79DF80300002804D0FFE7082003F0C0
:1015B00063FC03E0082003F02DFCFFE76FE00198D7
:1015C00041F20001C4F2020188420ED1FFE79DF80A
:1015D0000300002804D0FFE7102003F04DFC03E0D7
:1015E000102003F017FCFFE759E0019841F2004199
:1015F000C4F2020188420ED1FFE79DF803000028E3
:1016000004D0FFE7202003F037FC03E0202003F0A4
:1016100001FCFFE743E0019841F60001C4F202013A
:1016200088420ED1FFE79DF80300002804D0FFE7B1
:10163000402003F021FC03E0402003F0EBFBFFE738
:101640002DE0019841F60041C4F2020188420ED11A
:10165000FFE79DF80300002804D0FFE7802003F097
:101660000BFC03E0802003F0D5FBFFE717E00198B7
:1016700042F20001C4F20201884210D1FFE79DF856
:101680000300002805D0FFE74FF4807003F0F4FB5F
:1016900004E04FF4807003F0BDFBFFE7FFE702B00A
:1016A00080BD000080B582B00020C4F2020001219C
:1016B0000191FFF727FF40F20040C4F202000199B8
:1016C000FFF720FF40F60000C4F202000199FFF787
:1016D00019FF40F60040C4F202000199FFF712FF23
:1016E00041F20000C4F202000199FFF70BFF41F242
:1016F0000040C4F202000199FFF704FF41F6000028
:10170000C4F202000199FFF7FDFE41F60040C4F269
:1017100002000199FFF7F6FE42F20000C4F2020057
:101720000199FFF7EFFE4FF4804003F0C3FC02B0D5
:1017300080BD000040F23C00C2F20000007842F69A
:10174000A871C2F200010A681044086070470000E6
:1017500080B505F08BFD80BD80B500F003F8FFE794
:10176000FEE700001EF0040F0CBFEFF30880EFF35C
:10177000098000F001B8704781B0009040F2241059
:10178000C2F200000021C161816141610161C1605B
:1017900081604160016000990968016000994968B1
:1017A00041600099896881600099C968C1600099A9
:1017B00009690161009949694161009989698161FB
:1017C0000099C969C16101BE01B0704780B582B09E
:1017D000019000910198009900F07CF802B080BD62
:1017E00080B582B00190019800F0C8F802B080BDC9
:1017F00080B584B00A4603908DF80B1003980192CF
:1018000000F0F6F89DF80B10002906D0FFE70398CA
:10181000018B01F0FE01018305E00398018B41F08B
:1018200001010183FFE70398017E00F09DF9039910
:101830000090084600F0A2F804B080BD80B582B0E8
:101840000190019800F018F902B080BD80B584B015
:101850000A4603908DF80B1003989DF80B10019227
:1018600000F082F904B080BD80B582B00190009193
:1018700001980099FFF7AAFF02B080BD80B582B041
:1018800001900198FFF7ACFF02B080BD80B584B035
:101890000A4603908DF80B1003989DF80B100192E7
:1018A000FFF7A6FF04B080BD80B582B0019001981B
:1018B000FFF7C4FF02B080BD80B584B00A46039034
:1018C0008DF80B1003989DF80B100192FFF7BEFFE7
:1018D00004B080BD80B58EB00D900C910D9840681D
:1018E00001210591FFF7FCFD0D98C0680599FFF7F0
:1018F000F7FD0D984168806804900846049904F04B
:10190000C9FB0D98C168006903900846039904F06B
:10191000C1FB00200B900A90099008900790069058
:101920000D998968069105990791022208920991FB
:101930000A910B900D98406806AA1146029204F095
:10194000AFFA0D99096906910D99C9680190084689
:10195000029904F0A5FA0C99002904D0FFE70C982D
:101960000D99086206E00D9841F29531C0F600012C
:101970000162FFE700200EB080BD000080B586B098
:10198000059000208DF813000598C1680069039048
:101990000846039904F07EFB059841688068029030
:1019A0000846029904F076FB0598C08A012805DBF9
:1019B000FFE70598016AC08A8847FFE70598C16874
:1019C000006901900846019904F0D4FA002818BF74
:1019D00001208DF813000598416880680090084642
:1019E000009904F0EDFA9DF8130006B080BD0000E8
:1019F00080B586B005900598C168006904900846D6
:101A0000049904F047FB05984168806803900846F4
:101A1000039904F03FFB0598C08A012805DBFFE726
:101A20000598016AC08A8847FFE70598C168006980
:101A300002900846029904F0C3FA0598C08A01286A
:101A400005DBFFE70598016AC08A8847FFE705982C
:101A50004168806801900846019904F0B1FA059840
:101A6000C168006900900846009904F083FA0028D4
:101A700018BF012006B080BD80B586B005900598DE
:101A8000C168006904900846049904F099FA059821
:101A90004168806803900846039904F0FBFA0598B2
:101AA000C08A012805DBFFE70598016AC08A8847DC
:101AB000FFE70598C168006902900846029904F0A2
:101AC000E9FA0598C08A012805DBFFE70598016A55
:101AD000C08A8847FFE70598C168006901900846F9
:101AE000019904F047FAB0FA80F0400906B080BDD1
:101AF00080B586B00A4605908DF813109DF8130046
:101B00000006002809D5FFE70598C1680069039021
:101B10000846039904F0BEFA08E00598C168006918
:101B200002900846029904F04BFAFFE705984168D5
:101B3000806801900846019904F0ACFA0598016AA2
:101B4000C08A88470220FFF745FC059841688068F5
:101B500000900846009904F033FA0598016AC08A9B
:101B60008847002006B080BD80B584B00A46039047
:101B70008DF80B1000208DF80A0003994B688968D6
:101B800001901846009204F01BFA01988DF80A00A3
:101B9000FFE79DF80A00072811DCFFE703989DF88E
:101BA0000B10FFF7A5FF9DF80B1049008DF80B10E7
:101BB000FFE79DF80A0001308DF80A00E9E70020F0
:101BC00004B080BD80B584B003900291019200936F
:101BD00003980299019A009B00F0C4F804B080BDFC
:101BE00080B584B00390029101920093039802990A
:101BF000019A009BFFF7E6FF04B080BD81B0009022
:101C00000098002101700098417000980F228270A6
:101C10000098416200984171009881710098C171EB
:101C2000009801810098818100984FF4FA72C28275
:101C30000098C0F80E100098C0F81210009840F6F6
:101C40000042C4F20202C26100984FF48062026254
:101C5000009841F6B542C0F600028267009840F253
:101C60000042C4F20202826300984FF40052C26341
:101C7000009840F60002C4F20202026300980423B6
:101C800043630098826200980822C262009805228D
:101C90008266009843F60002C4F200028264009853
:101CA000C166009880F84E10009880F84F100846E2
:101CB00001B0704780B588B001468DF81F009DF8CF
:101CC0001F00012816D1FFE740F20040C4F20200D5
:101CD00002210690059104F07DF90421069804F094
:101CE00079F90698059904F075F90698059904F0B4
:101CF000D9F929E09DF81F00022812D1FFE740F230
:101D00000040C4F2020002210490039104F062F941
:101D10000421049804F05EF90498039904F0C2F9D0
:101D200011E040F20040C4F2020002210290019151
:101D300004F050F90421029804F04CF9029801993A
:101D400004F048F9FFE7FFE708B080BD81B00090DC
:101D5000002001B07047000081B00090002001B069
:101D60007047000080B58EB00C900B910A920993D9
:101D70000C9800280DD0FFE70C9840F22401C2F225
:101D800000010968884204D1FFE70C98FFF736FF8D
:101D90001DE00C98002808D0FFE70C98002804D11B
:101DA000FFE70C98FFF7D2FF10E00C98002808D04E
:101DB000FFE70C98002804D1FFE70C98FFF7CCFF51
:101DC00003E001208DF837005FE0FFE7FFE70A98A6
:101DD000002804D0FFE70A980C99486206E00C98A6
:101DE00041F28531C0F600014162FFE70B980028FF
:101DF00004D0FFE70B980C99086706E00C9841F2B5
:101E00009531C0F600010167FFE70998002804D06A
:101E1000FFE709980C99486706E00C9847F2E551EE
:101E2000C0F600014167FFE70C98C069002823D085
:101E3000FFE70C98C06901210291FFF751FB0020D8
:101E400008900790069005900490039002990491E1
:101E500005910690079108900C98006A03900C98E1
:101E6000C06903A904F01CF80C99CA69096A0190B9
:101E7000104604F017F9FFE70C98406F80470C9963
:101E8000886100208DF83700FFE79DF837000EB01D
:101E900080BD000080B500F005F880BD80B5FFF77B
:101EA000F9FF80BD80B543F20000C4F2000004F0E9
:101EB0008FF9002080BD000080B540F22800C2F2FA
:101EC0000000006802F090FD80BD000080B5002099
:101ED00002F08AFD80BD000080B5002002F084FD84
:101EE00080BD000081B00090009800210170009832
:101EF00041F64972C0F600024262009840F6004284
:101F0000C4F2020242610098022383610098C26118
:101F100000980123036200984260009808238360C0
:101F200000980023C4F20203C360009804230361F5
:101F30000098826200984FF40062C2620098418764
:101F4000084601B07047000080B588B001468DF8A2
:101F50001F009DF81F00012816D1FFE740F2004046
:101F6000C4F2020002210690059104F051F8042108
:101F7000069804F04DF80698059904F049F806987B
:101F8000059904F0A7F829E09DF81F00022812D156
:101F9000FFE740F20040C4F20200022104900391E6
:101FA00004F036F80421049804F032F804980399F8
:101FB00004F090F811E040F20040C4F20200022167
:101FC0000290019104F024F80421029804F020F812
:101FD0000298019904F01CF8FFE7FFE708B080BD04
:101FE00081B00090002001B07047000081B00090E7
:101FF000009800210170084601B0704780B584B098
:102000000390039890F83200002804D1FFE703986A
:1020100000F09EF8FFE7039802F0F0FB03990190AF
:10202000084602F05FFC8DF80B009DF80B000028BD
:1020300005D1FFE70398012180F8311004E00398EF
:10204000002180F83110FFE79DF80B0004B080BD3F
:1020500080B582B001900198002180F8331001987A
:102060000187019880F83110019880F830100198AC
:1020700000F004FA01990090084602F0EDFB02B06E
:1020800080BD000080B590B00F9000200E900D90A4
:102090000C900B900A9009900A9001210B910C90E2
:1020A0000D910E900F99896809910F99496809AAB5
:1020B000089008461146079203F0F2FE0F994A680D
:1020C00089680690104604F005F80F988069099019
:1020D0000F984069079903F0E3FE0F994A698969EF
:1020E0000590104603F0F6FF0F98006A09900F98CC
:1020F000C069079903F0D4FE0F99CA69096A049070
:10210000104603F0E7FF0F98406A089903900846CD
:10211000039A90470F98816AC06A02900846029914
:1021200003F076FF0F98006909900F98C06807992F
:1021300003F0B6FE0F99CA6809690190104603F0D2
:10214000C9FF0F98089980F83210084610B080BD7A
:1021500080B590B00F900F98406801210891FFF76B
:10216000BFF90F98C0680899FFF7BAF90F98C069CE
:102170000899FFF7B5F90F9840690899FFF7B0F98A
:102180000F98806A0899FFF7ABF900200E900D9028
:102190000C900B900A90099008990A9103220B92D7
:1021A0000C900D910E900F9A926809920F9A5268B6
:1021B00009AB079010461946069303F071FE0F997C
:1021C0004A6889680590104603F022FF0F988069DD
:1021D00009900F984069069903F062FE0F994A69C9
:1021E00089690490104603F013FF0F98006A099064
:1021F0000F98C069069903F053FE0F99CA69096ADE
:102200000390104603F066FF0F98C06A09900F987C
:10221000806A069903F044FE0F998A6AC96A02909F
:10222000104603F0F5FE07980A900F990969099185
:102230000F99C868069903F033FE0F99CA680969B7
:102240000190104603F046FF0F98089980F832106D
:10225000079810B080BD000080B586B0049003914F
:1022600002920193049800280DD0FFE7049840F2F1
:102270002801C2F200010968884204D1FFE70498EE
:10228000FFF730FE1DE00498002808D0FFE704980F
:10229000002804D1FFE70498FFF7A2FE10E004989D
:1022A000002808D0FFE70498002804D1FFE704982D
:1022B000FFF79CFE03E001208DF8170035E0FFE7F3
:1022C000FFE70498FFF744FF0299002904D0FFE7D5
:1022D00002980499886406E0049841F29531C0F6AA
:1022E00000018164FFE70398002804D0FFE703980A
:1022F0000499486406E0049841F29531C0F6000163
:102300004164FFE70198002804D0FFE70198049991
:10231000C86406E0049847F2E551C0F60001C164C4
:10232000FFE700208DF81700FFE79DF8170006B0C3
:1023300080BD000080B58CB00B900A9100208DF814
:10234000270008900B99052204234FF0010C0790F9
:10235000084611461A466346CDF818C002F0B6F991
:102360000B990590084600F0CDF80B9942F208321F
:102370000F230490084611461A46069B02F020F9E6
:1023800007998DF82710FFE79DF8270002282CDC1D
:10239000FFE70B989DF8271001F540710F220123EC
:1023A000039202F00DF90B994FF44852002302906A
:1023B00008461146039A019302F002F90B994FF473
:1023C0004C52009008461146039A019B02F0F8F81F
:1023D000089008980A994A1C0A920870FFE79DF82D
:1023E000270001308DF82700CEE700200CB080BD1B
:1023F00080B588B00790069100208DF817000490F2
:1024000007990122042303900846114602921A46B6
:10241000039B02F05BF907990190084600F072F8FF
:1024200007992022009008460399029B02F0C8F801
:102430000490049820F0704004900698002819D069
:10244000FFE700208DF81700FFE79DF8170003282D
:102450000FDCFFE7049806999DF81720885404982C
:10246000000A0490FFE79DF8170001308DF817006F
:10247000EBE7FFE7002008B080BD000080B582B028
:1024800000900098002810D0FFE7009840F2280143
:10249000C2F200010968884207D1FFE741F6B9603E
:1024A000C0F6000005F0C0F923E0009800280BD02A
:1024B000FFE70098002807D1FFE741F6CD60C0F69E
:1024C000000005F0B1F913E0009800280BD0FFE7F9
:1024D0000098002807D1FFE741F6D960C0F6000058
:1024E00005F0A2F903E001208DF8070005E0FFE701
:1024F000FFE700208DF80700FFE79DF8070002B016
:1025000080BD000080B5E8B067906798007801460C
:102510001228669100F209846699DFE811F005043B
:1025200013003500370039009A00DB003C017D01C3
:102530000604060406049E011F02A00201034203D2
:10254000A303E4036798C169006A6590084665992A
:1025500003F0C0FD679841698069649008466499FA
:1025600003F0B8FD6798416C408F884767984169D0
:10257000806963900846639903F04AFD6798416C4F
:10258000408F884700F014BC00F012BC00F010BC73
:102590006798C169006A62900846629903F09AFDE3
:1025A00067984169806961900846619903F092FDDE
:1025B0006798416C408F884767984169806960904F
:1025C0000846609903F024FD6798416C408F884766
:1025D0006798C169006A5F9008465F9903F07AFDC9
:1025E0006798416980695E9008465E9903F072FDC4
:1025F0006798416C408F88476798416980695D9012
:1026000008465D9903F004FD6798416C408F884748
:102610006798C169006A5C9008465C9903F05AFDAE
:102620006798416980695B9008465B9903F052FDA9
:102630006798416C408F88476798416980695A90D4
:1026400008465A9903F0E4FC6798416C408F88472C
:10265000AEE36798C169006A59900846599903F03A
:1026600039FD67984169806958900846589903F088
:1026700031FD6798416C408F884767984169806950
:1026800057900846579903F0C3FC6798416C408FF8
:1026900088476798C169006A56900846569903F0C2
:1026A00019FD67984169806955900846559903F06E
:1026B00011FD6798416C408F884767984169806930
:1026C00054900846549903F0A3FC6798416C408FDE
:1026D00088476DE36798C169006A5390084653992B
:1026E00003F0F8FC67984169806952900846529956
:1026F00003F0F0FC6798416C408F88476798416908
:10270000806951900846519903F082FC6798416CAA
:10271000408F88476798C169006A50900846509971
:1027200003F0D8FC6798416980694F9008464F993B
:1027300003F0D0FC6798416C408F884767984169E7
:1027400080694E9008464E9903F062FC6798416C90
:10275000408F88476798C169006A4D9008464D9937
:1027600003F0B8FC6798416980694C9008464C9921
:1027700003F0B0FC6798416C408F884767984169C7
:1027800080694B9008464B9903F042FC6798416C76
:10279000408F88470CE36798C169006A4A900846F1
:1027A0004A9903F097FC6798416980694990084607
:1027B000499903F08FFC6798416C408F8847679870
:1027C0004169806948900846489903F021FC679860
:1027D000416C408F88476798C169006A47900846F6
:1027E000479903F077FC67984169806946900846ED
:1027F000469903F06FFC6798416C408F8847679853
:102800004169806945900846459903F001FC679845
:10281000416C408F8847CBE26798C169006A449059
:102820000846449903F056FC6798416980694390D3
:102830000846439903F04EFC6798416C408F8847E7
:1028400067984169806942900846429903F0E0FB2D
:102850006798416C408F8847AAE26798C169006A0F
:1028600041900846419903F0D3FB6798416980691C
:1028700040900846409903F02DFC6798416C408FCA
:1028800088476798416980693F9008463F9903F0FF
:10289000BFFB6798416C408F88476798C169006AA1
:1028A0003E9008463E9903F015FC6798416980699F
:1028B0003D9008463D9903F00DFC6798416C408FB0
:1028C00088476798416980693C9008463C9903F0C5
:1028D0009FFB6798416C408F88476798C169006A81
:1028E0003B9008463B9903F0F5FB67984169806986
:1028F0003A9008463A9903F0EDFB6798416C408F97
:10290000884767984169806939900846399903F08A
:102910007FFB6798416C408F88476798C169006A60
:1029200038900846389903F0D5FB6798416980696B
:1029300037900846379903F0CDFB6798416C408F7C
:10294000884767984169806936900846369903F050
:102950005FFB6798416C408F884729E26798C1699F
:10296000006A35900846359903F0B4FB67984169D1
:10297000806934900846349903F0ACFB6798416C49
:10298000408F88476798416980693390084633993A
:1029900003F03EFB6798416C408F88476798C16998
:1029A000006A32900846329903F094FB67984169B7
:1029B000806931900846319903F08CFB6798416C2F
:1029C000408F884767984169806930900846309900
:1029D00003F01EFB6798416C408F88476798C16978
:1029E000006A2F9008462F9903F074FB679841699D
:1029F00080692E9008462E9903F06CFB6798416C15
:102A0000408F88476798416980692D9008462D99C5
:102A100003F0FEFA6798416C408F88476798C16958
:102A2000006A2C9008462C9903F054FB6798416982
:102A300080692B9008462B9903F04CFB6798416CFA
:102A4000408F88476798416980692A9008462A998B
:102A500003F0DEFA6798416C408F8847A8E16798D9
:102A6000C169006A29900846299903F033FB6798E9
:102A70004169806928900846289903F02BFB6798E4
:102A8000416C408F88476798416980692790084664
:102A9000279903F0BDFA6798416C408F8847679883
:102AA000C169006A26900846269903F013FB6798CF
:102AB0004169806925900846259903F00BFB6798CA
:102AC000416C408F88476798416980692490084627
:102AD000249903F09DFA6798416C408F8847679866
:102AE000C169006A23900846239903F0F3FA6798B6
:102AF0004169806922900846229903F0EBFA6798B1
:102B0000416C408F884767984169806921900846E9
:102B1000219903F07DFA6798416C408F884747E11F
:102B20006798C169006A20900846209903F0D2FA9C
:102B30006798416980691F9008461F9903F0CAFA97
:102B40006798416C408F88476798416980691E90FB
:102B500008461E9903F05CFA6798416C408F8847DD
:102B60006798C169006A1D9008461D9903F0B2FA82
:102B70006798416980691C9008461C9903F0AAFA7D
:102B80006798416C408F88476798416980691B90BE
:102B900008461B9903F03CFA6798416C408F8847C0
:102BA00006E16798C169006A1A9008461A9903F00D
:102BB00091FA67984169806919900846199903F05C
:102BC00089FA6798416C408F8847679841698069A6
:102BD00018900846189903F01BFA6798416C408FCB
:102BE00088476798C169006A17900846179903F0EB
:102BF00071FA67984169806916900846169903F042
:102C000069FA6798416C408F884767984169806985
:102C100015900846159903F0FBF96798416C408FB1
:102C200088476798C169006A14900846149903F0B0
:102C300051FA67984169806913900846139903F027
:102C400049FA6798416C408F884767984169806965
:102C500012900846129903F0DBF96798416C408F97
:102C60008847A5E06798C169006A119008461199E4
:102C700003F030FA6798416980691090084610990E
:102C800003F028FA6798416C408F8847679841693C
:102C900080690F9008460F9903F0BAF96798416C64
:102CA000408F88476798C169006A0E9008460E9960
:102CB00003F010FA6798416980690D9008460D99F4
:102CC00003F008FA6798416C408F8847679841691C
:102CD00080690C9008460C9903F09AF96798416C4A
:102CE000408F884764E06798C169006A0B90084686
:102CF0000B9903F0EFF96798416980690A900846DB
:102D00000A9903F0E7F96798416C408F8847679804
:102D10004169806909900846099903F079F9679833
:102D2000416C408F884743E0FFE7679801F00AFC59
:102D30006799CA69096A0890104603F069F96798AB
:102D40004169806907900846079903F0C3F96798BD
:102D5000416C408F884767984169806906900846B2
:102D6000069903F055F96798416C408F884767983A
:102D7000C169006A05900846059903F0ABF96798A8
:102D80004169806904900846049903F0A3F96798A3
:102D9000416C408F88476798416980690390084675
:102DA000039903F035F96798416C408F8847FFE736
:102DB00067980078032821D0FFE76798C169006A07
:102DC00002900846029903F023F9679841698069E7
:102DD00001900846019903F07DF96798416C408F96
:102DE000884767984169806900900846009903F018
:102DF0000FF96798416C408F8847FFE76798032178
:102E00000170002068B080BD80B5ADF5047D839071
:102E10008398007801461228829100F209858299F0
:102E2000DFE811F00505130055007700F9007A017D
:102E3000DB015C02BD02060506050605FE02FF0277
:102E400000038103E2036304C4048398C169006A38
:102E500081900846819903F03DF983984169806922
:102E600080900846809903F035F98398416C408F33
:102E700088478398416980697F9008467F9903F06D
:102E8000C7F88398416C408F88478398C169006A6E
:102E90007E9008467E9903F01DF983984169806908
:102EA0007D9008467D9903F015F98398416C408F19
:102EB00088478398416980697C9008467C9903F033
:102EC000A7F88398416C408F884700F014BD839821
:102ED000C169006A7B9008467B9903F0FBF88398F0
:102EE000416980697A9008467A9903F0F3F88398EB
:102EF000416C408F88478398416980697990084682
:102F0000799903F085F88398416C408F884700F0E9
:102F1000F2BC8398C169006A78900846789903F0FA
:102F2000D9F883984169806977900846779903F0CA
:102F3000D1F88398416C408F8847839841698069B4
:102F400076900846769903F063F88398416C408F39
:102F500088478398C169006A75900846759903F09F
:102F6000B9F883984169806974900846749903F0B0
:102F7000B1F88398416C408F884783984169806994
:102F800073900846739903F043F88398416C408F1F
:102F900088478398C169006A72900846729903F065
:102FA00099F883984169806971900846719903F096
:102FB00091F88398416C408F884783984169806974
:102FC00070900846709903F023F88398416C408F05
:102FD00088478398C169006A6F9008466F9903F02B
:102FE00079F88398416980696E9008466E9903F07C
:102FF00071F88398416C408F884783984169806954
:103000006D9008466D9903F003F88398416C408FEA
:10301000884700F070BC8398C169006A6C900846CC
:103020006C9903F057F88398416980696B90084662
:103030006B9903F04FF88398416C408F88478398D1
:10304000416980696A9008466A9902F0E1FF8398B5
:10305000416C408F88478398C169006A699008462F
:10306000699903F037F88398416980696890084648
:10307000689903F02FF88398416C408F88478398B4
:103080004169806967900846679902F0C1FF83989B
:10309000416C408F88478398C169006A66900846F2
:1030A000669903F017F8839841698069659008462E
:1030B000659903F00FF88398416C408F8847839897
:1030C0004169806964900846649902F0A1FF839881
:1030D000416C408F88478398C169006A63900846B5
:1030E000639902F0F7FF839841698069629008460E
:1030F000629902F0EFFF8398416C408F8847839874
:103100004169806961900846619902F081FF839866
:10311000416C408F8847EEE38398C169006A6090F4
:103120000846609902F0D6FF8398416980695F90F4
:1031300008465F9902F0CEFF8398416C408F884724
:103140008398416980695E9008465E9902F060FF4D
:103150008398416C408F88478398C169006A5D906D
:1031600008465D9902F0B6FF8398416980695C90DA
:1031700008465C9902F0AEFF8398416C408F884707
:103180008398416980695B9008465B9902F040FF33
:103190008398416C408F88478398C169006A5A9030
:1031A00008465A9902F096FF8398416980695990C0
:1031B0000846599902F08EFF8398416C408F8847EA
:1031C00083984169806958900846589902F020FF19
:1031D0008398416C408F88478DE38398C169006A6A
:1031E00057900846579902F075FF839841698069A6
:1031F00056900846569902F06DFF8398416C408FB7
:10320000884783984169806955900846559902F02E
:10321000FFFE8398416C408F88478398C169006A9C
:1032200054900846549902F055FF8398416980698B
:1032300053900846539902F04DFF8398416C408F9C
:10324000884783984169806952900846529902F0F4
:10325000DFFE8398416C408F88478398C169006A7C
:1032600051900846519902F035FF83984169806971
:1032700050900846509902F02DFF8398416C408F82
:1032800088478398416980694F9008464F9902F0BA
:10329000BFFE8398416C408F88478398C169006A5C
:1032A0004E9008464E9902F015FF83984169806957
:1032B0004D9008464D9902F00DFF8398416C408F68
:1032C00088478398416980694C9008464C9902F080
:1032D0009FFE8398416C408F88470CE38398C169B7
:1032E000006A4B9008464B9902F0F4FE83984169BE
:1032F00080694A9008464A9902F0ECFE8398416C36
:10330000408F884783984169806949900846499968
:1033100002F07EFE8398416C408F88478398C16994
:10332000006A48900846489902F0D4FE83984169A3
:10333000806947900846479902F0CCFE8398416C1B
:10334000408F88478398416980694690084646992E
:1033500002F05EFE8398416C408F88478398C16974
:10336000006A45900846459902F0B4FE8398416989
:10337000806944900846449902F0ACFE8398416C01
:10338000408F8847839841698069439008464399F4
:1033900002F03EFE8398416C408F8847ABE28398F1
:1033A000C169006A42900846429902F093FE8398F0
:1033B0004169806941900846419902F08BFE8398EB
:1033C000416C408F884783984169806940900846E6
:1033D000409902F01DFE8398416C408F8847839886
:1033E000C169006A3F9008463F9902F073FE8398D6
:1033F000416980693E9008463E9902F06BFE8398D1
:10340000416C408F88478398416980693D900846A8
:103410003D9902F0FDFD8398416C408F88476AE238
:1034200069E268E28398C169006A3C9008463C9969
:1034300002F050FE8398416980693B9008463B99B1
:1034400002F048FE8398416C408F88478398416919
:1034500080693A9008463A9902F0DAFD8398416C07
:10346000408F88478398C169006A39900846399926
:1034700002F030FE83984169806938900846389997
:1034800002F028FE8398416C408F884783984169F9
:10349000806937900846379902F0BAFD8398416CED
:1034A000408F88478398C169006A369008463699EC
:1034B00002F010FE8398416980693590084635997D
:1034C00002F008FE8398416C408F884783984169D9
:1034D000806934900846349902F09AFD8398416CD3
:1034E000408F88478398C169006A339008463399B2
:1034F00002F0F0FD83984169806932900846329964
:1035000002F0E8FD8398416C408F884783984169B9
:10351000806931900846319902F07AFD8398416CB8
:10352000408F8847E7E18398C169006A3090084678
:10353000309902F0CFFD8398416980692F90084649
:103540002F9902F0C7FD8398416C408F884783987C
:10355000416980692E9008462E9902F059FD8398A2
:10356000416C408F88478398C169006A2D90084656
:103570002D9902F0AFFD8398416980692C9008462F
:103580002C9902F0A7FD8398416C408F884783985F
:10359000416980692B9008462B9902F039FD839888
:1035A000416C408F88478398C169006A2A90084619
:1035B0002A9902F08FFD8398416980692990084615
:1035C000299902F087FD8398416C408F8847839842
:1035D0004169806928900846289902F019FD83986E
:1035E000416C408F884786E18398C169006A2790C3
:1035F0000846279902F06EFD8398416980692690FC
:103600000846269902F066FD8398416C408F8847F2
:1036100083984169806925900846259902F0F8FC55
:103620008398416C408F88478398C169006A2490D1
:103630000846249902F04EFD8398416980692390E1
:103640000846239902F046FD8398416C408F8847D5
:1036500083984169806922900846229902F0D8FC3B
:103660008398416C408F88478398C169006A219094
:103670000846219902F02EFD8398416980692090C7
:103680000846209902F026FD8398416C408F8847B8
:103690008398416980691F9008461F9902F0B8FC21
:1036A0008398416C408F88478398C169006A1E9057
:1036B00008461E9902F00EFD8398416980691D90AD
:1036C00008461D9902F006FD8398416C408F88479B
:1036D0008398416980691C9008461C9902F098FC07
:1036E0008398416C408F884705E18398C169006ADF
:1036F0001B9008461B9902F0EDFC83984169806994
:103700001A9008461A9902F0E5FC8398416C408FA4
:10371000884783984169806919900846199902F091
:1037200077FC8398416C408F88478398C169006A11
:1037300018900846189902F0CDFC83984169806979
:1037400017900846179902F0C5FC8398416C408F8A
:10375000884783984169806916900846169902F057
:1037600057FC8398416C408F88478398C169006AF1
:1037700015900846159902F0ADFC8398416980695F
:1037800014900846149902F0A5FC8398416C408F70
:10379000884783984169806913900846139902F01D
:1037A00037FC8398416C408F8847A4E08398C169B7
:1037B000006A12900846129902F08CFC83984169C5
:1037C000806911900846119902F084FC8398416C3D
:1037D000408F884783984169806910900846109906
:1037E00002F016FC8398416C408F88478398C1692A
:1037F000006A0F9008460F9902F06CFC83984169AB
:1038000080690E9008460E9902F064FC8398416C22
:10381000408F88478398416980690D9008460D99CB
:1038200002F0F6FB8398416C408F884763E0FFE726
:10383000839800F087FE8399CA69096A0C90104644
:1038400002F0E6FB8398416980690B9008460B996A
:1038500002F040FC8398416C408F8847839841690F
:1038600080690A9008460A9902F0D2FB8398416C5D
:10387000408F88478398C169006A09900846099972
:1038800002F028FC839841698069089008460899ED
:1038900002F020FC8398416C408F884783984169EF
:1038A000806907900846079902F0B2FB8398416C43
:1038B000408F88478398C169006A06900846069938
:1038C00002F008FC839841698069059008460599D3
:1038D00002F000FC8398416C408F884783984169CF
:1038E000806904900846049902F092FB8398416C29
:1038F000408F8847FFE7839800780D2821D0FFE7A5
:103900008398C169006A03900846039902F080FB1E
:1039100083984169806902900846029902F0DAFBB7
:103920008398416C408F88478398416980690190F2
:103930000846019902F06CFB8398416C408F8847E0
:10394000FFE783980D21017000200DF5047D80BDF7
:1039500080B5C2B04190419800780146122840914C
:1039600000F286824099DFE811F082021300140011
:10397000150056009700B800F9001A01830283026F
:1039800083021B017C01BD01FE011F026002810256
:1039900091E290E24198C169006A3F9008463F99E0
:1039A00002F098FB4198416980693E9008463E9933
:1039B00002F090FB4198416C408F884741984169E3
:1039C00080693D9008463D9902F022FB4198416C88
:1039D000408F88474198C169006A3C9008463C99ED
:1039E00002F078FB4198416980693B9008463B9919
:1039F00002F070FB4198416C408F884741984169C3
:103A000080693A9008463A9902F002FB4198416C6D
:103A1000408F88474FE24198C169006A3990084653
:103A2000399902F057FB41984169806938900846FE
:103A3000389902F04FFB4198416C408F884741987C
:103A40004169806937900846379902F0E1FA419858
:103A5000416C408F88474198C169006A369008469A
:103A6000369902F037FB41984169806935900846E4
:103A7000359902F02FFB4198416C408F884741985F
:103A80004169806934900846349902F0C1FA41983E
:103A9000416C408F88470EE24198C169006A3390BB
:103AA0000846339902F016FB4198416980693290CB
:103AB0000846329902F00EFB4198416C408F8847CE
:103AC00041984169806931900846319902F0A0FA25
:103AD0004198416C408F8847EDE14198C169006A87
:103AE00030900846309902F0F5FA419841698069B2
:103AF0002F9008462F9902F0EDFA4198416C408FC3
:103B000088474198416980692E9008462E9902F0B5
:103B10007FFA4198416C408F88474198C169006A9B
:103B20002D9008462D9902F0D5FA41984169806997
:103B30002C9008462C9902F0CDFA4198416C408FA8
:103B400088474198416980692B9008462B9902F07B
:103B50005FFA4198416C408F8847ACE14198C16958
:103B6000006A2A9008462A9902F0B4FA41984169FD
:103B7000806929900846299902F0ACFA4198416C75
:103B8000408F884741984169806928900846289964
:103B900002F03EFA4198416C408F88478BE18AE100
:103BA0004198C169006A27900846279902F030FAC7
:103BB00041984169806926900846269902F08AFA60
:103BC0004198416C408F88474198416980692590B0
:103BD0000846259902F01CFA4198416C408F8847AD
:103BE0004198C169006A24900846249902F072FA4B
:103BF00041984169806923900846239902F06AFA46
:103C00004198416C408F8847419841698069229072
:103C10000846229902F0FCF94198416C408F884790
:103C20004198C169006A21900846219902F052FA30
:103C300041984169806920900846209902F04AFA2B
:103C40004198416C408F88474198416980691F9035
:103C500008461F9902F0DCF94198416C408F884773
:103C600029E14198C169006A1E9008461E9902F038
:103C700031FA4198416980691D9008461D9902F00A
:103C800029FA4198416C408F884741984169806981
:103C90001C9008461C9902F0BBF94198416C408F7A
:103CA00088474198C169006A1B9008461B9902F039
:103CB00011FA4198416980691A9008461A9902F0F0
:103CC00009FA4198416C408F884741984169806961
:103CD00019900846199902F09BF94198416C408F60
:103CE0008847E8E04198C169006A18900846189929
:103CF00002F0F0F9419841698069179008461799D8
:103D000002F0E8F94198416C408F88474198416939
:103D1000806916900846169902F07AF94198416C2C
:103D2000408F88474198C169006A159008461599E7
:103D300002F0D0F9419841698069149008461499BD
:103D400002F0C8F94198416C408F88474198416919
:103D5000806913900846139902F05AF94198416C12
:103D6000408F8847A7E04198C169006A12900846D1
:103D7000129902F0AFF941984169806911900846A3
:103D8000119902F0A7F94198416C408F88474198FA
:103D90004169806910900846109902F039F94198FC
:103DA000416C408F884786E04198C169006A0F9056
:103DB00008460F9902F08EF94198416980690E908A
:103DC00008460E9902F086F94198416C408F884769
:103DD0004198416980690D9008460D9902F018F9E3
:103DE0004198416C408F88474198C169006A0C90A6
:103DF00008460C9902F06EF94198416980690B9070
:103E000008460B9902F066F94198416C408F88474B
:103E10004198416980690A9008460A9902F0F8F8C9
:103E20004198416C408F884745E04198C169006ADC
:103E300009900846099902F04DF941984169806955
:103E400008900846089902F045F94198416C408F66
:103E5000884741984169806907900846079902F0B0
:103E6000D7F84198416C408F884724E023E0FFE772
:103E7000419800F067FB4199CA69096A06901046AB
:103E800002F0C6F841984169806905900846059995
:103E900002F020F94198416C408F88474198416970
:103EA000806904900846049902F0B2F84198416C88
:103EB000408F8847FFE741980078022821D0FFE72C
:103EC0004198C169006A03900846039902F002F91B
:103ED00041984169806902900846029902F0FAF817
:103EE0004198416C408F88474198416980690190B1
:103EF0000846019902F08CF84198416C408F884740
:103F0000FFE7419802210170002042B080BD00000F
:103F100080B5C8B04790479800780146122846916E
:103F200000F2E6824699DFE811F0E2021300140085
:103F30007500B600F700180159017A01E302E302A7
:103F4000E3027B01DC011D025E027F02C002E1028E
:103F5000D2E24798C169006A45900846459902F047
:103F600057F847984169806944900846449902F09F
:103F7000B1F84798416C408F8847479841698069FC
:103F800043900846439902F043F84798416C408FAC
:103F900088474798C169006A42900846429902F0F2
:103FA00099F847984169806941900846419902F023
:103FB00091F84798416C408F8847479841698069DC
:103FC00040900846409902F023F84798416C408F92
:103FD00088474798C169006A3F9008463F9902F0B8
:103FE00079F84798416980693E9008463E9902F009
:103FF00071F84798416C408F8847479841698069BC
:104000003D9008463D9902F003F84798416C408F77
:10401000884771E24798C169006A3C9008463C991C
:1040200002F058F84798416980693B9008463B99EF
:1040300002F050F84798416C408F88474798416993
:1040400080693A9008463A9901F0E2FF4798416C3E
:10405000408F88474798C169006A39900846399966
:1040600002F038F8479841698069389008463899D5
:1040700002F030F84798416C408F88474798416973
:10408000806937900846379901F0C2FF4798416C24
:10409000408F884730E24798C169006A36900846E9
:1040A000369902F017F847984169806935900846BB
:1040B000359902F00FF84798416C408F8847479830
:1040C0004169806934900846349901F0A1FF47980E
:1040D000416C408F88474798C169006A3390084611
:1040E000339901F0F7FF479841698069329008469B
:1040F000329901F0EFFF4798416C408F884747980D
:104100004169806931900846319901F081FF4798F3
:10411000416C408F8847EFE14798C169006A309051
:104120000846309901F0D6FF4798416980692F9081
:1041300008462F9901F0CEFF4798416C408F884781
:104140004798416980692E9008462E9901F060FFDA
:104150004798416C408F8847CEE14798C169006A13
:104160002D9008462D9901F0B5FF47984169806967
:104170002C9008462C9901F0ADFF4798416C408F78
:1041800088474798416980692B9008462B9901F030
:104190003FFF4798416C408F88474798C169006A44
:1041A0002A9008462A9901F095FF4798416980694D
:1041B00029900846299901F08DFF4798416C408F5E
:1041C000884747984169806928900846289901F0F6
:1041D0001FFF4798416C408F88478DE14798C16920
:1041E000006A27900846279901F074FF47984169B3
:1041F000806926900846269901F06CFF4798416C2B
:10420000408F8847479841698069259008462599DD
:1042100001F0FEFE4798416C408F88476CE16BE1EE
:104220004798C169006A24900846249901F0F0FE7D
:1042300047984169806923900846239901F04AFF15
:104240004798416C408F8847479841698069229020
:104250000846229901F0DCFE4798416C408F884760
:104260004798C169006A21900846219901F032FF00
:1042700047984169806920900846209901F02AFFFB
:104280004798416C408F88474798416980691F90E3
:1042900008461F9901F0BCFE4798416C408F884743
:1042A0004798C169006A1E9008461E9901F012FFE6
:1042B0004798416980691D9008461D9901F00AFFE1
:1042C0004798416C408F88474798416980691C90A6
:1042D00008461C9901F09CFE4798416C408F884726
:1042E0000AE14798C169006A1B9008461B9901F0D2
:1042F000F1FE4798416980691A9008461A9901F0C1
:10430000E9FE4798416C408F88474798416980692A
:1043100019900846199901F07BFE4798416C408F2F
:1043200088474798C169006A18900846189901F0B3
:10433000D1FE47984169806917900846179901F0A6
:10434000C9FE4798416C408F88474798416980690A
:1043500016900846169901F05BFE4798416C408F15
:104360008847C9E04798C169006A159008461599C1
:1043700001F0B0FE4798416980691490084614998D
:1043800001F0A8FE4798416C408F884747984169E3
:10439000806913900846139901F03AFE4798416CE2
:1043A000408F88474798C169006A12900846129961
:1043B00001F090FE47984169806911900846119973
:1043C00001F088FE4798416C408F884747984169C3
:1043D000806910900846109901F01AFE4798416CC8
:1043E000408F884788E04798C169006A0F90084667
:1043F0000F9901F06FFE4798416980690E90084659
:104400000E9901F067FE4798416C408F88474798A6
:10441000416980690D9008460D9901F0F9FD4798B2
:10442000416C408F884767E04798C169006A0C90EB
:1044300008460C9901F04EFE4798416980690B903F
:1044400008460B9901F046FE4798416C408F88471B
:104450004798416980690A9008460A9901F0D8FD99
:104460004798416C408F88474798C169006A099016
:104470000846099901F02EFE479841698069089025
:104480000846089901F026FE4798416C408F8847FE
:1044900047984169806907900846079901F0B8FD7F
:1044A0004798416C408F884726E04798C169006A69
:1044B00006900846069901F00DFE4798416980690B
:1044C00005900846059901F005FE4798416C408F1C
:1044D000884747984169806904900846049901F02B
:1044E00097FD4798416C408F884705E004E0FFE75F
:1044F000479800F027F8FFE74798C169006A0390E2
:104500000846039901F084FD47984169806902904B
:104510000846029901F0DEFD4798416C408F8847BC
:1045200047984169806901900846019901F070FD42
:104530004798416C408F88474798012101700020BF
:1045400048B080BD80B586B0059000208DF813007E
:104550000599CA69096A0390104601F0BBFD0398EA
:104560008DF81300FFE79DF81300042822DCFFE715
:1045700005984169806902900846029901F0AAFDF8
:104580000420FCF727FF0598416C408F8847059869
:104590004169806901900846019901F039FD05984B
:1045A000416C408F8847FFE79DF8130001308DF87C
:1045B0001300D8E7059800210170084606B080BDB9
:1045C00080B590B09C4696460F900E918DF837209E
:1045D0008DF8363000200C900B900F990A90084609
:1045E000CDF824C0CDF820E0FDF78CFF0A990C919E
:1045F000FFE70C989DF83710884253D2FFE70F98D9
:104600004169806907900846079901F063FD04201D
:10461000FCF7E0FE0F98416C408F88470F98416986
:10462000806906900846069901F0F2FC0F98416CEB
:10463000408F88479DF83800C007002809D0FFE761
:104640000F984168806805900846059901F042FD81
:1046500008E00F984168806804900846049901F0CA
:10466000D7FCFFE70E9840080E900F98C1680069CC
:1046700003900846039901F08BFC002806D0FFE761
:104680000C98012101FA00F0029002E00020029053
:10469000FFE702980B9908430B90FFE70C98013055
:1046A0000C90A6E70F98042101709DF836000028B1
:1046B00004D0FFE70F98FFF72BFCFFE70F98FFF7F9
:1046C00047F90B990190084610B080BD10B58EB027
:1046D0009C4696460C460D908DF833108DF832208E
:1046E0008DF8313000208DF830008DF82F000D99B5
:1046F0000A900846CDF824C0CDF820E00794FEF7D4
:1047000083FB0A998DF83010FFE79DF830009DF883
:10471000321088425ADAFFE70D98416980690690A5
:104720000846069901F0D6FC0420FCF753FE0D98CC
:10473000416C408F88470D98416980690590084613
:10474000059901F065FC0D98416C408F88479DF8F4
:104750003300C007002809D0FFE70D984168806842
:1047600004900846049901F0B5FC08E00D984168F2
:10477000806803900846039901F04AFCFFE79DF822
:10478000330040088DF833000D98C168006902902D
:104790000846029901F0FCFB002807D0FFE79DF8CE
:1047A0003000012101FA00F0019002E000200190A8
:1047B000FFE701989DF82F1008438DF82F00FFE7C1
:1047C0009DF8300001308DF830009EE70D980E21E5
:1047D00001709DF83100002804D0FFE70D98FFF725
:1047E00097FBFFE70D98FFF7B3F89DF82F100139FD
:1047F00018BF0121009008460EB010BD80B588B0EA
:10480000079007980B21042200230693FFF75EFF11
:10481000079905900846FDF775FE07990D220523B7
:104820000490084611461A46069BFFF7C9FE0799F1
:104830001022039008460699069BFFF7C1FE0799D0
:10484000012202900846114600F06EF80699019088
:10485000084608B080BD000080B588B00690069874
:1048600000F084F8ADF81600BDF81600002804D05A
:10487000FFE701208DF81F0030E006980421002298
:104880000491049B03921A46039BFFF71FFF0699AE
:1048900002900846FDF736FE069910220190084660
:1048A0000399039BFFF78CFEADF816000698039959
:1048B00000F03AF8069900900846FDF7E3FBBDF8D2
:1048C00016104AF27032914204D0FFE702208DF8B0
:1048D0001F0003E000208DF81F00FFE79DF81F0078
:1048E00008B080BD80B586B00590059804210122EE
:1048F0000491049B03921A46039BFFF7E7FE059978
:1049000002900846FDF7FEFD05994AF27032102329
:104910000190084611461A46039BFFF751FE0028F6
:1049200018BF012006B080BD80B586B00A4605904C
:104930008DF8131005980C2104234FF0010C0392FD
:104940001A466346CDF808C0FFF7C0FE05999DF8EA
:104950001320019008461146029A029BFFF730FE91
:1049600000210090084606B080BD000080B588B0E8
:1049700006900020ADF816000698052104220123B8
:104980000493FFF7A3FE069903900846FDF7BAFDCE
:1049900006994FF40C520F230290084611461A460E
:1049A000DDF810C001936346FFF70AFE06994FF445
:1049B0004C52009008461146019A049BFFF700FEF6
:1049C000ADF81600BDF81600B0F50C5F04D0FFE797
:1049D00001208DF81F0003E000208DF81F00FFE785
:1049E0009DF81F0008B080BD80B584B00390002002
:1049F00002900190039890F83100002822D0FFE740
:104A00000398C06C804702900398006C029988421A
:104A100007D9FFE70398006C0299C043084401904E
:104A200005E002980399096C401A0190FFE701988C
:104A30000399898F884204D9FFE70398FDF708FBA3
:104A4000FFE7FFE704B080BD81B0009000986FF0F1
:104A50002001016001B0704780B586B005900491D7
:104A600000208DF80F0004984068002801D0FFE76F
:104A7000FFE742F20000C4F2010000F019F942F22F
:104A80000011C4F201010290084600F011F90299E8
:104A9000084342F20022C4F201020190104600F0E5
:104AA00007F901990843002828D1FFE704984068D6
:104AB000002815D0FFE70598406841F2E001CFF6E5
:104AC000FC71084004990A684B68D1F808C0C968AD
:104AD0001A4342EA0C0211430843059948600CE06E
:104AE0000598406841F2E001CFF6FC710840049956
:104AF0000968084305994860FFE703E001208DF845
:104B00000F00FFE79DF80F0006B080BD80B584B0B0
:104B1000039000208DF80B00039800F0C9F80128DD
:104B20000DD1FFE703980021019100F03FF90398B0
:104B3000019900F081F8039800F060F8FFE703980E
:104B40008068C007002854D1FFE70398016821F06E
:104B50003F010160039841680022CFF63F021140F7
:104B60004160039881684FF2FC02C8F28002114054
:104B700081600398C16801F07841C16003980169C0
:104B800001F0404101610398416940F6FF72914391
:104B90004161039881696FF30B0181610398C169D9
:104BA0006FF30B01C1610398016A6FF30B0101629E
:104BB0000398416A114341620398816A6FF30B01C4
:104BC00081620398C16A01F07F41C1620398016B61
:104BD00001F0404101630398816B6FF3150181631C
:104BE00042F20430C4F20100016821F403010160C3
:104BF000FFE79DF80B0004B080BD000081B000907D
:104C00000098816821F00101816001B070470000C7
:104C100081B000900098816821F00101816001B0AD
:104C20007047000081B000900098816841F0010158
:104C3000816001B07047000082B00190009101983E
:104C40008068BDF8021061F313400199886002B0DA
:104C50007047000080B584B00390029100208DF869
:104C60000700039800F024F8002818D1FFE7039804
:104C700040684FF6FF61CFF6FF41084002990A688D
:104C8000896811430843039948600398806820F4B9
:104C900000600299496808430399886003E0012095
:104CA0008DF80700FFE79DF8070004B080BD000005
:104CB00081B000900098806800F0010001B070475A
:104CC00080B584B00390029100208DF8070002980F
:104CD0004068002801D0FFE7FFE70398FFF7E8FFEF
:104CE00000282ED1FFE70298406800280AD0FFE78D
:104CF0000398406820F46840029989680843039942
:104D0000486006E00398406820F4684003994860D2
:104D1000FFE7039880684FF6FD41CCF2FF010840A1
:104D200002990A68CB68096902F070621A4311435C
:104D300008430399886003980299496800F00AF8CB
:104D400003E001208DF80700FFE79DF8070004B09D
:104D500080BD000082B0019000910198C06A20F4EB
:104D60007000009908430199C86202B070470000C2
:104D700084B00390029101920398029901F440716A
:104D800000EB91102C30009000980068029901F01F
:104D90001F011F228A409043019A02F01F0202FA6B
:104DA00001F108430099086004B0704782B0019097
:104DB0000091019880689DF8031061F31B600199D0
:104DC000886002B07047000081B000900098816850
:104DD00041F08041816001B07047000084B00390D1
:104DE000029101920398029901F0007100EBD150F9
:104DF0000C300090009800680299C1F3045107221A
:104E00008A409043019A02FA01F108430099086030
:104E100004B0704781B00090009843F63001C4F2AE
:104E200002010A6822EA0000086001B07047000031
:104E300082B00190019843F63001C4F202010A6881
:104E4000104308600868019908400090009802B07B
:104E50007047000082B00190019843F63001C4F21F
:104E600002010A6810430860086801990840009030
:104E7000009802B07047000082B00190019843F69C
:104E80003001C4F202010A68104308600868019901
:104E900008400090009802B07047000082B0019076
:104EA000019843F63001C4F202010A681043086019
:104EB0000868019908400090009802B0704700000F
:104EC00081B00090009843F61001C4F202010A6814
:104ED0001043086001B0704781B00090009843F61D
:104EE0001001C4F202010A681043086001B0704763
:104EF00081B00090009843F61001C4F202010A68E4
:104F000022EA0000086001B07047000081B0009004
:104F1000009843F61001C4F202010A6822EA000078
:104F2000086001B07047000082B00190019843F61C
:104F30003401C4F202010A6810430860086801994C
:104F400008400090009802B07047000081B00090C7
:104F5000009843F61401C4F202010A681043086085
:104F600001B0704781B00090009843F61401C4F27C
:104F700002010A6822EA0000086001B070470000E0
:104F800081B00090009843F64001C4F202010A6823
:104F900022EA0000086001B07047000081B0009074
:104FA000009843F64001C4F202010A6822EA0000B8
:104FB000086001B07047000082B00190019843F68C
:104FC0004001C4F202010A681043086008680199B0
:104FD00008400090009802B07047000082B0019035
:104FE000019843F64001C4F202010A6810430860C8
:104FF0000868019908400090009802B070470000CE
:1050000082B00190019843F64001C4F202010A689F
:10501000104308600868019908400090009802B0A9
:105020007047000081B00090009843F62001C4F260
:1050300002010A681043086001B0704781B0009017
:10504000009843F62001C4F202010A6822EA000037
:10505000086001B07047000081B00090009843F6EE
:105060004401C4F202010A6822EA0000086001B0AB
:105070007047000081B00090009843F64401C4F2EC
:1050800002010A6822EA0000086001B070470000CF
:1050900082B00190019843F64401C4F202010A680B
:1050A000104308600868019908400090009802B019
:1050B0007047000082B00190019843F64401C4F2A9
:1050C00002010A68104308600868019908400090CE
:1050D000009802B07047000082B00190019843F63A
:1050E0004401C4F202010A6810430860086801998B
:1050F00008400090009802B07047000081B0009016
:10510000009843F62401C4F202010A6810430860C3
:1051100001B0704781B00090009843F62401C4F2BA
:1051200002010A6822EA0000086001B0704700002E
:1051300080B584B0039000208DF80B00039843F2F3
:105140000001C4F20201884209D1FFE74FF4805008
:105150000190FFF7B5FE0198FFF7CAFE03E00120BA
:105160008DF80B00FFE79DF80B0004B080BD000038
:1051700084B00390029101920398029901F4702186
:1051800000EB9130083000900098006840F6FF7105
:105190008843019908430099086004B070470000F3
:1051A00082B001900091009800F01000012101FAF6
:1051B00000F001990A681043086002B070470000CF
:1051C00080B584B003900291019200208DF8030015
:1051D00001984068002801D0FFE7FFE70398029993
:1051E00000F03EF8002833D1FFE70198406800281E
:1051F0001BD0FFE703980068029901F0100140F608
:10520000FA728A409043019A1368D2F804C0D2F827
:1052100008E0D26843EA0C0343EA0E031A4302FA99
:1052200001F108430399086011E0039800680299AE
:1052300001F01001FA228A409043019A1368D26863
:105240001A4302FA01F1084303990860FFE703E0FB
:1052500001208DF80300FFE79DF8030004B080BD36
:1052600082B00190009101980068009901F010014E
:10527000C84000F0010002B07047000080B582B065
:10528000019000910098002810D1FFE7019800F0EC
:1052900023F9019800F068F9019800F0ADF9019840
:1052A00000F0DAF8019800F097F892E000980128F1
:1052B00010D1FFE7019800F017F9019800F05CF9B0
:1052C000019800F0A1F9019800F0CEF8019800F0E3
:1052D0008BF87DE00098022810D1FFE7019800F0DC
:1052E00013F9019800F058F9019800F095F9019828
:1052F00000F0C2F8019800F07FF868E000980328F9
:1053000010D1FFE7019800F007F9019800F04CF97F
:10531000019800F089F9019800F0B6F8019800F0C2
:1053200073F853E00098042810D1FFE7019800F0CB
:10533000FBF8019800F040F9019800F07DF9019820
:1053400000F0AAF8019800F067F83EE00098052800
:1053500010D1FFE7019800F0EFF8019800F034F960
:10536000019800F071F9019800F09EF8019800F0A2
:105370005BF829E00098062810D1FFE7019800F0BB
:10538000E3F8019800F028F9019800F065F9019818
:1053900000F092F8019800F04FF814E00098072808
:1053A00010D1FFE7019800F0D7F8019800F01CF940
:1053B000019800F059F9019800F086F8019800F082
:1053C00043F8FFE7FFE7FFE7FFE7FFE7FFE7FFE758
:1053D000FFE702B080BD000081B00090009804217A
:1053E000816001B07047000081B0009000984FF4D8
:1053F0008071816001B0704781B0009000984FF4D7
:105400008021816001B0704781B0009000984FF01A
:105410008071816001B0704781B0009000980421D4
:10542000C16001B07047000081B0009000984FF457
:105430008071C16001B0704781B0009000984FF456
:105440008021C16001B0704781B0009000984FF09A
:105450008071C16001B0704781B000900098012157
:10546000816001B07047000081B000900098402139
:10547000816001B07047000081B0009000984FF447
:105480008031816001B0704781B0009000984FF486
:105490008001816001B0704781B0009000980121C7
:1054A000C16001B07047000081B0009000984021B9
:1054B000C16001B07047000081B0009000984FF4C7
:1054C0008031C16001B0704781B0009000984FF406
:1054D0008001C16001B0704781B000900098102138
:1054E000816001B07047000081B0009000984FF4D7
:1054F0008061816001B0704781B0009000984FF4E6
:105500008061816001B0704781B0009000984FF4D5
:105510008011816001B0704781B0009000984FF019
:105520008061816001B0704781B0009000981021C7
:10553000C16001B07047000081B0009000984FF446
:105540008061C16001B0704781B0009000984FF455
:105550008011C16001B0704781B0009000984FF099
:105560008061C16001B0704781B000900098202137
:10557000816001B07047000081B0009000984FF446
:105580000061816001B0704781B0009000984FF4D5
:105590000061816001B0704781B0009000984FF4C5
:1055A0000011816001B0704781B0009000984FF009
:1055B0000061816001B0704781B0009000982021A7
:1055C000C16001B07047000081B0009000984FF4B6
:1055D0000061C16001B0704781B0009000984FF445
:1055E0000011C16001B0704781B0009000984FF089
:1055F0000061C16001B0704781B00090009808213F
:10560000816001B07047000081B0009000984FF4B5
:105610000071816001B0704781B0009000984FF434
:105620000021816001B0704781B0009000984FF078
:105630000071816001B0704781B00090009808212E
:10564000C16001B07047000081B0009000984FF435
:105650000071C16001B0704781B0009000984FF4B4
:105660000021C16001B0704781B0009000984FF0F8
:105670000071C16001B0704784B003900291019243
:105680000093039802994AF2BC22C0F60002515CD2
:105690000844406920F007000199009B1943084322
:1056A0000399029BD25C1144486104B0704700002A
:1056B00083B0029001910092029801994AF2BC22B3
:1056C000C0F60002515C405848F21F01CFF6FC7151
:1056D0000840009908430299019BD25C885003B0AE
:1056E0007047000080B596B01590149146F21000F6
:1056F000C4F20200139000208DF84B00149810F5AE
:10570000803F28D1FFE7159846F20001C4F202015C
:10571000884209D1FFE74FF400101190FFF7DCFB3E
:105720001198FFF7F3FB15E0159846F20041C4F21B
:105730000201884209D1FFE74FF480001090FFF783
:10574000CBFB1098FFF7E2FB03E001208DF84B0044
:10575000FFE7FFE7AEE11598149900F0AFF915984F
:1057600046F20001C4F2020188420AD1FFE7149810
:10577000002806D1FFE746F21000C4F202000F90A5
:105780002FE1159846F20041C4F2020188420AD185
:10579000FFE71498002806D1FFE746F21040C4F254
:1057A00002000E901AE1159846F20001C4F20201BF
:1057B00088420AD1FFE71498012806D1FFE746F294
:1057C0002800C4F202000D9005E1159846F2004150
:1057D000C4F2020188420AD1FFE71498012806D1D9
:1057E000FFE746F22840C4F202000C90F0E0159862
:1057F00046F20001C4F2020188420AD1FFE7149880
:10580000022806D1FFE746F24000C4F202000B90E6
:10581000DBE0159846F20041C4F2020188420AD149
:10582000FFE71498022806D1FFE746F24040C4F291
:1058300002000A90C6E0159846F20001C4F2020187
:1058400088420AD1FFE71498032806D1FFE746F201
:105850005800C4F202000990B1E0159846F20041E8
:10586000C4F2020188420AD1FFE71498032806D146
:10587000FFE746F25840C4F2020008909CE01598F9
:1058800046F20001C4F2020188420AD1FFE71498EF
:10589000042806D1FFE746F27000C4F20200079028
:1058A00087E0159846F20041C4F2020188420AD10D
:1058B000FFE71498042806D1FFE746F27040C4F2CF
:1058C0000200069072E0159846F20001C4F202014F
:1058D00088420AD1FFE71498052806D1FFE746F26F
:1058E0008800C4F2020005905DE0159846F2004180
:1058F000C4F2020188420AD1FFE71498052806D1B4
:10590000FFE746F28840C4F20200049048E0159890
:1059100046F20001C4F2020188420AD1FFE714985E
:10592000062806D1FFE746F2A000C4F20200039069
:1059300033E0159846F20041C4F2020188420AD1D0
:10594000FFE71498062806D1FFE746F2A040C4F20C
:10595000020002901EE01598002146F20002C4F2F7
:1059600002029042019107D1FFE714980738B0FA7C
:1059700080F040090190FFE70198C00746F2B84166
:10598000C4F2020100281CBF46F2B801C4F20201B1
:105990000291FFE702980390FFE703980490FFE766
:1059A00004980590FFE705980690FFE70698079092
:1059B000FFE707980890FFE708980990FFE7099824
:1059C0000A90FFE70A980B90FFE70B980C90FFE70F
:1059D0000C980D90FFE70D980E90FFE70E980F9032
:1059E000FFE70F981390139800210160139841600E
:1059F000139881601398C160139801611398212254
:105A000042611598149A00911146009A00F05AF9D3
:105A10001498002804D1FFE715983F21816048E0E1
:105A20001498012805D1FFE715984FF4746181603F
:105A30003EE01498022805D1FFE715984FF47C1139
:105A4000816034E01498032805D1FFE715984FF0E2
:105A5000746181602AE01498042804D1FFE7159846
:105A60003F21C16021E01498052805D1FFE7159872
:105A70004FF47461C16017E01498062805D1FFE760
:105A800015984FF47C11C1600DE01498072805D1DA
:105A9000FFE715984FF07461C16003E001208DF8B5
:105AA0004B00FFE7FFE7FFE7FFE7FFE7FFE7FFE761
:105AB000FFE7FFE79DF84B0016B080BD82B0019074
:105AC0000091019800994AF2BC22C0F60002515C94
:105AD000425822F00102425002B0704782B0019059
